0073166042410MEE TU SP R-MX O EG DROP      GROZ    0003000001000010000000001
0064144315500G WSHGTN BRH I-MX ON 8'S      GROZ    0001400001000010000000003
0064144316100G WSHGTN BRH I-MX GL 8'S      GROZ    0001000001000010000000003
0064144316500G WSHGTN BRH I-MX BROWN 8'S   GROZ    0001100001000010000000003
0072700000110MSCHWTZ SP R-MX MTZ BALL      GROZ    0004500001000010000000005
0072700000860MSCHWTZ SP R-MX BOWTIE VG     GROZ    0004000001000010000000005
0072700000870MSCHWTZ SP R-MX NDL VG        GROZ    0004000001000010000000005
0072700000880MSCHWTZ SP R-MX ALPHA         GROZ    0004000001000010000000005
0072700102000MSCHWTZ SP R-MX VG            GROZ    0006000001000010000000005
0072700102010MSCHWTZ SP R-MX SPLT PEA      GROZ    0006000001000010000000005
0072700102020MSCHWTZ SP R-MX SPLT PEA/BRLY GROZ    0006000001000010000000005
0072700102030MSCHWTZ SP R-MX LIMA BN/BRLY  GROZ    0006000001000010000000005
0072700102040MSCHWTZ SP R-MX MINSTR        GROZ    0006000001000010000000005
0072017001070BARZI SP R-MX BN              GROZ    0016000001000010000000007
0070147005590BASCOM'S SP R-MX MINSTR       GROZ    0010250001000010000000009
0044300121830LA CHOY SP R-MX O CH R        GROZ    0003000001000010000000011
0044300121850LA CHOY SP R-MX O BF R        GROZ    0003000001000010000000011
0044300121870LA CHOY SP R-MX O R           GROZ    0003000001000010000000011
0071891106550MRS GRIMES SP R-MX O-F BN     GROZ    0016000001000010000000013
0048001702010K SWS SP R-MX VG              GROZ    0001625001000010000000015
0048001702020K SWS SP R-MX GRN PEA         GROZ    0002875001000010000000015
0048001702030K SWS SP R-MX LEEK            GROZ    0002750001000010000000015
0048001702040K SWS SP&DIP R-MX ON          GROZ    0002000001000010000000015
0048001702050K SWS SP R-MX OXTAIL          GROZ    0002625001000010000000015
0048001702060K SWS SP R-MX MR              GROZ    0001900001000010000000015
0048001702070K SWS SP R-MX TOM/BASIL       GROZ    0002875001000010000000015
0048001702080K SWS SP R-MX CH NDL          GROZ    0002625001000010000000015
0048001702090K SWS SP R-MX NAPOLI          GROZ    0002375001000010000000015
0048001702100K SWS SP R-MX BF BRLY         GROZ    0002625001000010000000015
0048001702120K SWS SP R-MX MINSTR          GROZ    0002750001000010000000015
0048001702130K SWS SP R-MX ASP             GROZ    0002250001000010000000015
0048001702140K SWS SP R-MX HTY MINSTR HS   GROZ    0002800001000010000000015
0048001702150K SWS SP R-MX HTY VG HS       GROZ    0002900001000010000000015
0048001702160K SWS SP R-MX BFY VG HS       GROZ    0002000001000010000000015
0048001702170K SWS SP R-MX CY BRLY HS      GROZ    0002800001000010000000015
0048001702200K SWS SP R-MX CN&CH           GROZ    0002600001000010000000015
0048001702210K SWS SP R-MX O MR&PK         GROZ    0002100001000010000000015
0048001702220K SWS SP R-MX O MILD SHP      GROZ    0002200001000010000000015
0048001702230K SWS SP R-MX O HT&SOUR       GROZ    0001800001000010000000015
0048001702240K SWS SP R-MX CAULIFLOWER     GROZ    0002000001000010000000015
0048001702250K SWS SP R-MX HVT LNTL        GROZ    0003200001000010000000015
0048001702270K SWS SP R-MX CH&PASTA        GROZ    0002500001000010000000015
0048001702350K SWS SP R-MX FINE HERB       GROZ    0002500001000010000000015
0048001702360K SWS SP R-MX SPINACH         GROZ    0001800001000010000000015
0048001712010K SWS SP I-MX ON 4'S          GROZ    0001620001000010000000015
0048001712020K SWS SP I-MX CR VG 4'S       GROZ    0002750001000010000000015
0048001712030K SWS SP I-MX CR CH 4'S       GROZ    0002750001000010000000015
0048001712040K SWS SP I-MX POTATO 4'S      GROZ    0002620001000010000000015
0048001712060K SWS SP I-MX CH NDL 4'S      GROZ    0000750001000010000000015
0048001712070K SWS SP I-MX GRN PEA 4'S     GROZ    0002380001000010000000015
0048001712080K SWS SP I-MX TOM 4'S         GROZ    0002620001000010000000015
0048001712090K SWS SP I-MX GL PEA/CRTN 4'S GROZ    0003125001000010000000015
0053000215170SP STRTR SP R-MX BF VG        GROZ    0007100001000010000000017
0053000215180SP STRTR SP R-MX BF BRLY      GROZ    0007100001000010000000017
0053000215200SP STRTR SP R-MX CH NDL       GROZ    0005900001000010000000017
0053000238590SP STRTR SP R-MX GRND BF VG   GROZ    0006100001000010000000017
0019956000010PONY EXPRESS RANCH BS R-MX BN GROZ    0012000001000010000000019
0051000030590CMBL CP SP I-MX VG BF/SRLN 2'SGROZ    0001460001000010000000021
0051000031090CMBL QL SP R-MX NDL/BRH 2'S   GROZ    0004750001000010000000021
0051000031100CMBL QL SP R-MX CH NDL 2'S    GROZ    0004500001000010000000021
0051000031130CMBL QL SP&RP R-MX ON 2'S     GROZ    0002620001000010000000021
0051000037580CMBL QL SP R-MX CH RCE 2'S    GROZ    0004250001000010000000021
0051000037590CMBL QL SP&RP R-MX ON MR 2'S  GROZ    0002500001000010000000021
0051000039100CMBL QL SP&RP R-MX CHD CHS 2'SGROZ    0004620001000010000000021
0051000039140CMBL CP SP I-MX CH VG/MT 2'S  GROZ    0001540001000010000000021
0051000039150CMBL CP SP I-MX CH NDL/MT 2'S GROZ    0001460001000010000000021
0051000039160CMBL CP SP I-MX CR CH/MT 2'S  GROZ    0001720001000010000000021
0051000039170CMBL CP SP I-MX NDL/CH BRH 2'SGROZ    0001680001000010000000021
0079763662130SIX FORTUNE SP I-MX O NDL     GROZ    0003000001000010000000023
0017321400090A-ROY SP I-MX SHP             GROZ    0001750001000010000000025
0017321400100A-ROY SP I-MX CH              GROZ    0001750001000010000000025
0088849112850HILLBILLY SP R-MX BN          GROZ    0011000001000010000000027
0088849926510HILLBILLY SP R-MX SPLT PEA    GROZ    0011000001000010000000027
0015293006100DELAUNE'S BS R-MX CJ GMBO     GROZ    0007000001000010000000029
0041517002010CRML KSHR SP I-MX CH          GROZ    0005000001000010000000031
0041517002030CRML KSHR SP I-MX ON          GROZ    0005000001000010000000031
0041517002070CRML KSHR SP I-MX BF          GROZ    0005000001000010000000031
0041517002110CRML KSHR SP I-MX CH PAREVE   GROZ    0005000001000010000000031
0041517002610FLVR GM BS R-MX CH            GROZ    0016000001000010000000032
0041517002630FLVR GM BS R-MX BF            GROZ    0016000001000010000000032
0041517002650FLVR GM SP&DIP R-MX ON        GROZ    0010000001000010000000032
0076475007010EMES BS I-MX LS BF            GROZ    0006500001000010000000034
0076475007020EMES BS I-MX LS CH            GROZ    0006500001000010000000034
0041277210250GMT AWRD BS R-MX VG/MXD BN    GROZ    0006000001000010000000036
0041277254170GMT AWRD S-C SP I-MX O CH R   GROZ    0002500001000010000000036
0041277254190GMT AWRD S-C SP I-MX O SHP R  GROZ    0002500001000010000000036
0041277254200GMT AWRD S-C SP I-MX O BF R   GROZ    0002500001000010000000036
0041277254210GMT AWRD S-C SP I-MX O VG BF RGROZ    0002500001000010000000036
0041277316530GMT AWRD SP S BS R-MX HM      GROZ    0008000001000010000000036
0041277316540GMT AWRD SP S BS R-MX SFD     GROZ    0008000001000010000000036
0041277316550GMT AWRD SP S BS R-MX AU JUS  GROZ    0008000001000010000000036
0041277316690GMT AWRD SP S BS R-MX CH      GROZ    0016000001000010000000036
0041277316700GMT AWRD SP S BS R-MX BF      GROZ    0016000001000010000000036
0041277316720GMT AWRD SP S BS R-MX ON      GROZ    0010000001000010000000036
0041277316760GMT AWRD SP S BS R-MX CY HM   GROZ    0016000001000010000000036
0041277318820GMT AWRD SP R-MX VG           GROZ    0001000001000010000000036
0041277318830GMT AWRD SP&DIP I-MX ON       GROZ    0001330001000010000000036
0041277318840GMT AWRD SP R-MX CH NDL       GROZ    0001630001000010000000036
0041277318880GMT AWRD SP R-MX O CH NDL     GROZ    0001800001000010000000036
0041277318890GMT AWRD SP R-MX O MINSTR     GROZ    0002300001000010000000036
0041277318900GMT AWRD SP R-MX O ON         GROZ    0001700001000010000000036
0041277318920GMT AWRD SP R-MX O PEA        GROZ    0002500001000010000000036
0041277318930GMT AWRD SP R-MX O SPRING VG  GROZ    0001800001000010000000036
0041277318940GMT AWRD SP R-MX O VG TOM     GROZ    0002500001000010000000036
0041234126050GLD DP SP R-MX NE CL CHW      GROZ    0002750001000010000000038
0041234126150GLD DP SP R-MX LBST BSQ       GROZ    0001375001000010000000038
0041234126250GLD DP SP R-MX SFD CHW 4'S    GROZ    0002750001000010000000038
0041234126350GLD DP SP R-MX SHP BSQ        GROZ    0001375001000010000000038
0041234126450GLD DP SP R-MX MNHT CL CHW    GROZ    0002875001000010000000038
0075131004420GOODMAN'S SP&DIP R-MX ON 2'S  GROZ    0002750001000010000000040
0075131014300GOODMAN'S SP R-MX NDLMAN 2'S  GROZ    0004000001000010000000040
0013000503600WT WTCHR BRH I-MX CH 8'S      GROZ    0001250001000010000000042
0013000503700WT WTCHR BRH I-MX BF 8'S      GROZ    0001250001000010000000042
0013000503800WT WTCHR BRH I-MX ON 8'S      GROZ    0001250001000010000000042
0013000505200WT WTCHR BRH I-MX CH 8'S      GROZ    0001250001000010000000042
0013000505300WT WTCHR BRH I-MX BF 8'S      GROZ    0001250001000010000000042
0023254634810HN NTRL SP R-MX CHS           GROZ    0003400001000010000000044
0023254634910HN NTRL SP R-MX MINSTR        GROZ    0002750001000010000000044
0023254635010HN NTRL SP R-MX CR CH O-F     GROZ    0001900001000010000000044
0023254635110HN NTRL SP R-MX CR MR         GROZ    0002200001000010000000044
0023254635210HN NTRL SP R-MX ZSTY ON O-F   GROZ    0002750001000010000000044
0023254635310HN NTRL SP R-MX TANGY TOM O-F GROZ    0003450001000010000000044
0023254635410HN NTRL SP R-MX SPLT PEA O-F  GROZ    0003200001000010000000044
0023254635510HN NTRL SP R-MX HTY VG        GROZ    0002600001000010000000044
0023254639010HN NTRL SP R-MX CH NDL SF     GROZ    0001600001000010000000044
0023254639110HN NTRL SP R-MX ON SF         GROZ    0001100001000010000000044
0023254639210HN NTRL SP R-MX CR MR SF      GROZ    0001200001000010000000044
0023254639310HN NTRL SP R-MX MINSTR SF     GROZ    0002200001000010000000044
0023254639410HN NTRL SP R-MX TOM O-F SF    GROZ    0002400001000010000000044
0023254639510HN NTRL SP R-MX VG            GROZ    0003700001000010000000044
0071518010010PONY EXPRESS RANCH SP R-MX BN GROZ    0012000001000010000000046
0070024005210HRWTZ MRG SP R-MX MINSTR      GROZ    0006000001000010000000048
0070024005250HRWTZ MRG SP R-MX SPLT PEA    GROZ    0006000001000010000000048
0070024005490HRWTZ MRG SP R-MX MTZ BALL    GROZ    0004500001000010000000048
0070844004760KA-ME SP I-MX O PK WONTON     GROZ    0001500001000010000000050
0070844004770KA-ME SP I-MX O CH WONTON     GROZ    0001500001000010000000050
0041390030700KKMN SP I-MX O TOFU MSO 3'S   GROZ    0001050001000010000000052
0041390030800KKMN SP I-MX O EG FLWR SHP 4'SGROZ    0001120001000010000000052
0041390030820KKMN SP I-MX O EG FLWR VG 4'S GROZ    0001410001000010000000052
0041390030840KKMN SP I-MX O EG FLWR CN 4'S GROZ    0001800001000010000000052
0041390030860KKMN SP I-MX O EG FLWR HT&SR  GROZ    0001210001000010000000052
0021000677610KRAFT BS I-MX CH              GROZ    0016000001000010000000054
0021000677620KRAFT BS I-MX BF              GROZ    0016000001000010000000054
0021000677640KRAFT BS I-MX HM              GROZ    0016000001000010000000054
0021000677740KRAFT BS I-MX CH              GROZ    0048000001000010000000054
0021000677750KRAFT BS I-MX BF              GROZ    0048000001000010000000054
0021000677800KRAFT BS I-MX ON              GROZ    0008000001000010000000054
0070528003100PD PTNR BS R-MX CR BRC        GROZ    0001000001000010000000056
0070528003200PD PTNR BS R-MX CR MR         GROZ    0001100001000010000000056
0070528003300PD PTNR BS R-MX GRD VG        GROZ    0001500001000010000000056
0070528003400PD PTNR BS R-MX TOM/BASIL     GROZ    0001600001000010000000056
0070528003500PD PTNR BS R-MX CY FR ON      GROZ    0001200001000010000000056
0070528003600PD PTNR BS R-MX CHD CHS CHW   GROZ    0001700001000010000000056
0070528003700PD PTNR BS R-MX CR POTATO     GROZ    0001000001000010000000056
0070528003800PD PTNR BS R-MX CR TOM        GROZ    0002100001000010000000056
0039156000070LOUISIANA BS R-MX CJ GMBO     GROZ    0005000001000010000000058
0041789002110MRCHN R SUP SP R-MX O CH R    GROZ    0003000001000010000000060
0041789002120MRCHN R SUP SP R-MX O BF R    GROZ    0003000001000010000000060
0041789002130MRCHN R SUP SP R-MX O PK R    GROZ    0003000001000010000000060
0041789002140MRCHN R SUP SP R-MX O R       GROZ    0003000001000010000000060
0041789005110MRCHN SP R-MX O PK WONTON     GROZ    0001900001000010000000060
0041789005120MRCHN SP R-MX O VG WONTON     GROZ    0002000001000010000000060
0041789005130MRCHN SP R-MX O CH WONTON     GROZ    0002030001000010000000060
0052100003780MCCORMICK BS R-MX BF          GROZ    0003250001000010000000062
0052100003800MCCORMICK BS R-MX CH          GROZ    0003250001000010000000062
0052100005360SCHILLING BS R-MX BF          GROZ    0004500001000010000000063
0052100005370SCHILLING BS R-MX CH STOCK    GROZ    0004500001000010000000063
0071956136760M ADR SP R-MX SPLT PEA/BRLY   GROZ    0006000001000010000000065
0071956510110M ADR SP R-MX VG BLD          GROZ    0006000001000010000000065
0071956510120M ADR SP R-MX MINSTR          GROZ    0006000001000010000000065
0071956510130M ADR SP R-MX SPLT PEA        GROZ    0006000001000010000000065
0071956902120M ADR SP R-MX SPLT PEA        GROZ    0006000001000010000000065
0071956902130M ADR SP R-MX MINSTR          GROZ    0006000001000010000000065
0071956902140M ADR SP R-MX VG BLD          GROZ    0006000001000010000000065
0074235205000M GRS SP&DIP R-MX CHILI       GROZ    0001700001000010000000067
0074235274000M GRS SP R-MX CH NDL HS 2'S   GROZ    0005000001000010000000067
0074235284510M GRS SP R-MX CH NDL 2'S      GROZ    0005000001000010000000067
0074235291000M GRS SP&DIP R-MX VG HS       GROZ    0001700001000010000000067
0074235292000M GRS SP R-MX ON MR           GROZ    0001400001000010000000067
0074235293200M GRS SP&DIP R-MX ON          GROZ    0001500001000010000000067
0074235295710M GRS SP R-MX BFY VG 2'S      GROZ    0004500001000010000000067
0074891005010MYOJO SP R-MX O CHURAZANMAI   GROZ    0003810001000010000000069
0074891005020MYOJO SP R-MX O CHURAZANMAI   GROZ    0003560001000010000000069
0074891005030MYOJO SP R-MX O CHURAZANMAI   GROZ    0004870001000010000000069
0025200001130HAMBEENS SP R-MX HM&BN        GROZ    0020000001000010000000071
0028000355600NES ST SP I-MX CH NDL 4'S     GROZ    0001400001000010000000073
0070662030010CP NDL SP I-MX O BF           GROZ    0002250001000010000000075
0070662030020CP NDL SP I-MX O SHP          GROZ    0002250001000010000000075
0070662030030CP NDL SP I-MX O CH           GROZ    0002250001000010000000075
0070662030060CP NDL SP I-MX O GRD VG       GROZ    0002500001000010000000075
0070662030070CP NDL SP I-MX O CH MR        GROZ    0002250001000010000000075
0070662030080CP NDL SP I-MX O CRAB         GROZ    0002250001000010000000075
0070662030090CP NDL SP I-MX O LBST         GROZ    0002250001000010000000075
0070662031010CP NDL SP I-MX O HTY BF VG    GROZ    0002500001000010000000075
0070662031030CP NDL SP I-MX O HTY CR CH    GROZ    0002500001000010000000075
0070662050010CP NDL SP I-MX O BF 2'S       GROZ    0002400001000010000000075
0070662050020CP NDL SP I-MX O CH 2'S       GROZ    0002400001000010000000075
0070662010010TOP R SP R-MX O ORIGNL R      GROZ    0003000001000010000000076
0070662010020TOP R SP R-MX O BF R          GROZ    0003000001000010000000076
0070662010030TOP R SP R-MX O CH R          GROZ    0003000001000010000000076
0070662010040TOP R SP R-MX O PK R          GROZ    0003000001000010000000076
0070662010060TOP R SP R-MX O ON R          GROZ    0003000001000010000000076
0070662010070TOP R SP R-MX O GRD VG R      GROZ    0003000001000010000000076
0070662010080TOP R SP R-MX O CH MR R       GROZ    0003000001000010000000076
0070662010100TOP R SP R-MX O SHP R         GROZ    0003000001000010000000076
0070662010110TOP R SP R-MX O CH SESAME R   GROZ    0003000001000010000000076
0041133615630NVLL SP R-MX POTATO LEEK CHW  GROZ    0001400001000010000000078
0041133615650NVLL SP R-MX CR BRC           GROZ    0001200001000010000000078
0041133615660NVLL SP R-MX CR ASP           GROZ    0001000001000010000000078
0041133615670NVLL SP R-MX NE CL CHW        GROZ    0001600001000010000000078
0012694198510OZARK BN SP R-MX BN           GROZ    0012000001000010000000080
0018300731070PANNI SP I-MX POTATO 2'S      GROZ    0002800001000010000000082
0070164008200CR HOUSE SP I-MX BF           GROZ    0004500001000010000000084
0070164008210CR HOUSE SP I-MX CH           GROZ    0004500001000010000000084
0070164008230CR HOUSE SP R-MX MTZ BALL 2'S GROZ    0004500001000010000000084
0070164008240CR HOUSE SP I-MX ON           GROZ    0004500001000010000000084
0045454002610MILLERS BS R-MX CH            GROZ    0016000001000010000000086
0045454002630MILLERS BS R-MX BF            GROZ    0016000001000010000000086
0045454006040MILLERS BS R-MX TURKEY        GROZ    0016000001000010000000086
0045454002680PBI BS I-MX FR ON             GROZ    0008000001000010000000087
0033600000300HERB-OX BRH I-MX BF 8'S       GROZ    0001250001000010000000089
0033600000310HERB-OX BRH I-MX CH 8'S       GROZ    0001500001000010000000089
0033600000600HERB-OX BRH I-MX LS BF 8'S    GROZ    0001250001000010000000089
0033600000610HERB-OX BRH I-MX LS CH 8'S    GROZ    0001200001000010000000089
0041500043090FRENCH'S BS R-MX CH STOCK     GROZ    0002500001000010000000091
0041500045690FRENCH'S BS R-MX BF STOCK     GROZ    0002125001000010000000091
0036800449300CTL BR SP I-MX O SHP C-R      GROZ    0002250001000010000000092
0036800580310CTL BR SP R-MX ON             GROZ    0001380001000010000000092
0036800580410CTL BR SP R-MX CH NDL         GROZ    0001750001000010000000092
0041360125700GENERIC SP R-MX ON 2'S        GROZ    0002750001000010000000092
0041500038060TRADEWINDS BS R-MX BF BRH     GROZ    0002100001000010000000092
0041500038140TRADEWINDS BS R-MX CH BRH     GROZ    0002500001000010000000092
0070038335430CTL BR SP&DIP R-MX ON         GROZ    0001250001000010000000092
0071923533100GENERIC SP R-MX CH NDL        GROZ    0001750001000010000000092
0071923533120GENERIC SP R-MX ON            GROZ    0001380001000010000000092
0074317009290CTL BR SP R-MX ON             GROZ    0001375001000010000000092
0075450818300CTL BR SP R-MX ON             GROZ    0001375001000010000000092
0077983533120GENERIC SP&DIP I-MX ON        GROZ    0001375001000010000000092
0070670001610MN PALACE SP R-MX O CH R      GROZ    0003000001000010000000094
0070670001620MN PALACE SP R-MX O CRAB R    GROZ    0003000001000010000000094
0070670001630MN PALACE SP R-MX O ORIGNL R  GROZ    0003000001000010000000094
0070670001640MN PALACE SP R-MX O BF R      GROZ    0003000001000010000000094
0070670001650MN PALACE SP R-MX O LBST R    GROZ    0003000001000010000000094
0021727274700RIEBER SP R-MX NRWGN STYLE FSHGROZ    0002000001000010000000096
0021727435400RIEBER SP R-MX LBST BSQ       GROZ    0002200001000010000000096
0018600030250MBT BRH I-MX BF 8'S           GROZ    0001500001000010000000098
0018600030500MBT BRH I-MX CH 8'S           GROZ    0001500001000010000000098
0018600030750MBT BRH I-MX VG 8'S           GROZ    0001500001000010000000098
0018600031000MBT BRH I-MX ON 8'S           GROZ    0001600001000010000000098
0018600302530MBT BRH I-MX LS BF 8'S        GROZ    0001500001000010000000098
0018600305030MBT BRH I-MX LS CH 8'S        GROZ    0001500001000010000000098
0043700500070RONCO SP R-MX VG              GROZ    0007000001000010000000100
0074603000510SAMYANG SP R-MX O CH R        GROZ    0003000001000010000000102
0074603000520SAMYANG SP R-MX O BF R        GROZ    0003000001000010000000102
0074603000530SAMYANG SP R-MX O PK R        GROZ    0003000001000010000000102
0074603000540SAMYANG SP R-MX O SHP R       GROZ    0003000001000010000000102
0074603000550SAMYANG SP R-MX O R           GROZ    0003000001000010000000102
0074603000560SAMYANG SP R-MX O MR R        GROZ    0003000001000010000000102
0073201091030CALDO PRONTO SP I-MX BF       GROZ    0002500001000010000000103
0073201091040CALDO PRONTO SP I-MX CH       GROZ    0002500001000010000000103
0073201091050CALDO PRONTO SP I-MX SHP      GROZ    0002500001000010000000103
0073201031010SANWA RCH'N CR SP I-MX O CH   GROZ    0001500001000010000000104
0073201031020SANWA RCH'N CR SP I-MX O MR   GROZ    0002000001000010000000104
0073201031030SANWA RCH'N CR SP I-MX O TOM  GROZ    0002000001000010000000104
0073201031040SANWA RCH'N CR SP I-MX O SHP  GROZ    0002000001000010000000104
0073201071010SANWA R SP I-MX O CH R        GROZ    0002500001000010000000104
0073201071020SANWA R SP I-MX O BF R        GROZ    0002500001000010000000104
0073201071030SANWA R SP I-MX O SHP R       GROZ    0002500001000010000000104
0073201071040SANWA R SP I-MX O TOM VG R    GROZ    0002500001000010000000104
0076186000010SAPPORO SP R-MX O ORIGNL NDL  GROZ    0003500001000010000000106
0076186000020SAPPORO SP R-MX O CH NDL      GROZ    0003500001000010000000106
0076186000030SAPPORO SP R-MX O BF NDL      GROZ    0003500001000010000000106
0040100002120SPICE ISLANDS BS R-MX BF STOCKGROZ    0003200001000010000000108
0040100002210SPICE ISLANDS BS R-MX CH STOCKGROZ    0003200001000010000000108
0045300215170SP STRTR SP R-MX BF VG        GROZ    0007100001000010000000110
0045300215180SP STRTR SP R-MX BF BRLY      GROZ    0006700001000010000000110
0045300215190SP STRTR SP R-MX BF NDL       GROZ    0006700001000010000000110
0045300215200SP STRTR SP R-MX CH NDL       GROZ    0005900001000010000000110
0045300228110SP STRTR SP R-MX CH VG        GROZ    0005800001000010000000110
0045300238590SP STRTR SP R-MX GRND BF VG   GROZ    0006400001000010000000110
0045300285550SP STRTR SP R-MX SPLT PEA     GROZ    0009300001000010000000110
0071850124280MBT BRH I-MX CH 8'S           GROZ    0001500001000010000000112
0041147000490EST SP I-MX LS MNHT CL CHW 2'SGROZ    0000700001000010000000114
0041147000500EST SP I-MX LS CR VG 2'S      GROZ    0001200001000010000000114
0041147000510EST SP I-MX LS CH 2'S         GROZ    0000770001000010000000114
0041147000520EST SP I-MX LS CR TOM 2'S     GROZ    0000900001000010000000114
0041147000530EST SP I-MX LS CR MR 2'S      GROZ    0001130001000010000000114
0041147000540EST SP I-MX LS TOM VG 2'S     GROZ    0001250001000010000000114
0041000003130LP I-S-C SP R-MX CA CR BRC 2'SGROZ    0001400001000010000000116
0041000003140LP I-S-C SP R-MX CR ASP PS 2'SGROZ    0001200001000010000000116
0041000003150LP I-S-C SP R-MX CR MR A-R 2'SGROZ    0001600001000010000000116
0041000003160LP I-S-C SP R-MX LBST BSQ 2'S GROZ    0001400001000010000000116
0041000003170LP I-S-C SP R-MX NE CL CHW 2'SGROZ    0002000001000010000000116
0041000003190LP I-S-C SP R-MX CR CH/MR 2'S GROZ    0002000001000010000000116
0041000003240LP SP R-MX NDL/CH BRH 2'S     GROZ    0004800001000010000000116
0041000003320LP SP R-MX CH NDL/MT 2'S      GROZ    0003500001000010000000116
0041000003620LP SP R-MX ON 2'S             GROZ    0002750001000010000000116
0041000003640LP SP R-MX GL MR 2'S          GROZ    0002000001000010000000116
0041000003650LP SP R-MX GL ON 2'S          GROZ    0002500001000010000000116
0041000003850LP SP R-MX HTY CH NDL 2'S     GROZ    0003800001000010000000116
0041000003860LP SP R-MX HTY BF NDL 2'S     GROZ    0004400001000010000000116
0041000003870LP SP R-MX HTY TOM NDL 2'S    GROZ    0004700001000010000000116
0041000003940LP SP R-MX HTY NDL 2'S        GROZ    0004000001000010000000116
0041000003960LP SP R-MX TOM ON 2'S         GROZ    0003400001000010000000116
0041000003980LP SP R-MX BF MR 2'S          GROZ    0002500001000010000000116
0041000004080LP SP R-MX BFY ON 2'S         GROZ    0002250001000010000000116
0041000004130LP RP SP&DIP R-MX ON MR 2'S   GROZ    0002000001000010000000116
0041000004220LP RP SP&DIP R-MX VG 2'S      GROZ    0001800001000010000000116
0041000004300LP SP R-MX HTY MINSTR 2'S     GROZ    0004900001000010000000116
0041000004310LP SP R-MX HTY RCE VG 2'S     GROZ    0004600001000010000000116
0041000004330LP SP R-MX HTY NDL 3'S        GROZ    0004800001000010000000116
0041000004350LP SP R-MX HTY CR CH VG 2'S   GROZ    0003200001000010000000116
0041000004360LP SP R-MX HTY FR ON 2'S      GROZ    0002200001000010000000116
0041000004590LP SP R-MX CY VG 2'S          GROZ    0004000001000010000000116
0041000004610LP RP SP&DIP R-MX NCH CHS 2'S GROZ    0003000001000010000000116
0041000004620LP RP SP&DIP R-MX CR HERB 2'S GROZ    0002800001000010000000116
0041000004640LP SP R-MX VG BF 2'S          GROZ    0003500001000010000000116
0041000004900LP SP R-MX RING-O-NDL 2'S     GROZ    0004300001000010000000116
0041000014150LP C-S SP I-MX CR BRC 3'S     GROZ    0001800001000010000000116
0041000014160LP C-S SP I-MX CR ON 3'S      GROZ    0002000001000010000000116
0041000014170LP C-S SP I-MX CR BRC&CHS 3'S GROZ    0002000001000010000000116
0041000014230LP C-S CY SP I-MX VA PEA 2'S  GROZ    0002100001000010000000116
0041000014300LP C-S L-N SP I-MX CH 2'S     GROZ    0002100001000010000000116
0041000014310LP C-S L-N SP I-MX BF 2'S     GROZ    0002100001000010000000116
0041000014320LP C-S L-N SP I-MX GRD VG 2'S GROZ    0002200001000010000000116
0041000014330LP C-S L-N SP I-MX O 2'S      GROZ    0002000001000010000000116
0041000014340LP C-S L-N SP I-MX TOM VG 2'S GROZ    0002000001000010000000116
0041000014350LP C-S L-N SP I-MX CR CH 2'S  GROZ    0002300001000010000000116
0041000014550LP C-S CY SP I-MX CR CH/CN 3'SGROZ    0002900001000010000000116
0041000014560LP C-S CY SP I-MX SHP BSQ 2'S GROZ    0002200001000010000000116
0041000014580LP C-S CY SP I-MX CR CH VG 3'SGROZ    0002200001000010000000116
0041000014590LP C-S CY SP I-MX VG/MB 3'S   GROZ    0002500001000010000000116
0041000014600LP C-S CY SP I-MX CH SUP 3'S  GROZ    0002000001000010000000116
0041000014610LP C-S CY SP I-MX HTY CH 3'S  GROZ    0001800001000010000000116
0041000014620LP C-S CY SP I-MX HVT VG 3'S  GROZ    0002400001000010000000116
0041000014630LP C-S CY SP I-MX VA PEA 3'S  GROZ    0003200001000010000000116
0041000014660LP C-S SP I-MX CH VG 4'S      GROZ    0001500001000010000000116
0041000014670LP C-S SP I-MX VG BF 4'S      GROZ    0002000001000010000000116
0041000014690LP C-B SP I-MX CH 8'S         GROZ    0001600001000010000000116
0041000014740LP C-S SP I-MX RING NDL 4'S   GROZ    0001800001000010000000116
0041000014800LP C-S SP I-MX CH NDL/MT 4'S  GROZ    0001600001000010000000116
0041000014820LP C-S SP I-MX TOM 4'S        GROZ    0003000001000010000000116
0041000014830LP C-S SP I-MX ON 4'S         GROZ    0001000001000010000000116
0041000014840LP C-S SP I-MX GRN PEA 4'S    GROZ    0003600001000010000000116
0041000014850LP C-S SP I-MX CR CH 4'S      GROZ    0002400001000010000000116
0041000014860LP C-S SP I-MX CR MR 4'S      GROZ    0002300001000010000000116
0041000014880LP C-S SP I-MX SPRING VG 4'S  GROZ    0001700001000010000000116
0041000014890LP C-S SP I-MX CH RCE 4'S     GROZ    0001600001000010000000116
0041000016500LP C-S L SP I-MX LEMON CH 3'S GROZ    0001200001000010000000116
0041000016510LP C-S L SP I-MX O O VG 3'S   GROZ    0000750001000010000000116
0041000016520LP C-S L SP I-MX TOM&HERB 3'S GROZ    0001800001000010000000116
0041000016530LP C-S L SP I-MX CR CH FL 3'S GROZ    0001200001000010000000116
0041000016560LP C-S L SP I-MX GL CR BRC 3'SGROZ    0001800001000010000000116
0041000021020LP SP R-MX O CH NDL           GROZ    0003000001000010000000116
0041000021040LP SP R-MX O BF NDL           GROZ    0003000001000010000000116
0041000021060LP SP R-MX O PK NDL           GROZ    0003000001000010000000116
0041000021080LP SP R-MX O TERIYAKI NDL     GROZ    0003000001000010000000116
0071816836010SMACK SP R-MX O R             GROZ    0003000001000010000000118
0071816836020SMACK SP R-MX O BF R          GROZ    0003000001000010000000118
0071816836030SMACK SP R-MX O PK R          GROZ    0003000001000010000000118
0071816836040SMACK SP R-MX O CH R          GROZ    0003000001000010000000118
0071816836050SMACK SP R-MX O HT&SPICY R    GROZ    0003000001000010000000118
0071816836080SMACK SP R-MX O CHS R         GROZ    0003000001000010000000118
0071816836410SMACK C-R SP I-MX O BF R      GROZ    0002500001000010000000118
0071816836420SMACK C-R SP I-MX O CH R      GROZ    0002250001000010000000118
0071816836430SMACK C-R SP I-MX O SHP R     GROZ    0002500001000010000000118
0071816836450SMACK C-R SP I-MX O FR ON R   GROZ    0002250001000010000000118
0071816836920SNOODLES SP I-MX O BF MR      GROZ    0001750001000010000000119
0071816836940SNOODLES SP I-MX O CH VG      GROZ    0001750001000010000000119
0071816836950SNOODLES SP I-MX O SHP        GROZ    0001750001000010000000119
0072098024000M WEISS SP&DIP R-MX ON 2'S    GROZ    0002750001000010000000121
0041149061250WILLIAMS SP R-MX VG 12'S PP   GROZ    0004500001000010000000123
0041258750030WYLER'S BRH I-MX CH           GROZ    0002890001000010000000125
0041258750040WYLER'S BRH I-MX BF           GROZ    0003110001000010000000125
0041258750840WYLER'S SP R-MX ON PP         GROZ    0001660001000010000000125
0041258750850WYLER'S SP R-MX CH NDL        GROZ    0002750001000010000000125
0022400029220SMITHERS CD CH VEG TEA        MLOZ    0005000001000010000000128
0064144045510SP DPSTA RTS MNSTRON/MTBL/PST MLOZ    0016500001000010000000130
0064144045520SP DPSTA RTS CRMY TOM/MTBL/PSTMLOZ    0016500001000010000000130
0064144045530SP DPSTA RTS CH ST/MTBL/PST   MLOZ    0016500001000010000000130
0064144045540SP DPSTA RTS BF CANNELONI/VEG MLOZ    0016500001000010000000130
0064144045550SP DPSTA RTS BF RAVIOLI/VEG   MLOZ    0016500001000010000000130
0064144045560SP DPSTA RTS CH RAVIOLI/VEG   MLOZ    0016500001000010000000130
0064144045570SP DPSTA RTS CY VEG/PST       MLOZ    0016500001000010000000130
0064144045580SP DPSTA RTS ITALIAN VEG/PST  MLOZ    0016500001000010000000130
0064144045590SP DPSTA RTS CH/VEG/PST       MLOZ    0016500001000010000000130
0064144045600SP DPSTA RTS CK VEG/BF/PST    MLOZ    0016500001000010000000130
0070320601340TRAPPEY'S RTS CRL OKR GMB     MLOZ    0014500001000010000000132
0072700101260MANISCHEWITZ CD CLR CH        MLOZ    0010500001000010000000134
0072700101270MANISCHEWITZ CD CH/KREPLACH   MLOZ    0010500001000010000000134
0072700101280MANISCHEWITZ CD CH/MTZ BLS    MLOZ    0010500001000010000000134
0072700101290MANISCHEWITZ CD CH/NDL        MLOZ    0010500001000010000000134
0072700101390MANISCHEWITZ CD BF CABBAGE    MLOZ    0010500001000010000000134
0072700101440MANISCHEWITZ CD MSH & BLY     MLOZ    0010500001000010000000134
0072700101630MANISCHEWITZ RTS SCHAV        MLOZ    0032000001000010000000134
0072700101650MANISCHEWITZ RTS BORSCHT/BEETSMLOZ    0032000001000010000000134
0072700101660MANISCHEWITZ RTS L-C BORSCHT  MLOZ    0032000001000010000000134
0072700101670MANISCHEWITZ RTS CLR BORSCHT  MLOZ    0032000001000010000000134
0072700101810MANISCHEWITZ RTS MTZ BLS      MLOZ    0024000001000010000000134
0071891023100MRS GRIMES RTS MIXED BN       MLOZ    0048000001000010000000136
0071851000010BOOKBINDERS RTS SNAPPER       MLOZ    0010500001000010000000138
0071851100020BOOKBINDERS CD NE CLAM CHOW   MLOZ    0010500001000010000000138
0071851100030BOOKBINDERS CD MAN CLAM CHOW  MLOZ    0010500001000010000000138
0071851100050BOOKBINDERS CD LOBSTER BISQUE MLOZ    0010500001000010000000138
0071851100060BOOKBINDERS CD OYSTER STEW    MLOZ    0010500001000010000000138
0071851100070BOOKBINDERS CD SEAFD BISQUE   MLOZ    0010500001000010000000138
0071851100080BOOKBINDERS CD SHP BISQUE     MLOZ    0010500001000010000000138
0053000160030SNOW'S CD NE CLAM CHOW        MLOZ    0015000001000010000000140
0071240094080MARINERS COVE CD NE CLAM CHOW MLOZ    0015000001000010000000142
0051000000110CAMP CD TOM                   MLOZ    0010750001000010000000144
0051000000140CAMP CD TOM                   MLOZ    0026000001000010000000145
0051000000160CAMP CD TOM                   MLOZ    0051000001000010000000145
0051000000970CAMP CD BF BR & BLY           MLOZ    0011000001000010000000145
0051000001070CAMP CD CH BR & RC            MLOZ    0010500001000010000000145
0051000005020CAMP HMCKN RTS O-F VEG BF     MLOZ    0010750001000010000000145
0051000005030CAMP HMCKN RTS O-F CH NDL     MLOZ    0010750001000010000000145
0051000005040CAMP HMCKN RTS O-F CY VEG     MLOZ    0010750001000010000000145
0051000005110CAMP HMCKN RTS O-F BF NDL     MLOZ    0010750001000010000000145
0051000005240CAMP CK RTS CK NE CLAM CHOW   MLOZ    0019000001000010000000145
0051000005440CAMP CK RTS CK STK & POT      MLOZ    0010750001000010000000145
0051000005460CAMP CK RTS CK MNSTRON        MLOZ    0019000001000010000000145
0051000005490CAMP CK RTS CK O-F VEG BF     MLOZ    0019000001000010000000145
0051000005500CAMP CK RTS CK BF             MLOZ    0019000001000010000000145
0051000005510CAMP CK RTS CK VEG            MLOZ    0019000001000010000000145
0051000005520CAMP CK RTS CK CH NDL         MLOZ    0019000001000010000000145
0051000005530CAMP CK RTS CK VEG TRKY       MLOZ    0018750001000010000000145
0051000005540CAMP CK RTS CK MAN CLAM CHOW  MLOZ    0019000001000010000000145
0051000005560CAMP CK RTS CK SRL BRG        MLOZ    0019000001000010000000145
0051000005620CAMP CK RTS CK CH/RC          MLOZ    0019000001000010000000145
0051000005640CAMP CK RTS CK SPLT PEA/HM    MLOZ    0019000001000010000000145
0051000005650CAMP CK RTS CK STGF STY BF NDLMLOZ    0010750001000010000000145
0051000005660CAMP CK RTS CK HM & BTR BN    MLOZ    0010750001000010000000145
0051000005670CAMP CK RTS CK O-F BN/HM      MLOZ    0011000001000010000000145
0051000005680CAMP CK RTS CK STK & POT      MLOZ    0019000001000010000000145
0051000005690CAMP CK RTS CK SRL BRG        MLOZ    0010750001000010000000145
0051000005700CAMP CK RTS CK BF             MLOZ    0010750001000010000000145
0051000005710CAMP CK RTS CK VEG            MLOZ    0010750001000010000000145
0051000005720CAMP CK RTS CK CH NDL/MSH     MLOZ    0010750001000010000000145
0051000005730CAMP CK RTS CK BF CHILI       MLOZ    0019500001000010000000145
0051000005840CAMP CK RTS CK SPLT PEA/HM    MLOZ    0010750001000010000000145
0051000005870CAMP CK RTS CK O-F BN/HM      MLOZ    0019250001000010000000145
0051000005950CAMP CK RTS CK VEG CH         MLOZ    0019000001000010000000145
0051000005990CAMP CK RTS CK BF CHILI       MLOZ    0011000001000010000000145
0051000006170CAMP RTS L-S TOM/PIECES       MLOZ    0010500001000010000000145
0051000006180CAMP RTS L-S CH NDL           MLOZ    0010750001000010000000145
0051000006190CAMP CK RTS L-S CK VEG BF     MLOZ    0010750001000010000000145
0051000006200CAMP RTS L-S SPLT PEA         MLOZ    0010750001000010000000145
0051000006210CAMP RTS L-S CRN              MLOZ    0010750001000010000000145
0051000006220CAMP CK RTS L-S CK CH/VEG     MLOZ    0010750001000010000000145
0051000006230CAMP CK RTS L-S CK BF/MSH     MLOZ    0010750001000010000000145
0051000006560CAMP HMCKN RTS TOM GARDEN     MLOZ    0010750001000010000000145
0051000006580CAMP HMCKN RTS TOM GARDEN     MLOZ    0019000001000010000000145
0051000006600CAMP RTS L-S CRM OF MSH       MLOZ    0010500001000010000000145
0051000006680CAMP CK RTS CK FISHERMAN CHOW MLOZ    0010750001000010000000145
0051000006690CAMP CK RTS CK FISHERMAN CHOW MLOZ    0019000001000010000000145
0051000006760CAMP CK RTS CK O-F VEG BF     MLOZ    0010750001000010000000145
0051000006790CAMP CK RTS CK 3-BN VEG       MLOZ    0019000001000010000000145
0051000006800CAMP CK RTS CK MEDITRN VEG    MLOZ    0019000001000010000000145
0051000006820CAMP CK RTS CK O-F CH         MLOZ    0010750001000010000000145
0051000006830CAMP CK RTS CK O-F CH         MLOZ    0019000001000010000000145
0051000006840CAMP RTS L-S CH BR            MLOZ    0010500001000010000000145
0051000006870CAMP CK RTS CK NE CLAM CHOW   MLOZ    0010750001000010000000145
0051000006910CAMP RTS L-S FR ONION         MLOZ    0010500001000010000000145
0051000008870CAMP CD BF BR & NDL           MLOZ    0010750001000010000000145
0051000009970CAMP S-S CD ZESTY TOM         MLOZ    0011000001000010000000145
0051000010210CAMP CD VEG                   MLOZ    0010500001000010000000145
0051000010240CAMP CD VEG                   MLOZ    0025750001000010000000145
0051000010260CAMP CD VEG                   MLOZ    0052000001000010000000145
0051000010310CAMP CD CRM OF CH             MLOZ    0010750001000010000000145
0051000010360CAMP CD CRM OF CH             MLOZ    0051000001000010000000145
0051000010470CAMP CD CONSOMME              MLOZ    0010500001000010000000145
0051000010510CAMP CD CH/RC                 MLOZ    0010500001000010000000145
0051000010710CAMP CD VEG CH                MLOZ    0010500001000010000000145
0051000010810CAMP CD CH GMB                MLOZ    0010750001000010000000145
0051000010970CAMP CD CH BR & NDLS          MLOZ    0010750001000010000000145
0051000011070CAMP CD BLACK BN              MLOZ    0011000001000010000000145
0051000011110CAMP CD BF                    MLOZ    0011000001000010000000145
0051000011270CAMP CD MAN CLAM CHOW         MLOZ    0010750001000010000000145
0051000011370CAMP CD PEPPER POT            MLOZ    0010500001000010000000145
0051000011410CAMP CD MNSTRON               MLOZ    0010500001000010000000145
0051000011510CAMP CD VEGETARIAN VEG        MLOZ    0010500001000010000000145
0051000011610CAMP CD CRM OF CELRY          MLOZ    0010750001000010000000145
0051000011660CAMP CD CRM OF CELRY          MLOZ    0050000001000010000000145
0051000011770CAMP CD FR ONION              MLOZ    0010500001000010000000145
0051000011870CAMP CD BF BR                 MLOZ    0010500001000010000000145
0051000011970CAMP CD GREEN PEA             MLOZ    0011250001000010000000145
0051000012070CAMP CD CRM OF ASPGS          MLOZ    0010750001000010000000145
0051000012210CAMP CD BF NDL                MLOZ    0011000001000010000000145
0051000012260CAMP CD BF NDL                MLOZ    0051000001000010000000145
0051000012310CAMP CD VEG BF                MLOZ    0010500001000010000000145
0051000012340CAMP CD VEG BF                MLOZ    0025750001000010000000145
0051000012360CAMP CD VEG BF                MLOZ    0051000001000010000000145
0051000012410CAMP CD TRKY NDL              MLOZ    0010750001000010000000145
0051000012510CAMP CD CH NDL                MLOZ    0010750001000010000000145
0051000012540CAMP CD CH NDL                MLOZ    0026000001000010000000145
0051000012560CAMP CD CH NDL                MLOZ    0051000001000010000000145
0051000012610CAMP CD CRM OF MSH            MLOZ    0010750001000010000000145
0051000012660CAMP CD CRM OF MSH            MLOZ    0050000001000010000000145
0051000012870CAMP CD STCH BR               MLOZ    0010500001000010000000145
0051000012910CAMP CD BN/BCN                MLOZ    0011500001000010000000145
0051000013170CAMP CD VEG TRKY              MLOZ    0010500001000010000000145
0051000013270CAMP CD CRM OF SHP            MLOZ    0010750001000010000000145
0051000013370CAMP CD OYSTER STEW           MLOZ    0010500001000010000000145
0051000013660CAMP CD NE CLAM CHOW          MLOZ    0050000001000010000000145
0051000013670CAMP CD NE CLAM CHOW          MLOZ    0010750001000010000000145
0051000013770CAMP CD BF CHILI              MLOZ    0011250001000010000000145
0051000014370CAMP CD O-F TOM RC            MLOZ    0011000001000010000000145
0051000014670CAMP CD SPLT PEA/HM & BCN     MLOZ    0011500001000010000000145
0051000014770CAMP CD CHEDDAR CHEESE        MLOZ    0011000001000010000000145
0051000015270CAMP CD CRMY CH MSH           MLOZ    0010750001000010000000145
0051000015410CAMP CD CH & STARS            MLOZ    0010500001000010000000145
0051000015870CAMP CD TOM BISQUE            MLOZ    0011000001000010000000145
0051000016010CAMP CD O-F VEG               MLOZ    0010500001000010000000145
0051000016170CAMP CD CRM OF ONION          MLOZ    0010750001000010000000145
0051000016210CAMP CD CH NDL O'S            MLOZ    0010250001000010000000145
0051000016410CAMP CD CRM OF POT            MLOZ    0010750001000010000000145
0051000016510CAMP CD NDLS & GROUND BF      MLOZ    0010750001000010000000145
0051000016580CAMP HMCKN RTS O-F VEG BF     MLOZ    0019000001000010000000145
0051000016590CAMP HMCKN RTS CH NDL         MLOZ    0019000001000010000000145
0051000016600CAMP HMCKN RTS CY VEG         MLOZ    0019000001000010000000145
0051000016760CAMP CD GARDEN VEG            MLOZ    0052000001000010000000145
0051000017670CAMP CD BFY MSH               MLOZ    0010750001000010000000145
0051000017710CAMP CD CURLY NDL/CH          MLOZ    0010500001000010000000145
0051000018470CAMP CD CH 'N DMP             MLOZ    0010500001000010000000145
0051000018740CAMP HMCKN RTS MNSTRON        MLOZ    0010750001000010000000145
0051000018750CAMP HMCKN RTS MNSTRON        MLOZ    0019000001000010000000145
0051000018760CAMP HMCKN RTS LENTIL         MLOZ    0010750001000010000000145
0051000018780CAMP HMCKN RTS LENTIL         MLOZ    0019000001000010000000145
0051000018790CAMP HMCKN RTS SPLT PEA/HAM   MLOZ    0010750001000010000000145
0051000018800CAMP HMCKN RTS SPLT PEA/HAM   MLOZ    0019000001000010000000145
0051000019670CAMP CD HMSTY BN              MLOZ    0011250001000010000000145
0051000021070CAMP CD CH BR                 MLOZ    0010750001000010000000145
0051000021410CAMP CD GOLDEN MSH            MLOZ    0010750001000010000000145
0051000022210CAMP CD MTBL ALPHABET         MLOZ    0010750001000010000000145
0051000022610CAMP CD CH ALPHABET           MLOZ    0010750001000010000000145
0051000023030CAMP HMCKN RTS HEARTY BF      MLOZ    0010750001000010000000145
0051000023040CAMP HMCKN RTS HEARTY BF      MLOZ    0019000001000010000000145
0051000024280CAMP CD NACHO CHEESE PP TRIAL MLOZ    0007500001000010000000145
0051000024570CAMP CD HMSTY CH NDL          MLOZ    0010750001000010000000145
0051000024660CAMP SP 1 S-CD O-F BN/HM      MLOZ    0007750001000010000000145
0051000024680CAMP SP 1 S-CD NE CLAM CHOW   MLOZ    0007750001000010000000145
0051000024690CAMP SP 1 S-CD GOLDEN CH NDL  MLOZ    0007750001000010000000145
0051000024700CAMP SP 1 S-CD SAV CRM OF MSH MLOZ    0007500001000010000000145
0051000024710CAMP SP 1 S-CD TOM ROYALE     MLOZ    0007750001000010000000145
0051000024720CAMP SP 1 S-CD OL WORLD VEG   MLOZ    0007750001000010000000145
0051000024730CAMP SP 1 S-CD VEG CH         MLOZ    0007750001000010000000145
0051000024740CAMP SP 1 S-CD BURLY VEG BF   MLOZ    0007750001000010000000145
0051000025860CAMP CD BF TERIYAKI           MLOZ    0010750001000010000000145
0051000025870CAMP CD ORIENTAL CH           MLOZ    0010750001000010000000145
0051000025880CAMP CD WON TON               MLOZ    0010750001000010000000145
0051000026270CAMP CD HMSTY BF NDL          MLOZ    0010750001000010000000145
0051000026370CAMP CRMY NAT CD CRMY ASPGS   MLOZ    0010750001000010000000145
0051000026770CAMP CD CRISPY SPAN STY VEG   MLOZ    0010500001000010000000145
0051000026870CAMP CD CRISPY TOM GARDEN     MLOZ    0010750001000010000000145
0051000027570CAMP CRMY NAT CD CRMY POT     MLOZ    0010750001000010000000145
0051000028670CAMP CRMY NAT CD CRMY BROCCOLIMLOZ    0010750001000010000000145
0051000028770CAMP CRMY NAT CD CRMY SPINACH MLOZ    0010750001000010000000145
0051000029370CAMP CRMY NAT CD CRMY CLFLWR  MLOZ    0010750001000010000000145
0051000029670CAMP CD HMSTY CRM OF TOM      MLOZ    0011000001000010000000145
0051000030770CAMP CD HMSTY VEG             MLOZ    0010750001000010000000145
0051000030870CAMP CD OYSTER STEW           MLOZ    0010500001000010000000145
0051000031470CAMP S-D CD NACHO CHEESE MILD MLOZ    0010750001000010000000145
0051000042410CAMP HMCKN RTS BN/HM          MLOZ    0010750001000010000000145
0051000042420CAMP HMCKN RTS CH/RC          MLOZ    0010750001000010000000145
0051000042430CAMP HMCKN RTS BN/HM          MLOZ    0019000001000010000000145
0051000042440CAMP HMCKN RTS CH/RC          MLOZ    0019000001000010000000145
0051000051380CAMP HMCKN RTS CH GMB/SAUSAGE MLOZ    0019000001000010000000145
0051000053480CAMP HMCKN RTS CH GMB         MLOZ    0010750001000010000000145
0051000055470CAMP S-D CD NACHO CHEESE HOT  MLOZ    0011000001000010000000145
0051000058070CAMP G-C CD SRL BF/POT&MSH    MLOZ    0010750001000010000000145
0051000058170CAMP G-C CD CHEESE PST/CY VEG MLOZ    0010500001000010000000145
0051000058570CAMP G-C CD CH VEG/RC         MLOZ    0010750001000010000000145
0051000058870CAMP SPC RQ CD LS TOM         MLOZ    0010750001000010000000145
0051000058970CAMP SPC RQ CD LS CH NDL      MLOZ    0010750001000010000000145
0051000059770CAMP SPC RQ CD LS CRM OF CH   MLOZ    0010750001000010000000145
0051000060070CAMP SPC RQ CD LS CRM OF MSH  MLOZ    0010750001000010000000145
0051000060170CAMP SPC RQ CD LS VEG         MLOZ    0010500001000010000000145
0051000060510CAMP CD VEG ALPHABET          MLOZ    0010750001000010000000145
0051000061870CAMP SPC RQ CD LS VEG BF      MLOZ    0010500001000010000000145
0051000061970CAMP SPC RQ CD LS CH/RC       MLOZ    0010500001000010000000145
0051000062070CAMP SPC RQ CD LS BN/BCN      MLOZ    0011500001000010000000145
0051000062330CAMP CK RTS CK CRMY MSH       MLOZ    0010750001000010000000145
0051000062340CAMP CK RTS CK CRMY MSH       MLOZ    0019000001000010000000145
0051000062360CAMP CK RTS CK CRMY CH/MSH    MLOZ    0010750001000010000000145
0051000062380CAMP CK RTS CK CRMY CH/MSH    MLOZ    0019000001000010000000145
0051000063300CAMP CK RTS CK CH NUGGET      MLOZ    0019000001000010000000145
0051000063310CAMP CK RTS CK CH NUGGET      MLOZ    0010750001000010000000145
0051000063320CAMP CK RTS CK PEPPER STK     MLOZ    0019000001000010000000145
0051000063330CAMP CK RTS CK PEPPER STK     MLOZ    0010750001000010000000145
0051000020060CHEF'S KETTLE CD CH NDL       MLOZ    0051000001000010000000146
0051000024210SWNSN RTS BF BR               MLOZ    0014500001000010000000147
0051000024290SWNSN N-G RTS LS CH BR        MLOZ    0014500001000010000000147
0051000024300SWNSN RTS CH BR               MLOZ    0049500001000010000000147
0051000024310SWNSN RTS CH BR               MLOZ    0014500001000010000000147
0051000024330SWNSN CUP-O-BROTH RTS CH BR   MLOZ    0007250001000010000000147
0072984225270CH SUZ RTS SEAFD MSH          MLOZ    0013000001000010000000149
0028110063200C & B RTS FR ONION            MLOZ    0013000001000010000000151
0028110063700C & B RTS BLACK BN            MLOZ    0013000001000010000000151
0028110065100C & B RTS LENTIL/HM           MLOZ    0013000001000010000000151
0070974231010DOCKSIDE CD SEAFD MNSTRON     MLOZ    0010750001000010000000153
0070974231030DOCKSIDE CD SEAFD BISQUE      MLOZ    0010750001000010000000153
0070974231050DOCKSIDE CD SHP BISQUE        MLOZ    0010750001000010000000153
0070974231070DOCKSIDE CD LOBSTER BISQUE    MLOZ    0010750001000010000000153
0070974231090DOCKSIDE CD NE CLAM CHOW      MLOZ    0010750001000010000000153
0070974231110DOCKSIDE CD MAN CLAM CHOW     MLOZ    0010750001000010000000153
0024000322300COLLEGE INN RTS CH BR         MLOZ    0013750001000010000000155
0017000002770LNCH BCKTS MW RTS CLAM CHOW   MLOZ    0008000001000010000000157
0017000002790LNCH BCKTS MW RTS SPLT PEA/HM MLOZ    0008000001000010000000157
0017000002850LNCH BCKTS MW RTS CH NDL      MLOZ    0008500001000010000000157
0017000002870LNCH BCKTS MW RTS VEG BF      MLOZ    0008500001000010000000157
0017000002970LNCH BCKTS MW RTS CY VEG      MLOZ    0008250001000010000000157
0017000002980LNCH BCKTS MW RTS HEARTY CH   MLOZ    0008500001000010000000157
0040054198310DMNQ'S U.S. SENATE RTS BN     MLOZ    0015000001000010000000159
0040054198410DMNQ'S RTS TURTLE SNAPPER     MLOZ    0015000001000010000000159
0040054198420DMNQ'S RTS GAZPACHO           MLOZ    0015000001000010000000159
0040054198440DMNQ'S RTS NE CLAM CHOW       MLOZ    0015000001000010000000159
0040054198470DMNQ'S RTS FR ONION           MLOZ    0015000001000010000000159
0040054198480DMNQ'S RTS VICHYSSOISE        MLOZ    0015000001000010000000159
0040054198490DMNQ'S RTS LENTIL             MLOZ    0014750001000010000000159
0040054198500DMNQ'S RTS SLM&LOBSTER BISQUE MLOZ    0015000001000010000000159
0053900030330DOXSEE CD NE CLAM CHOW        MLOZ    0015000001000010000000161
0053900030390DOXSEE S-CD NE CLAM CHOW      MLOZ    0007500001000010000000161
0053900030650DOXSEE CD MAN CLAM CHOW       MLOZ    0015000001000010000000161
0053900030730DOXSEE CD NE CLAM CHOW        MLOZ    0026000001000010000000161
0051557002000WILD LIFE RTS PHEASANT&DMP    MLOZ    0015000001000010000000163
0041277251580PORT ARTHUR RTS WONTON        MLOZ    0014250001000010000000165
0041277192430SANTA SABINA RTS LENTIL       MLOZ    0015000001000010000000166
0041277192440SANTA SABINA RTS MNSTRON      MLOZ    0015000001000010000000166
0041277192490SANTA SABINA RTS CH BR        MLOZ    0015000001000010000000166
0075091000010SID & ROXIES RTS CONCH CHOW   MLOZ    0016000001000010000000168
0075091000020SID & ROXIES RTS TURTLE CHOW  MLOZ    0016000001000010000000168
0013000200000HEINZ G-A CD TOM              MLOZ    0010500001000010000000170
0013000200200HEINZ G-A CD CH NDL           MLOZ    0010500001000010000000170
0013000201000HEINZ G-A CD CRM OF MSH       MLOZ    0010500001000010000000170
0013000850100W-W RTS DT CH NDL             MLOZ    0010500001000010000000171
0013000850200W-W RTS DT CRM OF MSH         MLOZ    0010500001000010000000171
0013000850300W-W RTS DT TRKY VEG           MLOZ    0010500001000010000000171
0013000850400W-W RTS DT VEG BF             MLOZ    0010500001000010000000171
0013000850600W-W RTS DT CK VEGETARIAN VEG  MLOZ    0010500001000010000000171
0023254646710HAIN NTRL RTS TRKY/RC         MLOZ    0010500001000010000000173
0023254648210HAIN NTRL RTS UNS CH BR       MLOZ    0017500001000010000000173
0035742220010HLTH VLY RTS VEG              MLOZ    0015000001000010000000175
0035742220020HLTH VLY RTS LENTIL           MLOZ    0015000001000010000000175
0035742220030HLTH VLY RTS UNS MNSTRON      MLOZ    0015000001000010000000175
0035742220040HLTH VLY RTS SPLT PEA         MLOZ    0015000001000010000000175
0035742220050HLTH VLY RTS O-F BN           MLOZ    0015000001000010000000175
0035742220060HLTH VLY RTS TOM              MLOZ    0015000001000010000000175
0035742220070HLTH VLY RTS POT              MLOZ    0015000001000010000000175
0035742220080HLTH VLY RTS MSH              MLOZ    0015000001000010000000175
0035742220100HLTH VLY RTS BF BR            MLOZ    0013750001000010000000175
0035742221010HLTH VLY RTS UNS VEG          MLOZ    0015000001000010000000175
0035742221020HLTH VLY RTS UNS LENTIL       MLOZ    0015000001000010000000175
0035742221030HLTH VLY RTS UNS MNSTRON      MLOZ    0015000001000010000000175
0035742221050HLTH VLY RTS UNS BN           MLOZ    0015000001000010000000175
0035742221060HLTH VLY RTS UNS TOM          MLOZ    0015000001000010000000175
0035742221070HLTH VLY RTS UNS POT          MLOZ    0015000001000010000000175
0035742221080HLTH VLY RTS UNS MSH          MLOZ    0015000001000010000000175
0035742221090HLTH VLY RTS UNS CLAM CHOW    MLOZ    0015000001000010000000175
0035742221100HLTH VLY RTS UNS BF BR        MLOZ    0015000001000010000000175
0035742221110HLTH VLY RTS CH BR            MLOZ    0013750001000010000000175
0035742223010HLTH VLY RTS UNS CK VEG       MLOZ    0015000001000010000000175
0035742223020HLTH VLY RTS UNS CK SPLT PEA  MLOZ    0015000001000010000000175
0035742223030HLTH VLY RTS UNS CK CLAM CHOW MLOZ    0015000001000010000000175
0035742223040HLTH VLY RTS UNS CK MNSTRON   MLOZ    0015000001000010000000175
0035742223050HLTH VLY RTS UNS CK BN        MLOZ    0015000001000010000000175
0030500200050HILTON RTS OYSTER STEW        MLOZ    0010500001000010000000177
0030500200100HILTON RTS OYSTER STEW        MLOZ    0008000001000010000000177
0030500200500HILTON CD NE CLAM CHOW        MLOZ    0010500001000010000000177
0070255001000HOBO RTS HOBO                 MLOZ    0015000001000010000000179
0070024007410HRWTZ MRGTN RTS BORSCHT       MLOZ    0032000001000010000000181
0030875555510JAKE'S CD CLAM CHOW           MLOZ    0015000001000010000000183
0039000062500C & B RTS MAN CLAM CHOW       MLOZ    0013000001000010000000185
0039000062600C & B RTS NE CLAM CHOW        MLOZ    0013000001000010000000185
0039000063000C & B RTS SHP BISQUE          MLOZ    0013000001000010000000185
0039000063100C & B RTS CRM OF VICHYSSOISE  MLOZ    0013000001000010000000185
0039000063200C & B RTS FR ONION            MLOZ    0013000001000010000000185
0039000063300C & B RTS CRAB ALA MARYLAND   MLOZ    0013000001000010000000185
0039000063400C & B RTS MARYLAND CRAB BISQUEMLOZ    0013000001000010000000185
0039000063600C & B RTS CRM OF MSH BISQUE   MLOZ    0013000001000010000000185
0039000063700C & B RTS BLACK BN            MLOZ    0013000001000010000000185
0039000063900C & B RTS MADRLN R CONSOMME   MLOZ    0013000001000010000000185
0039000064000C & B RTS MADRLN CLR CONSOMME MLOZ    0013000001000010000000185
0039000064200C & B RTS GAZPACHO            MLOZ    0013000001000010000000185
0039000064600C & B RTS MNSTRON             MLOZ    0013000001000010000000185
0039000065200C & B RTS SPLT GREEN PEA/HM   MLOZ    0013000001000010000000185
0070106841250DIA-MEL CD DT TOM             MLOZ    0008000001000010000000187
0070106841350DIA-MEL CD DT CH NDL          MLOZ    0008000001000010000000187
0070106841450DIA-MEL CD DT CRM OF MSH      MLOZ    0008000001000010000000187
0070106841550DIA-MEL CD DT VEG BF          MLOZ    0008000001000010000000187
0070106841650DIA-MEL CD DT CK MNSTRON      MLOZ    0015000001000010000000187
0028100036760MOTHER'S RTS SCHAV            MLOZ    0032000001000010000000189
0028100408130MOTHER'S RTS BORSCHT          MLOZ    0032000001000010000000189
0028100408170MOTHER'S RTS UNS BORSCHT      MLOZ    0032000001000010000000189
0061763044440HIGH LINER CD CRM OF SHP      MLOZ    0010750001000010000000191
0061763044450HIGH LINER CD CRM OF SCALLOP  MLOZ    0010750001000010000000191
0061763044460HIGH LINER CD CRM OF LOBSTER  MLOZ    0010750001000010000000191
0061763044470HIGH LINER CD MARITIME CHOW   MLOZ    0010750001000010000000191
0061763044480HIGH LINER CD NE CLAM CHOW    MLOZ    0010750001000010000000191
0061763044490HIGH LINER CD SEAFD CHOW      MLOZ    0010750001000010000000191
0028000062500C & B RTS MAN CLAM CHOW       MLOZ    0013000001000010000000193
0028000062600C & B RTS NE CLAM CHOW        MLOZ    0013000001000010000000193
0028000063100C & B RTS CRM OF VICHYSSOISE  MLOZ    0013000001000010000000193
0028000063200C & B RTS FR ONION            MLOZ    0013000001000010000000193
0028000063300C & B RTS CRAB ALA MARYLAND   MLOZ    0013000001000010000000193
0028000063600C & B RTS CRM OF MSH BISQUE   MLOZ    0013000001000010000000193
0028000063700C & B RTS BLACK BN            MLOZ    0013000001000010000000193
0028000064000C & B RTS MADRLN CLR CONSOMME MLOZ    0013000001000010000000193
0028000064200C & B RTS GAZPACHO            MLOZ    0013000001000010000000193
0014100079820PEPP FARM S-CD GREEN PEA      MLOZ    0011250001000010000000195
0014100080290PEPP FARM S-CD GAZPACHO       MLOZ    0011000001000010000000195
0014100080300PEPP FARM S-CD CH & WILD RC   MLOZ    0010750001000010000000195
0014100080310PEPP FARM S-CD HUNTER         MLOZ    0010750001000010000000195
0014100080340PEPP FARM S-CD NE CLAM CHOW   MLOZ    0010500001000010000000195
0014100080360PEPP FARM S-CD VICHYSSOISE    MLOZ    0010750001000010000000195
0014100080370PEPP FARM S-CD FR ONION       MLOZ    0010750001000010000000195
0014100080380PEPP FARM S-CD BLACK BN/SHERRYMLOZ    0011000001000010000000195
0014100080390PEPP FARM S-CD CRN CHOW       MLOZ    0011000001000010000000195
0014100080410PEPP FARM S-CD WATERCRESS     MLOZ    0010750001000010000000195
0014100080450PEPP FARM S-CD CRM OF BROCCOLIMLOZ    0010750001000010000000195
0014100080470PEPP FARM S-CD MAN CLAM CHOW  MLOZ    0010750001000010000000195
0014100080480PEPP FARM S-CD MNSTRON        MLOZ    0010750001000010000000195
0041196010000PROGRESSO RTS CH & RC/VEG     MLOZ    0019000001000010000000197
0041196010120PROGRESSO RTS MNSTRON         MLOZ    0020000001000010000000197
0041196010210PROGRESSO RTS LENTIL          MLOZ    0010500001000010000000197
0041196010220PROGRESSO RTS LENTIL          MLOZ    0020000001000010000000197
0041196010320PROGRESSO RTS CHICKARINA      MLOZ    0020000001000010000000197
0041196010510PROGRESSO RTS SPLT GREEN PEA  MLOZ    0020000001000010000000197
0041196010610PROGRESSO RTS MACRON & BN     MLOZ    0020000001000010000000197
0041196010720PROGRESSO RTS CH MNSTRON      MLOZ    0019000001000010000000197
0041196010780PROGRESSO RTS VEG BF          MLOZ    0019000001000010000000197
0041196010820PROGRESSO RTS BF MNSTRON      MLOZ    0019000001000010000000197
0041196010880PROGRESSO RTS CH NDL          MLOZ    0019000001000010000000197
0041196010920PROGRESSO RTS TOM             MLOZ    0019000001000010000000197
0041196010950PROGRESSO RTS SPLT PEA/HM     MLOZ    0019000001000010000000197
0041196010980PROGRESSO RTS BF              MLOZ    0019000001000010000000197
0041196011050PROGRESSO RTS BN/HM           MLOZ    0019000001000010000000197
0041196011110PROGRESSO RTS MAN CLAM CHOW   MLOZ    0020000001000010000000197
0041196011120PROGRESSO RTS NE CLAM CHOW    MLOZ    0019000001000010000000197
0041196011210PROGRESSO RTS HMSTY CH        MLOZ    0020000001000010000000197
0041196910230PROGRESSO RTS LENTIL/SAUSAGE  MLOZ    0019000001000010000000197
0041196910940PROGRESSO RTS BF BLY          MLOZ    0019000001000010000000197
0041196911130PROGRESSO RTS VEG             MLOZ    0019000001000010000000197
0041196911150PROGRESSO RTS X-ZST MNSTRON   MLOZ    0019000001000010000000197
0041196911160PROGRESSO RTS CH              MLOZ    0019000001000010000000197
0041196911220PROGRESSO RTS TOM/TORTELLINI  MLOZ    0019000001000010000000197
0041196911240PROGRESSO RTS CRM OF MSH      MLOZ    0018500001000010000000197
0041196911250PROGRESSO RTS CRM OF CH/MSH   MLOZ    0019000001000010000000197
0041196911260PROGRESSO RTS TOM/ROTINI/BF   MLOZ    0019000001000010000000197
0017800008640CHICKEN SEA RTS OYSTER STEW   MLOZ    0010500001000010000000199
0017800008700CHICKEN SEA RTS NE CLAM CHOW  MLOZ    0010500001000010000000199
0071079043670ANDERSEN RTS SPLT PEA         MLOZ    0015000001000010000000201
0071079043720ANDERSEN RTS CHEDDAR CHEESE   MLOZ    0015000001000010000000201
0070670000620TY LING RTS WON TON           MLOZ    0014250001000010000000203
0041679015000FTHRWGHT CD DT UNS CH NDL     MLOZ    0007500001000010000000205
0041679015020FTHRWGHT CD DT UNS TOM        MLOZ    0007500001000010000000205
0041679015040FTHRWGHT CD DT UNS CRM OF MSH MLOZ    0007500001000010000000205
0041679015050FTHRWGHT CD DT UNS VEG BF     MLOZ    0007500001000010000000205
0041358552410SWEET SUE RTS CH BR           MLOZ    0013500001000010000000207
0041358552420SWEET SUE RTS CH BR           MLOZ    0025250001000010000000207
0041358554130SWEET SUE RTS BF BR           MLOZ    0013500001000010000000207
0027258050000PRTKN RTS L-S CH NDL          MLOZ    0014500001000010000000209
0027258050010PRTKN RTS L-S TOM             MLOZ    0014500001000010000000209
0027258050020PRTKN RTS DT VEG CH           MLOZ    0014500001000010000000209
0027258050030PRTKN RTS DT CH BR            MLOZ    0013750001000010000000209
0027258050040PRTKN RTS DT MNSTRON          MLOZ    0014750001000010000000209
0027258050050PRTKN RTS DT VEG              MLOZ    0014750001000010000000209
0027258050060PRTKN RTS L-S SPLT PEA        MLOZ    0014500001000010000000209
0027258050070PRTKN RTS L-S LENTIL          MLOZ    0014500001000010000000209
0011150094800CTL BR CD TOM SP              MLOZ    0010750001000010000000211
0011161110010CTL BR CD TOM SP              MLOZ    0010750001000010000000211
0011161110030CTL BR CD CH NDL SP           MLOZ    0010500001000010000000211
0011161110050CTL BR CD CH/RC SP            MLOZ    0010500001000010000000211
0011161110070CTL BR CD CRM OF CH SP        MLOZ    0010500001000010000000211
0011161110090CTL BR CD CH/STARS SP         MLOZ    0010500001000010000000211
0011161110110CTL BR CD VEG CH SP           MLOZ    0010500001000010000000211
0011161110130CTL BR CD CRM OF MSH SP       MLOZ    0010500001000010000000211
0011161110150CTL BR CD TRKY NDL SP         MLOZ    0010500001000010000000211
0011161110170CTL BR CD BF NDL SP           MLOZ    0010500001000010000000211
0011161110190CTL BR CD VEG BF SP           MLOZ    0010500001000010000000211
0011161110210CTL BR CD VEG SP              MLOZ    0010750001000010000000211
0011161110250CTL BR CD BN/BCN SP           MLOZ    0011250001000010000000211
0011205040720CTL BR CD TOM SP              MLOZ    0010750001000010000000211
0013000806200CTL BR CD VEG SP              MLOZ    0010750001000010000000211
0013000816000CTL BR CD MNSTRON SP          MLOZ    0010750001000010000000211
0022222003530CTL BR CD TOM SP              MLOZ    0010750001000010000000211
0022222003540CTL BR CD VEG SP              MLOZ    0010750001000010000000211
0022222003550CTL BR CD CRM OF MSH SP       MLOZ    0010500001000010000000211
0022222003560CTL BR CD CH NDL SP           MLOZ    0010500001000010000000211
0022222003570CTL BR CD CH/RC SP            MLOZ    0010500001000010000000211
0022222003580CTL BR CD VEG BF SP           MLOZ    0010750001000010000000211
0022222003590CTL BR CD BN/BCN SP           MLOZ    0011250001000010000000211
0022222003600CTL BR CD CRM OF CH SP        MLOZ    0010500001000010000000211
0022222003610CTL BR CD VEG CH SP           MLOZ    0010500001000010000000211
0022222003620CTL BR CD CRM OF CELRY SP     MLOZ    0010500001000010000000211
0022222014820CTL BR CD CRM OF POT SP       MLOZ    0010750001000010000000211
0022222014830CTL BR CD SPLT PEA/HM & BCN SPMLOZ    0011250001000010000000211
0022222014840CTL BR CD O-F VEG SP          MLOZ    0010500001000010000000211
0022222014850CTL BR CD CH NDL SP           MLOZ    0010500001000010000000211
0022222031510CTL BR RTS CK BF SP           MLOZ    0019000001000010000000211
0022222031520CTL BR RTS CK SRL BRG SP      MLOZ    0019000001000010000000211
0022222031530CTL BR RTS CK CH SP           MLOZ    0019000001000010000000211
0022222031540CTL BR RTS CK SPLT PEA/HM SP  MLOZ    0019000001000010000000211
0022222031550CTL BR RTS CK VEG SP          MLOZ    0019000001000010000000211
0022222031560CTL BR RTS CK BF SP           MLOZ    0010750001000010000000211
0022222031570CTL BR RTS CK SRL BRG SP      MLOZ    0010750001000010000000211
0022222031580CTL BR RTS CK CH SP           MLOZ    0010750001000010000000211
0022222031590CTL BR RTS CK SPLT PEA/HM SP  MLOZ    0010750001000010000000211
0022222031600CTL BR RTS CK VEG SP          MLOZ    0010750001000010000000211
0036800101190CTL BR CD TOM SP              MLOZ    0010750001000010000000211
0036800102160CTL BR CD TOM/RC SP           MLOZ    0010750001000010000000211
0036800110830CTL BR CD TOM SP              MLOZ    0010750001000010000000211
0036800111150CTL BR CD CRM OF MSH SP       MLOZ    0010500001000010000000211
0036800112650CTL BR CD CRM OF MSH SP       MLOZ    0010750001000010000000211
0036800112850CTL BR CD VEG SP              MLOZ    0010500001000010000000211
0036800113800CTL BR CD CRM OF CH SP        MLOZ    0010500001000010000000211
0036800113850CTL BR CD CH NDL SP           MLOZ    0010500001000010000000211
0036800121150CTL BR CD BN/BCN SP           MLOZ    0011250001000010000000211
0036800131140CTL BR CD TRKY NDL SP         MLOZ    0010500001000010000000211
0036800141120CTL BR CD CH NDL SP           MLOZ    0010500001000010000000211
0036800142120CTL BR CD CH NDL O'S SP       MLOZ    0010500001000010000000211
0036800143150CTL BR CD CH/RC SP            MLOZ    0010500001000010000000211
0036800144140CTL BR CD CRM OF CH SP        MLOZ    0010500001000010000000211
0036800145150CTL BR CD VEG CH SP           MLOZ    0010500001000010000000211
0036800146150CTL BR CD CH/STARS SP         MLOZ    0010500001000010000000211
0036800151150CTL BR CD SPLT PEA/HM & BCN SPMLOZ    0011250001000010000000211
0036800161130CTL BR CD CRM OF CELRY SP     MLOZ    0010500001000010000000211
0036800179450CTL BR CD CHEDDAR CHEESE SP   MLOZ    0010500001000010000000211
0036800181130CTL BR CD VEG SP              MLOZ    0010750001000010000000211
0036800182150CTL BR CD VEG BF SP           MLOZ    0010500001000010000000211
0036800182200CTL BR RTS CH BR SP           MLOZ    0014500001000010000000211
0036800183140CTL BR CD O-F VEG SP          MLOZ    0010750001000010000000211
0036800184150CTL BR CD VEGETARIAN VEG SP   MLOZ    0010750001000010000000211
0036800185140CTL BR CD VEG BF & BLY SP     MLOZ    0010500001000010000000211
0036800190140CTL BR CD BF NDL SP           MLOZ    0010500001000010000000211
0036800191140CTL BR CD MNSTRON SP          MLOZ    0010750001000010000000211
0036800193140CTL BR CD BF CHILI SP         MLOZ    0011000001000010000000211
0036800201070CTL BR RTS CK VEG SP          MLOZ    0019000001000010000000211
0036800202090CTL BR RTS CK CH SP           MLOZ    0019000001000010000000211
0036800203050CTL BR RTS CK BF SP           MLOZ    0019000001000010000000211
0036800204010CTL BR RTS CK SPLT PEA/HM SP  MLOZ    0019000001000010000000211
0036800204150CTL BR RTS CK SRL BRG SP      MLOZ    0019000001000010000000211
0036800204220CTL BR RTS CK NE CLAM CHOW SP MLOZ    0019000001000010000000211
0036800211070CTL BR RTS CK CH SP           MLOZ    0010750001000010000000211
0036800212070CTL BR RTS CK VEG SP          MLOZ    0010750001000010000000211
0036800213070CTL BR RTS CK BF SP           MLOZ    0010750001000010000000211
0036800214070CTL BR RTS CK SPLT PEA/HM SP  MLOZ    0010750001000010000000211
0036800214090CTL BR RTS CK SRL BRG SP      MLOZ    0010750001000010000000211
0036800214150CTL BR RTS CK VEG BF SP       MLOZ    0019000001000010000000211
0036800214200CTL BR RTS CK VEG BF SP       MLOZ    0010750001000010000000211
0036800214210CTL BR RTS CK NE CLAM CHOW SP MLOZ    0010750001000010000000211
0041130000210GENERIC CD TOM SP             MLOZ    0010750001000010000000211
0041130000220GENERIC CD CH NDL SP          MLOZ    0010500001000010000000211
0041130000230GENERIC CD CRM OF MSH SP      MLOZ    0010500001000010000000211
0041130026500CTL BR RTS CH BR SP           MLOZ    0014500001000010000000211
0041130143500CTL BR CD BN/BCN SP           MLOZ    0011250001000010000000211
0041130143540CTL BR CD CH NDL SP           MLOZ    0010500001000010000000211
0041130143560CTL BR CD CH/RC SP            MLOZ    0010500001000010000000211
0041130143600CTL BR CD CH/VEG SP           MLOZ    0010500001000010000000211
0041130143620CTL BR CD CRM OF CELRY SP     MLOZ    0010500001000010000000211
0041130143640CTL BR CD CRM OF CH SP        MLOZ    0010500001000010000000211
0041130143660CTL BR CD CRM OF MSH SP       MLOZ    0010500001000010000000211
0041130143680CTL BR CD SPLT PEA/HM & BCN SPMLOZ    0011250001000010000000211
0041130143700CTL BR CD TOM SP              MLOZ    0010750001000010000000211
0041130143720CTL BR CD VEG SP              MLOZ    0010750001000010000000211
0041130143740CTL BR CD VEG BF SP           MLOZ    0010500001000010000000211
0041163460010CTL BR CD TOM SP              MLOZ    0010750001000010000000211
0041163460030CTL BR CD CRM OF MSH SP       MLOZ    0010500001000010000000211
0041163460040CTL BR CD CH NDL SP           MLOZ    0010500001000010000000211
0041163460050CTL BR CD CH/RC SP            MLOZ    0010500001000010000000211
0041163460060CTL BR CD VEG/BF ST SP        MLOZ    0010750001000010000000211
0041163460080CTL BR CD BN/BCN SP           MLOZ    0011250001000010000000211
0041163460090CTL BR CD VEG BF SP           MLOZ    0010500001000010000000211
0041163460130CTL BR CD CRM OF CH SP        MLOZ    0010500001000010000000211
0041270895120CTL BR CD CH/RC SP            MLOZ    0010500001000010000000211
0041591847820GENERIC CD TOM SP             MLOZ    0010500001000010000000211
0041591847830GENERIC CD CRM OF MSH SP      MLOZ    0010500001000010000000211
0041591847840GENERIC CD VEG/BF ST SP       MLOZ    0010500001000010000000211
0041591847850GENERIC CD CH NDL SP          MLOZ    0010500001000010000000211
0050700987730GENERIC CD CRM OF MSH SP      MLOZ    0010500001000010000000211
0070038343510CTL BR CD TOM SP              MLOZ    0010750001000010000000211
0070038343650CTL BR CD CRM OF MSH SP       MLOZ    0010500001000010000000211
0070038343800CTL BR CD CH NDL SP           MLOZ    0010500001000010000000211
0070038343950CTL BR CD VEG SP              MLOZ    0010500001000010000000211
0070038344000CTL BR CD TOM SP              MLOZ    0010750001000010000000211
0070038344010CTL BR CD CH NDL SP           MLOZ    0010500001000010000000211
0070038344020CTL BR CD CRM OF MSH SP       MLOZ    0010500001000010000000211
0070038344030CTL BR CD CRM OF CH SP        MLOZ    0010500001000010000000211
0070038344040CTL BR CD VEG SP              MLOZ    0010750001000010000000211
0070038344050CTL BR CD VEG BF SP           MLOZ    0010750001000010000000211
0070038344060CTL BR CD CH/RC SP            MLOZ    0010500001000010000000211
0070038344070CTL BR CD CRM OF CELRY SP     MLOZ    0010500001000010000000211
0070038344080CTL BR CD CRM OF POT SP       MLOZ    0010750001000010000000211
0070038344090CTL BR CD BN/BCN SP           MLOZ    0011250001000010000000211
0070038344100CTL BR CD CHEDDAR CHEESE SP   MLOZ    0010500001000010000000211
0070038344110CTL BR CD CK BF SP            MLOZ    0010750001000010000000211
0070038344120CTL BR RTS CK SRL BRG SP      MLOZ    0010750001000010000000211
0070253268090CTL BR CD CRM OF CH SP        MLOZ    0010500001000010000000211
0075450018420CTL BR CD TOM SP              MLOZ    0010750001000010000000211
0075450018440CTL BR CD BF NDL SP           MLOZ    0010500001000010000000211
0075450018460CTL BR CD BN/BCN SP           MLOZ    0011250001000010000000211
0075450018500CTL BR CD CH NDL SP           MLOZ    0010500001000010000000211
0075450018520CTL BR CD CH/RC SP            MLOZ    0010500001000010000000211
0075450018540CTL BR CD CH/STARS SP         MLOZ    0010500001000010000000211
0075450018560CTL BR CD VEG CH SP           MLOZ    0010500001000010000000211
0075450018580CTL BR CD BF CHILI SP         MLOZ    0011000001000010000000211
0075450018600CTL BR CD CRM OF CH SP        MLOZ    0010500001000010000000211
0075450018620CTL BR CD CRM OF MSH SP       MLOZ    0010500001000010000000211
0075450018640CTL BR CD TRKY NDL SP         MLOZ    0010500001000010000000211
0075450018660CTL BR CD VEG BF SP           MLOZ    0010500001000010000000211
0075450018680CTL BR CD VEG SP              MLOZ    0010750001000010000000211
0075450018700CTL BR CD VEGETARIAN VEG SP   MLOZ    0010750001000010000000211
0075450019720CTL BR CD O-F VEG SP          MLOZ    0010500001000010000000211
0075450020670CTL BR RTS CK BF SP           MLOZ    0010750001000010000000211
0075450020690CTL BR RTS CK CH SP           MLOZ    0010750001000010000000211
0075450020710CTL BR RTS CK VEG SP          MLOZ    0010750001000010000000211
0075450020730CTL BR RTS CK SPLT PEA/HM SP  MLOZ    0010750001000010000000211
0075450020750CTL BR RTS CK SRL BRG SP      MLOZ    0010750001000010000000211
0075450020770CTL BR RTS CK CLAM CHOW SP    MLOZ    0010000001000010000000211
0075450021210CTL BR RTS BF BR SP           MLOZ    0014500001000010000000211
0075450021620CTL BR RTS CK BF SP           MLOZ    0019000001000010000000211
0075450021640CTL BR RTS CK CH SP           MLOZ    0019000001000010000000211
0075450021660CTL BR RTS CK VEG SP          MLOZ    0019000001000010000000211
0075450021680CTL BR RTS CK SPLT PEA/HM SP  MLOZ    0019000001000010000000211
0075450021700CTL BR RTS CK SRL BRG SP      MLOZ    0019000001000010000000211
0075450021720CTL BR RTS CK CLAM CHOW SP    MLOZ    0019000001000010000000211
0075450021760CTL BR RTS CK VEG BF SP       MLOZ    0019000001000010000000211
0075450021800CTL BR CD CHEDDAR CHEESE SP   MLOZ    0010500001000010000000211
0075450021820CTL BR CD CRM OF CELRY SP     MLOZ    0010500001000010000000211
0075450021840CTL BR CD CRM OF POT SP       MLOZ    0010750001000010000000211
0075450021960CTL BR RTS CH BR SP           MLOZ    0014500001000010000000211
