0041315000160ADAMS CRM OF NH               GROZ    0016000001000010000000001
0041315010160ADAMS CHK OF NH               GROZ    0016000001000010000000002
0041315040160ADAMS CRM OF UNS NH           GROZ    0016000001000010000000003
0073147112050AMERICAN CHK H                GROZ    0048000001000010000000004
0073147113050AMERICAN CRM H                GROZ    0048000001000010000000005
0074333470220ARRWHD DF SMTH CHK H          GROZ    0018000001000010000000006
0074333470420ARRWHD DF SMTH CRM H          GROZ    0018000001000010000000007
0070675223010BILLY BOY CRM NAT H           GROZ    0018000001000010000000008
0070675225010BILLY BOY CRM NAT H           GROZ    0028000001000010000000009
0070675226010BILLY BOY CRM NAT H           GROZ    0040000001000010000000010
0070675226020BILLY BOY CHK NAT H           GROZ    0040000001000010000000011
0070106270010DIA-MEL CRM DIET UNS H        GROZ    0012000001000010000000012
0041248001150ELAM'S CRM NAT/WHEAT GRM NH   GROZ    0018000001000010000000013
0041679017270FEATHERWEIGHT CRM LOW-SOD H   GROZ    0006000001000010000000014
0041679017300FEATHERWEIGHT CRM LOW-SOD H   GROZ    0012000001000010000000015
0041679017320FEATHERWEIGHT CHK LOW-SOD H   GROZ    0006000001000010000000016
0041277280420GOURMET AWARD CHK DIET NH     GROZ    0016000001000010000000017
0041277280400GOURMET NATURAL CRM NAT NH    GROZ    0016000001000010000000018
0023254456110HAIN CRM UNS CASHEW H         GROZ    0011000001000010000000019
0023254466210HAIN CRM UNS NH               GROZ    0016000001000010000000020
0075236180010HALLAM CRM OF NH              GROZ    0018000001000010000000021
0075236180020HALLAM CHK OF NH              GROZ    0018000001000010000000022
0075236280020HALLAM CHK OF NH              GROZ    0018000001000010000000023
0035742165020HEALTH VALLEY CHK NAT NH      GROZ    0016000001000010000000024
0035742165030HEALTH VALLEY CRM UNS NH      GROZ    0016000001000010000000025
0041429300500HOLSUM CRM OF NH              GROZ    0016000001000010000000026
0041429320500HOLSUM CHK OF NH              GROZ    0016000001000010000000027
0070675213010HOME BRAND CRM H              GROZ    0018000001000010000000028
0070675213020HOME BRAND CHK H              GROZ    0018000001000010000000029
0070675213120HOME BRAND CHK NAT OF NH      GROZ    0018000001000010000000030
0070675213130HOME BRAND CRM NAT UNS NH     GROZ    0018000001000010000000031
0070675213140HOME BRAND CHK NAT UNS NH     GROZ    0018000001000010000000032
0070675215010HOME BRAND CRM H              GROZ    0028000001000010000000033
0070675215020HOME BRAND CHK H              GROZ    0028000001000010000000034
0070675292060HOME BRAND REAL CRM NAT NH    GROZ    0016000001000010000000035
0070675292070HOME BRAND REAL CHK NAT NH    GROZ    0016000001000010000000036
0070675294060HOME BRAND REAL CRM NAT NH    GROZ    0026000001000010000000037
0070675294070HOME BRAND REAL CHK NAT NH    GROZ    0026000001000010000000038
0037000004060JIF CRM H                     GROZ    0012000001000010000000039
0037000004070JIF CRM H                     GROZ    0018000001000010000000040
0037000004080JIF CRM H                     GROZ    0028000001000010000000041
0037000004090JIF CHK H                     GROZ    0012000001000010000000042
0037000004100JIF CHK H                     GROZ    0018000001000010000000043
0037000004110JIF CHK H                     GROZ    0028000001000010000000044
0037000004120JIF CRM H                     GROZ    0040000001000010000000045
0037000004130JIF CHK H                     GROZ    0040000001000010000000046
0037000004190JIF CRM H -.40                GROZ    0040000001000010000000047
0037000004220JIF CHK H -.40                GROZ    0040000001000010000000048
0037000004240JIF CRM H -.50                GROZ    0040000001000010000000049
0037000004300JIF CRM H 4OZ=                GROZ    0022000001000010000000050
0037000004320JIF CHK H 4OZ=                GROZ    0022000001000010000000051
0037000004420JIF CRM H -.20                GROZ    0018000001000010000000052
0037000004430JIF CHK H -.20                GROZ    0018000001000010000000053
0037000004530JIF CRM H PP                  GROZ    0012000001000010000000054
0037000004540JIF CHK H PP                  GROZ    0012000001000010000000055
0037000004690JIF CHK H -.50                GROZ    0040000001000010000000056
0037000004940JIF CHK H -.25                GROZ    0028000001000010000000057
0037000430020JIF CRM H -.30                GROZ    0028000001000010000000058
0037000430220JIF CHK H -.30                GROZ    0028000001000010000000059
0037000430280JIF CHK H                     GROZ    0012000001000010000000060
0037000430330JIF CHK H PP                  GROZ    0028000001000010000000061
0037000430340JIF CRM H PP                  GROZ    0028000001000010000000062
0077303004010MARKET STREET CRM NAT NH      GROZ    0017000001000010000000063
0077303004070MARKET STREET CRM NAT UNS NH  GROZ    0017000001000010000000064
0045300000050PETER PAN CHK UNS H           GROZ    0018000001000010000000065
0045300000060PETER PAN CRM UNS H           GROZ    0018000001000010000000066
0045300000080PETER PAN CRM LOW-SOD H       GROZ    0008000001000010000000067
0045300000210PETER PAN CRM H -.50          GROZ    0040000001000010000000068
0045300000290PETER PAN CHK H -.50          GROZ    0040000001000010000000069
0045300000300PETER PAN CRM H               GROZ    0012000001000010000000070
0045300000350PETER PAN CHK H               GROZ    0012000001000010000000071
0045300000400PETER PAN CRM H               GROZ    0018000001000010000000072
0045300000450PETER PAN CHK H               GROZ    0018000001000010000000073
0045300000500PETER PAN CRM H               GROZ    0028000001000010000000074
0045300000550PETER PAN CHK H               GROZ    0028000001000010000000075
0045300000600PETER PAN CRM H               GROZ    0040000001000010000000076
0045300000610PETER PAN CRM H -.25          GROZ    0028000001000010000000077
0045300000620PETER PAN CHK H -.25          GROZ    0028000001000010000000078
0045300000630PETER PAN CRM H -.20          GROZ    0018000001000010000000079
0045300000640PETER PAN CHK H -.20          GROZ    0018000001000010000000080
0045300000650PETER PAN CHK H               GROZ    0040000001000010000000081
0045300287420PETER PAN CHK H -.35          GROZ    0028000001000010000000082
0045300288410PETER PAN CRM H -.35          GROZ    0028000001000010000000083
0024400000880ROBB ROSS CRM H               GROZ    0018000001000010000000084
0071770200640SCHOOL DAY CRM H              GROZ    0064000001000010000000085
0071770201640SCHOOL DAY CHK H              GROZ    0064000001000010000000086
0048001270230SKIPPY CHK H 5OZ=             GROZ    0033000001000010000000087
0048001270240SKIPPY CHK H -.30             GROZ    0028000001000010000000088
0048001270250SKIPPY CRM H -.30             GROZ    0028000001000010000000089
0048001270290SKIPPY CHK H -.40             GROZ    0040000001000010000000090
0048001270310SKIPPY CHK H 4OZ=             GROZ    0022000001000010000000091
0048001270360SKIPPY CHK SUPER H            GROZ    0012000001000010000000092
0048001270400SKIPPY CHK SUPER H            GROZ    0018000001000010000000093
0048001270440SKIPPY CHK SUPER H            GROZ    0028000001000010000000094
0048001270480SKIPPY CHK SUPER H            GROZ    0040000001000010000000095
0048001270570SKIPPY CHK SUPER H -.25       GROZ    0028000001000010000000096
0048001270600SKIPPY CRM H                  GROZ    0012000001000010000000097
0048001270640SKIPPY CRM H                  GROZ    0018000001000010000000098
0048001270680SKIPPY CRM H                  GROZ    0028000001000010000000099
0048001270720SKIPPY CRM H                  GROZ    0040000001000010000000100
0048001270730SKIPPY CRM H 4OZ=             GROZ    0022000001000010000000101
0048001270740SKIPPY CRM H -.25             GROZ    0028000001000010000000102
0048001270770SKIPPY CRM H -.40             GROZ    0040000001000010000000103
0048001270790SKIPPY CRM H 5OZ=             GROZ    0033000001000010000000104
0048001905100SKIPPY CHK H                  GROZ    0080000001000010000000105
0048001905600SKIPPY CRM H                  GROZ    0080000001000010000000106
0051500000550SMUCKER CRM GOOBER GRAPE H    GROZ    0018000001000010000000107
0051500000650SMUCKER CRM GOOBER STRAWBY H  GROZ    0018000001000010000000108
0051500017000SMUCKER CRM NAT NH            GROZ    0016000001000010000000109
0051500017010SMUCKER CHK NAT NH            GROZ    0016000001000010000000110
0070990040720SUN GOLD CRM H                GROZ    0018000001000010000000111
0026565018160SUPERMAN CRM H                GROZ    0018000001000010000000112
0026565018560SUPERMAN CHK H                GROZ    0018000001000010000000113
0070990018160SUPERMAN CRM H                GROZ    0018000001000010000000114
0070990018560SUPERMAN CHK H                GROZ    0018000001000010000000115
0011161142100CTL BR PNUT BTR CRM H         GROZ    0018000001000010000000116
0011161142110CTL BR PNUT BTR CHK H         GROZ    0018000001000010000000117
0022222002920CTL BR PNUT BTR CRM H         GROZ    0028000001000010000000118
0022222002930CTL BR PNUT BTR CHK H         GROZ    0028000001000010000000119
0022222002940CTL BR PNUT BTR CRM H         GROZ    0040000001000010000000120
0022222002950CTL BR PNUT BTR CHK H         GROZ    0040000001000010000000121
0022222002960CTL BR PNUT BTR CRM OF NH     GROZ    0018000001000010000000122
0022222002970CTL BR PNUT BTR CRM H         GROZ    0018000001000010000000123
0022222002980CTL BR PNUT BTR CHK H         GROZ    0018000001000010000000124
0022222024210CTL BR PNUT BTR CRM H         GROZ    0018000001000010000000125
0036800401230CTL BR PNUT BTR CRM H         GROZ    0012000001000010000000126
0036800402210CTL BR PNUT BTR CHK H         GROZ    0012000001000010000000127
0036800431210CTL BR PNUT BTR CRM H         GROZ    0018000001000010000000128
0036800437210CTL BR PNUT BTR CHK H         GROZ    0018000001000010000000129
0036800437610CTL BR PNUT BTR CHK H         GROZ    0048000001000010000000130
0036800441160CTL BR PNUT BTR CRM H         GROZ    0018000001000010000000131
0036800441260CTL BR PNUT BTR CRM H         GROZ    0018000001000010000000132
0036800441410CTL BR PNUT BTR CRM H         GROZ    0040000001000010000000133
0036800442110CTL BR PNUT BTR CHK H         GROZ    0018000001000010000000134
0036800442360CTL BR PNUT BTR CHK H         GROZ    0018000001000010000000135
0036800442420CTL BR PNUT BTR CHK H         GROZ    0040000001000010000000136
0036800471120CTL BR PNUT BTR CRM H         GROZ    0028000001000010000000137
0036800472130CTL BR PNUT BTR CHK H         GROZ    0028000001000010000000138
0036800487210CTL BR PNUT BTR CRM H         GROZ    0048000001000010000000139
0036800502110CTL BR PNUT BTR CHK H         GROZ    0048000001000010000000140
0036800719110CTL BR PNUT BTR CRM H         GROZ    0080000001000010000000141
0036800769110CTL BR PNUT BTR CHK H         GROZ    0080000001000010000000142
0041130003970CTL BR PNUT BTR CHK OF NH     GROZ    0018000001000010000000143
0041130005560CTL BR PNUT BTR CRM H         GROZ    0040000001000010000000144
0041130005570CTL BR PNUT BTR CHK H         GROZ    0040000001000010000000145
0041130023430CTL BR PNUT BTR CRM H         GROZ    0012000001000010000000146
0041130023440CTL BR PNUT BTR CHK NH        GROZ    0012000001000010000000147
0041130031600CTL BR PNUT BTR              >GROZ    0040000001000010000000148
0041130031610CTL BR PNUT BTR              >GROZ    0040000001000010000000149
0041130110530CTL BR PNUT BTR CRM H         GROZ    0018000001000010000000150
0041130110550CTL BR PNUT BTR CHK H         GROZ    0018000001000010000000151
0041130110580CTL BR PNUT BTR CRM H         GROZ    0040000001000010000000152
0041130110590CTL BR PNUT BTR CHK H         GROZ    0040000001000010000000153
0041130110610CTL BR PNUT BTR CRM H         GROZ    0064000001000010000000154
0041130110620CTL BR PNUT BTR CHK H         GROZ    0064000001000010000000155
0041130131500CTL BR PNUT BTR CRM H         GROZ    0012000001000010000000156
0041130131520CTL BR PNUT BTR CHK H         GROZ    0012000001000010000000157
0041130131550CTL BR PNUT BTR CRM H         GROZ    0018000001000010000000158
0041130131570CTL BR PNUT BTR CHK H         GROZ    0018000001000010000000159
0041130131600CTL BR PNUT BTR CRM H         GROZ    0028000001000010000000160
0041130131620CTL BR PNUT BTR CHK H         GROZ    0028000001000010000000161
0041130131640CTL BR PNUT BTR CRM H         GROZ    0040000001000010000000162
0041130131660CTL BR PNUT BTR CHK H         GROZ    0040000001000010000000163
0041130140500CTL BR PNUT BTR CRM OF NH     GROZ    0018000001000010000000164
0041130140800CTL BR PNUT BTR CRM H         GROZ    0018000001000010000000165
0041130140820CTL BR PNUT BTR CHK H         GROZ    0018000001000010000000166
0041130140900CTL BR PNUT BTR CRM H         GROZ    0028000001000010000000167
0041130140920CTL BR PNUT BTR CHK H         GROZ    0028000001000010000000168
0041163310030CTL BR PNUT BTR CRM H         GROZ    0018000001000010000000169
0041163310040CTL BR PNUT BTR CHK H         GROZ    0018000001000010000000170
0041163310050CTL BR PNUT BTR CRM H         GROZ    0028000001000010000000171
0041163310060CTL BR PNUT BTR CHK H         GROZ    0028000001000010000000172
0041163316050CTL BR PNUT BTR CRM H         GROZ    0018000001000010000000173
0041163317030CTL BR PNUT BTR CRM H         GROZ    0040000001000010000000174
0041163317040CTL BR PNUT BTR CHK H         GROZ    0040000001000010000000175
0050700263880CTL BR PNUT BTR CHK H         GROZ    0040000001000010000000176
0070038321000CTL BR PNUT BTR CRM H         GROZ    0018000001000010000000177
0070038321010CTL BR PNUT BTR CRM H         GROZ    0048000001000010000000178
0070038321020CTL BR PNUT BTR CRM H         GROZ    0018000001000010000000179
0070038321060CTL BR PNUT BTR CRM H         GROZ    0040000001000010000000180
0070038321070CTL BR PNUT BTR CHK H         GROZ    0040000001000010000000181
0070038321130CTL BR PNUT BTR CHK H         GROZ    0018000001000010000000182
0070038321150CTL BR PNUT BTR CHK H         GROZ    0018000001000010000000183
0075450033100CTL BR PNUT BTR CHK H         GROZ    0012000001000010000000184
0075450033120CTL BR PNUT BTR CRM H         GROZ    0012000001000010000000185
0075450033140CTL BR PNUT BTR CHK H         GROZ    0018000001000010000000186
0075450033160CTL BR PNUT BTR CRM H         GROZ    0018000001000010000000187
0075450033180CTL BR PNUT BTR CHK H         GROZ    0028000001000010000000188
0075450033200CTL BR PNUT BTR CRM H         GROZ    0028000001000010000000189
0075450033220CTL BR PNUT BTR CHK H         GROZ    0040000001000010000000190
0075450033240CTL BR PNUT BTR CRM H         GROZ    0040000001000010000000191
0022222026610GENERIC PNUT BTR CHK H        GROZ    0018000001000010000000192
0024400000790GENERIC PNUT BTR CRM H        GROZ    0018000001000010000000193
0024400000800GENERIC PNUT BTR CHK H        GROZ    0018000001000010000000194
0041130000020GENERIC PNUT BTR CRM H        GROZ    0018000001000010000000195
0041130002580GENERIC PNUT BTR CHK H        GROZ    0018000001000010000000196
0041130017650GENERIC PNUT BTR CHK H        GROZ    0040000001000010000000197
0041130017660GENERIC PNUT BTR CRM H        GROZ    0040000001000010000000198
0041130025460GENERIC PNUT BTR CRM H        GROZ    0018000001000010000000199
0041130025470GENERIC PNUT BTR CHK H        GROZ    0018000001000010000000200
0041163316010GENERIC PNUT BTR CRM H        GROZ    0018000001000010000000201
0041163316020GENERIC PNUT BTR CHK H        GROZ    0018000001000010000000202
0041220051370GENERIC PNUT BTR CRM H        GROZ    0018000001000010000000203
0050700985370GENERIC PNUT BTR CRM H        GROZ    0018000001000010000000204
0050700985380GENERIC PNUT BTR CHK H        GROZ    0018000001000010000000205
0070253271380GENERIC PNUT BTR CHK H        GROZ    0018000001000010000000206
0070675203010GENERIC PNUT BTR CRM H        GROZ    0018000001000010000000207
0070675203020GENERIC PNUT BTR CHK H        GROZ    0018000001000010000000208
0071157001410GENERIC PNUT BTR CRM H        GROZ    0018000001000010000000209
0071157001420GENERIC PNUT BTR CHK H        GROZ    0018000001000010000000210
0071157002180GENERIC PNUT BTR CRM H        GROZ    0080000001000010000000211
0072261117020GENERIC PNUT BTR CHK H        GROZ    0018000001000010000000212
0073147120100GENERIC PNUT BTR CHK H        GROZ    0018000001000010000000213
0074317000230GENERIC PNUT BTR CRM H        GROZ    0018000001000010000000214
0074317000240GENERIC PNUT BTR CHK H        GROZ    0018000001000010000000215
0074961006530GENERIC PNUT BTR SPR CHK H    GROZ    0018000001000010000000216
0074961996520GENERIC PNUT BTR SPR CRM H    GROZ    0018000001000010000000217
