0070470001000YPLT CUSTARD YGT ST           GROZ    0006000001000010000000001
0070470001010YPLT CUSTARD YGT RBY          GROZ    0006000001000010000000001
0070470001020YPLT CUSTARD YGT BBY          GROZ    0006000001000010000000001
0070470001030YPLT CUSTARD YGT CH           GROZ    0006000001000010000000001
0070470001060YPLT CUSTARD YGT LMN          GROZ    0006000001000010000000001
0070470001100YPLT CUSTARD YGT MX BY        GROZ    0006000001000010000000001
0070470001110YPLT CUSTARD YGT HNY          GROZ    0006000001000010000000001
0070470001120YPLT CUSTARD YGT VAN          GROZ    0006000001000010000000001
0070470001140YPLT CUSTARD YGT BN           GROZ    0006000001000010000000001
0070470002500YPLT SP LF FRT YGT ST&BBY 4P  GROZ    0004000004000010000000001
0070470002510YPLT SP LF FRT YGT ST&ST&BN 4PGROZ    0004000004000010000000001
0070470002520YPLT SP LF FRT YGT RBY&PCH 4P GROZ    0004000004000010000000001
0070470003000YPLT ORIG FRT YGT ST          GROZ    0006000001000010000000001
0070470003010YPLT ORIG FRT YGT RBY         GROZ    0006000001000010000000001
0070470003020YPLT ORIG FRT YGT BBY         GROZ    0006000001000010000000001
0070470003030YPLT ORIG FRT YGT CH          GROZ    0006000001000010000000001
0070470003040YPLT ORIG FRT YGT APL         GROZ    0006000001000010000000001
0070470003050YPLT ORIG FRT YGT ORG         GROZ    0006000001000010000000001
0070470003060YPLT ORIG FRT YGT LMN         GROZ    0006000001000010000000001
0070470003070YPLT ORIG FRT YGT PCH         GROZ    0006000001000010000000001
0070470003080YPLT ORIG FRT YGT PNAPL       GROZ    0006000001000010000000001
0070470003090YPLT ORIG FRT YGT BYSBY       GROZ    0006000001000010000000001
0070470003100YPLT ORIG FRT YGT MX BY       GROZ    0006000001000010000000001
0070470003110YPLT ORIG YGT PLAIN           GROZ    0006000001000010000000001
0070470003120YPLT ORIG FRT YGT PN-CLD      GROZ    0006000001000010000000001
0070470003130YPLT ORIG FRT YGT ST&BN       GROZ    0006000001000010000000001
0070470003150YPLT ORIG FRT YGT ST&RHB      GROZ    0006000001000010000000001
0070470005000YPLT BKFST FRT YGT ST&ALM     GROZ    0006000001000010000000001
0070470005010YPLT BKFST FRT YGT BY         GROZ    0006000001000010000000001
0070470005030YPLT BKFST FRT YGT ORD FRT    GROZ    0006000001000010000000001
0070470005050YPLT BKFST FRT YGT CITRUS FRT GROZ    0006000001000010000000001
0070470005070YPLT BKFST FRT YGT APL&CINN   GROZ    0006000001000010000000001
0070470005090YPLT BKFST FRT YGT TRP FRT    GROZ    0006000001000010000000001
0070470005110YPLT BKFST FRT YGT PCH        GROZ    0006000001000010000000001
0070470005130YPLT BKFST FRT YGT ST&BN      GROZ    0006000001000010000000001
0070470005140YPLT BKFST FRT YGT CH&ALM     GROZ    0006000001000010000000001
0070470007000YPLT FOB YGT ST               GROZ    0006000002000010000000001
0070470007010YPLT FOB YGT RBY              GROZ    0006000002000010000000001
0070470007020YPLT FOB YGT BBY              GROZ    0006000002000010000000001
0070470007030YPLT FOB YGT CH               GROZ    0006000002000010000000001
0070470007070YPLT FOB YGT PCH              GROZ    0006000002000010000000001
0070470007080YPLT FOB YGT PNAPL            GROZ    0006000002000010000000001
0070470007100YPLT FOB YGT MX BY            GROZ    0006000002000010000000001
0070470009000YPLT Y-C DST FRT YGT ST RMNF  GROZ    0005000001000010000000001
0070470009010YPLT Y-C DST FRT YGT CH JUB   GROZ    0005000001000010000000001
0070470009020YPLT Y-C DST FRT YGT RBY&CREMEGROZ    0005000001000010000000001
0060356000200WGHT WTCH NF FRT YGT PCH      GROZ    0008000001000010000000003
0071984000110WGHT WTCH NF YGT PLAIN        GROZ    0008000001000010000000003
0071984000120WGHT WTCH NF FRT YGT ST       GROZ    0008000001000010000000003
0071984000130WGHT WTCH NF FRT YGT RBY      GROZ    0008000001000010000000003
0071984000140WGHT WTCH NF FRT YGT BBY      GROZ    0008000001000010000000003
0071984000180WGHT WTCH NF FRT YGT MX BY    GROZ    0008000001000010000000003
0071984000190WGHT WTCH NF YGT VAN          GROZ    0008000001000010000000003
0071984000200WGHT WTCH NF FRT YGT PCH      GROZ    0008000001000010000000003
0071984000210WGHT WTCH NF FRT YGT LMN CHFN GROZ    0008000001000010000000003
0071984000230WGHT WTCH NF FRT YGT BK CH    GROZ    0008000001000010000000003
0071984000260WGTH WTCH NF FRT YGT ST&BN    GROZ    0008000001000010000000003
0071984000660WGHT WTCH NF YGT PLAIN        GROZ    0016000001000010000000003
0071700373040OLD MILL FRT YGT PNAPL&CH     GROZ    0008000001000010000000005
0071700383040OLD MILL FRT YGT PCH          GROZ    0008000001000010000000005
0036632001000DN LF YGT PLAIN               GROZ    0008000001000010000000007
0036632001010DN FRSH FLVR LF YGT VAN       GROZ    0008000001000010000000007
0036632001020DN FRSH FLVR LF YGT COF       GROZ    0008000001000010000000007
0036632001030DN FRSH FLVR LF YGT LMN       GROZ    0008000001000010000000007
0036632001040DN LF FOB YGT ST              GROZ    0008000001000010000000007
0036632001070DN LF FOB YGT RD RBY          GROZ    0008000001000010000000007
0036632001080DN LF FOB YGT BBY             GROZ    0008000001000010000000007
0036632001090DN LF FOB YGT BYSBY           GROZ    0008000001000010000000007
0036632001100DN LF FOB YGT DCH APL         GROZ    0008000001000010000000007
0036632001110DN LF FOB YGT CH              GROZ    0008000001000010000000007
0036632001120DN LF FOB YGT PCH             GROZ    0008000001000010000000007
0036632001130DN LF FOB YGT BN              GROZ    0008000001000010000000007
0036632001140DN LF FOB YGT PN-CLD          GROZ    0008000001000010000000007
0036632001160DN LF FOB YGT MX BY           GROZ    0008000001000010000000007
0036632001170DN LF FOB YGT PEAR&HNY        GROZ    0008000001000010000000007
0036632001180DN LF FOB YGT ST&BN           GROZ    0008000001000010000000007
0036632001190DN LF FOB YGT EXOTIC FRT      GROZ    0008000001000010000000007
0036632001250DN HRTY N&R LF FOB YGT MX BY  GROZ    0008000001000010000000007
0036632001260DN HRTY N&R LF FOB YGT ORD FRTGROZ    0008000001000010000000007
0036632001270DN HRTY N&R LF FOB YGT VAN    GROZ    0008000001000010000000007
0036632001400DN FRSH FLVR LF YGT ST        GROZ    0008000001000010000000007
0036632001410DN FRSH FLVR LF YGT BBY       GROZ    0008000001000010000000007
0036632001420DN FRSH FLVR LF YGT RBY       GROZ    0008000001000010000000007
0036632001430DN FRSH FLVR LF YGT ST&BN     GROZ    0008000001000010000000007
0036632001800DN NF YGT PLAIN               GROZ    0008000001000010000000007
0036632002000DN LF YGT PLAIN               GROZ    0016000001000010000000007
0036632002010DN FRSH FLVR LF YGT VAN       GROZ    0016000001000010000000007
0036632002020DN LF YGT PLAIN               GROZ    0032000001000010000000007
0036632002030DN FRSH FLVR LF YGT LMN       GROZ    0016000001000010000000007
0036632002040DN FRSH FLVR LF YGT COF       GROZ    0016000001000010000000007
0036632002100DN FRSH FLVR LF YGT VAN       GROZ    0032000001000010000000007
0036632002500DN NF YGT PLAIN               GROZ    0016000001000010000000007
0036632002510DN NF YGT PLAIN               GROZ    0032000001000010000000007
0036632004000DN MP LF N FOB YGT BBY&RBY 4P GROZ    0004400004000010000000007
0036632004010DN MP LF N FOB YGT ST&BBY 4P  GROZ    0004400004000010000000007
0036632004020DN MP LF N FOB YGT ST&MX BY 4PGROZ    0004400004000010000000007
0036632004030DN MP LF N YGT VAN 4P         GROZ    0004400004000010000000007
0036632004040DN MP LF N FOB YGT ST 4P      GROZ    0004400004000010000000007
0036632004100DN MP LF FOB YGT ST 6P        GROZ    0004400006000010000000007
0036632004110DN FF MP LF YGT VAN 6P        GROZ    0004400006000010000000007
0036632004120DN MP LF FOB YGT ST&BBY 6P    GROZ    0004400006000010000000007
0036632004130DN MP LF FOB YGT ST&MX BY 6P  GROZ    0004400006000010000000007
0036632004140DN MP LF FOB YGT BBY&RBY 6P   GROZ    0004400006000010000000007
0036632004150DN MP LF FOB YGT CH&STBY&BN 6PGROZ    0004400001000010000000007
0036632005010DN XS LF FR YGT ST            GROZ    0006000001000010000000007
0036632005020DN XS LF FR YGT RBY           GROZ    0006000001000010000000007
0036632005030DN XS LF FR YGT CH            GROZ    0006000001000010000000007
0036632005040DN XS LF FR YGT BBY           GROZ    0006000001000010000000007
0036632005050DN XS LF FR YGT ST&BN         GROZ    0006000001000010000000007
0036632005060DN XS LF FR YGT PCH           GROZ    0006000001000010000000007
0036632005070DN XS LF FR YGT MX BY         GROZ    0006000001000010000000007
0036632005080DN XS LF FR YGT PN-CLD        GROZ    0006000001000010000000007
0036632005300DN XS LF FR YGT ST&MX BY 4P   GROZ    0004400004000010000000007
0036632005310DN XS LF FR YGT ST&RBY 4P     GROZ    0004400004000010000000007
0036632005500DN XS LF FR YGT ST&MX BY 6P   GROZ    0004400001000010000000007
0036632005510DN XS LF FR YGT RBY&STBY&BN 6PGROZ    0004400001000010000000007
0036632006000DN SP LF FOB YGT ST&ST 2P     GROZ    0006000002000010000000007
0036632006010DN SP LF FOB YGT ST&BN 2P     GROZ    0006000002000010000000007
0036632006020DN SP LF FOB YGT CH&COC 2P    GROZ    0006000002000010000000007
0036632006030DN SP LF FOB YGT BBY&MX BY 2P GROZ    0006000002000010000000007
0036632006040DN SP LF FOB YGT P-FRT&PCH 2P GROZ    0006000002000010000000007
0036632006050DN SP LF FOB YGT RBY&BLKBY 2P GROZ    0006000002000010000000007
0011538010010ELM GRV LF SW FOB YGT ST      GROZ    0008000001000010000000009
0011538010020ELM GRV LF SW FOB YGT RBY     GROZ    0008000001000010000000009
0011538010030ELM GRV LF SW FOB YGT BBY     GROZ    0008000001000010000000009
0011538010040ELM GRV LF SW FOB YGT BK CH   GROZ    0008000001000010000000009
0011538010050ELM GRV LF SW FOB YGT PCH     GROZ    0008000001000010000000009
0071000046660YAMI LF FOB YGT LMN           GROZ    0008000001000010000000011
0071000047040YAMI FOB YGT APR              GROZ    0008000001000010000000011
0071000047080YAMI FOB YGT BBY              GROZ    0008000001000010000000011
0071000047090YAMI FOB YGT BYSBY            GROZ    0008000001000010000000011
0071000047100YAMI FOB YGT CH               GROZ    0008000001000010000000011
0071000047120YAMI FOB YGT PCH              GROZ    0008000001000010000000011
0071000047150YAMI LF FOB YGT RBY           GROZ    0008000001000010000000011
0071000047320YAMI YGT PLAIN                GROZ    0008000001000010000000011
0071000091640YAMI FOB YGT PNAPL            GROZ    0008000001000010000000011
0071000091650YAMI FOB YGT ST               GROZ    0008000001000010000000011
0039200000500HWT MDY LF SW YGT PLAIN       GROZ    0008000001000010000000013
0039200000520HWT MDY LF SW FRT YGT ST      GROZ    0008000001000010000000013
0039200000530HWT MDY LF SW FRT YGT BBY     GROZ    0008000001000010000000013
0039200000550HWT MDY LF SW FRT YGT RBY     GROZ    0008000001000010000000013
0039200000570HWT MDY LF SW FRT YGT PCH     GROZ    0008000001000010000000013
0039200000580HWT MDY LF SW FRT YGT CH&VAN  GROZ    0008000001000010000000013
0072060004800HILAND YGT                   >GROZ    0008000001000010000000015
0072060047640HILAND LF N FRT YGT MAND ORG  GROZ    0008000001000010000000015
0072060048010HILAND LF N YGT PLAIN         GROZ    0008000001000010000000015
0072060048180HILAND LF N FRT YGT RD RBY    GROZ    0008000001000010000000015
0072060048250HILAND LF N FRT YGT CH        GROZ    0008000001000010000000015
0072060048630HILAND LF N FRT YGT ST        GROZ    0008000001000010000000015
0072060048870HILAND LF N FRT YGT PCH       GROZ    0008000001000010000000015
0072060048940HILAND LF N FRT YGT BBY       GROZ    0008000001000010000000015
0072060049000HILAND LF N FRT YGT LMN       GROZ    0008000001000010000000015
0072060049930HILAND LF N FRT YGT PNAPL     GROZ    0008000001000010000000015
0053600000070LA YOGURT FRT YGT PN-CLD      GROZ    0006000001000010000000017
0053600000510LA YOGURT FRT YGT ST          GROZ    0006000001000010000000017
0053600000610LA YOGURT FRT YGT RBY         GROZ    0006000001000010000000017
0053600000810LA YOGURT FRT YGT ST&BN       GROZ    0006000001000010000000017
0053600000910LA YOGURT FRT YGT CH          GROZ    0006000001000010000000017
0038000271020WHITNEY'S FRT YGT CH          GROZ    0006000001000010000000019
0038000273020WHITNEY'S FRT YGT RBY         GROZ    0006000001000010000000019
0038000274020WHITNEY'S FRT YGT ST          GROZ    0006000001000010000000019
0038000275020WHITNEY'S FRT YGT BBY         GROZ    0006000001000010000000019
0038000281020WHITNEY'S FRT YGT TRP FRT     GROZ    0006000001000010000000019
0038000282020WHITNEY'S FRT YGT ST&BN       GROZ    0006000001000010000000019
0038000284020WHITNEY'S FRT YGT PN-CLD      GROZ    0006000001000010000000019
0021000126400BREYERS YGT VAN BEAN          GROZ    0008000001000010000000021
0021000126430BREYERS FOB YGT BBY           GROZ    0008000001000010000000021
0021000126440BREYERS FOB YGT BK CH         GROZ    0008000001000010000000021
0021000126450BREYERS FOB YGT PNAPL         GROZ    0008000001000010000000021
0021000126460BREYERS FOB YGT RD RBY        GROZ    0008000001000010000000021
0021000126470BREYERS FOB YGT ST            GROZ    0008000001000010000000021
0021000126510BREYERS FOB YGT PCH           GROZ    0008000001000010000000021
0021000126640BREYERS FOB YGT ST&BN         GROZ    0008000001000010000000021
0021000126650BREYERS FOB YGT MX BY         GROZ    0008000001000010000000021
0021000006490LNL LF FRT YGT ST             GROZ    0006000001000010000000022
0021000008240LNL LF FRT YGT ST&BBY 6P      GROZ    0005000006000010000000022
0021000008250LNL LF FRT YGT RBY&PCH 6P     GROZ    0005000006000010000000022
0021000008260LNL LF FRT YGT ST&BN 6P       GROZ    0005000006000010000000022
0021000008270LNL LF FRT YGT BK CH&PNAPL 6P GROZ    0005000006000010000000022
0021000008280LNL LF FRT YGT ST&F-C 6P      GROZ    0005000006000010000000022
0021000125800LNL LF FRT YGT PCH&PNAPL 6P   GROZ    0005000006000010000000022
0021000125810LNL LF FRT YGT BBY&RD RBY 6P  GROZ    0005000006000010000000022
0021000125820LNL LF FRT YGT ST 6P          GROZ    0005000006000010000000022
0021000125830LNL LF FRT YGT ST&BBY 6P      GROZ    0005000006000010000000022
0021000125840LNL LF FRT YGT ST&BN&F-C 6P   GROZ    0005000006000010000000022
0021000126830LNL LF FRT YGT BBY            GROZ    0008000001000010000000022
0021000126840LNL LF FRT YGT BK CH          GROZ    0008000001000010000000022
0021000126860LNL LF FRT YGT PCH            GROZ    0008000001000010000000022
0021000126880LNL LF FRT YGT RD RBY         GROZ    0008000001000010000000022
0021000126890LNL LF FRT YGT ST             GROZ    0008000001000010000000022
0076200000610KEMPS CALCIUM LF YGT BBY      GROZ    0006000001000010000000024
0076200000620KEMPS CALCIUM LF YGT PNAPL    GROZ    0006000001000010000000024
0076200000630KEMPS CALCIUM LF YGT RBY      GROZ    0006000001000010000000024
0076200000640KEMPS CALCIUM LF YGT ST       GROZ    0006000001000010000000024
0076200000650KEMPS CALCIUM LF YGT PCH      GROZ    0006000001000010000000024
0076200000660KEMPS CALCIUM LF YGT BYSBY    GROZ    0006000001000010000000024
0076200000670KEMPS CALCIUM LF YGT ST&BN    GROZ    0006000001000010000000024
0076200000680KEMPS CALCIUM LF YGT CH&VAN   GROZ    0006000001000010000000024
0076200000710KEMPS CALCIUM LF YGT LMN      GROZ    0006000001000010000000024
0076200000720KEMPS CALCIUM LF FRT YGT MX BYGROZ    0006000001000010000000024
0070504012000SW VAL FRM LF FRT YGT CH&VAN  GROZ    0008000001000010000000026
0070504012010SW VAL FRM LF YGT PLAIN       GROZ    0008000001000010000000026
0070504012020SW VAL FRM LF FRT YGT PCH     GROZ    0008000001000010000000026
0070504012030SW VAL FRM LF FRT YGT ST      GROZ    0008000001000010000000026
0070504012040SW VAL FRM LF FRT YGT CH      GROZ    0008000001000010000000026
0070504012050SW VAL FRM LF FRT YGT PNAPL   GROZ    0008000001000010000000026
0070504012060SW VAL FRM LF FRT YGT BBY     GROZ    0008000001000010000000026
0070504012070SW VAL FRM LF FRT YGT LMN     GROZ    0008000001000010000000026
0070504012080SW VAL FRM LF FRT YGT RD RBY  GROZ    0008000001000010000000026
0070504012090SW VAL FRM LF FRT YGT MAND ORGGROZ    0008000001000010000000026
0075270001600MNTN HIGH N YGT PLAIN         GROZ    0032000001000010000000028
0070876002250NORDICA LF YGT PLAIN          GROZ    0016000001000010000000030
0070876002260NORDICA SW YGT PLAIN          GROZ    0006000001000010000000030
0070876003000NORDICA LF SW FRT YGT BK CH   GROZ    0006000001000010000000030
0070876003010NORDICA LF SW FRT YGT BBY     GROZ    0006000001000010000000030
0070876003040NORDICA LF SW FRT YGT MX BY   GROZ    0006000001000010000000030
0070876003050NORDICA LF SW FRT YGT PCH     GROZ    0006000001000010000000030
0070876003060NORDICA LF SW FRT YGT RBY     GROZ    0006000001000010000000030
0070876003070NORDICA LF SW FRT YGT ST      GROZ    0006000001000010000000030
0070876003080NORDICA LF SW FRT YGT ST&BN   GROZ    0006000001000010000000030
0070876003090NORDICA LF SW YGT VAN         GROZ    0006000001000010000000030
0070876003100NORDICA LF YGT VAN            GROZ    0016000001000010000000030
0070876003200NORDICA LF FOB YGT BK CH      GROZ    0006000001000010000000030
0070876003210NORDICA LF FOB YGT BBY        GROZ    0006000001000010000000030
0070876003220NORDICA LF FOB YGT BYSBY      GROZ    0006000001000010000000030
0070876003240NORDICA LF FOB YGT APL        GROZ    0006000001000010000000030
0070876003250NORDICA LF FOB YGT MX BY      GROZ    0006000001000010000000030
0070876003260NORDICA LF FOB YGT PCH        GROZ    0006000001000010000000030
0070876003270NORDICA LF FOB YGT RBY        GROZ    0006000001000010000000030
0070876003280NORDICA LF FOB YGT ST         GROZ    0006000001000010000000030
0050818110120NTRL LE LT LF N YGT PLAIN     GROZ    0032000001000010000000032
0071580004650Q CH LF YGT PLAIN             GROZ    0016000001000010000000034
0071580004690Q CH LF FRT YGT PN-CLD        GROZ    0008000001000010000000034
0071580004700Q CH LF FRT YGT ST            GROZ    0032000001000010000000034
0071580004730Q CH LF FRT YGT DCH APL       GROZ    0008000001000010000000034
0071580004760Q CH FRT YGT MAND ORG         GROZ    0008000001000010000000034
0071580004800Q CH YGT PLAIN                GROZ    0008000001000010000000034
0071580004810Q CH FRT YGT RBY              GROZ    0008000001000010000000034
0071580004820Q CH FRT YGT CH               GROZ    0008000001000010000000034
0071580004860Q CH FRT YGT ST               GROZ    0008000001000010000000034
0071580004870Q CH SW FRT YGT BYSBY         GROZ    0008000001000010000000034
0071580004880Q CH FRT YGT PCH              GROZ    0008000001000010000000034
0071580004890Q CH FRT YGT BBY              GROZ    0008000001000010000000034
0071580004900Q CH FRT YGT LMN              GROZ    0008000001000010000000034
0071580004950Q CH LF FRT YGT SPCD APL&GRNL GROZ    0008000001000010000000034
0071580004960Q CH LF YGT VAN               GROZ    0008000001000010000000034
0071580004980Q CH LF FRT YGT CH&VAN        GROZ    0008000001000010000000034
0071580004990Q CH SW FRT YGT PNAPL         GROZ    0008000001000010000000034
0071580006400Q CH LF YGT PLAIN             GROZ    0008000001000010000000034
0071580006410Q CH LF FRT YGT RBY           GROZ    0008000001000010000000034
0071580006460Q CH LF FRT YGT ST            GROZ    0008000001000010000000034
0071580006470Q CH LF FRT YGT BYSBY         GROZ    0008000001000010000000034
0071580006490Q CH LF FRT YGT BBY           GROZ    0008000001000010000000034
0071580006560Q CH LF YGT VAN               GROZ    0008000001000010000000034
0071580006580Q CH LF FRT YGT CH&VAN        GROZ    0008000001000010000000034
0071580006630Q CH LF FRT YGT BK CH         GROZ    0008000001000010000000034
0071580006650Q CH LF FRT YGT MAND ORG      GROZ    0008000001000010000000034
0071580006910Q CH LF FRT YGT MX BY         GROZ    0008000001000010000000034
0071580006920Q CH LF FRT YGT SPCD APL&GRNL GROZ    0008000001000010000000034
0071580006930Q CH LF FRT YGT BBY           GROZ    0016000001000010000000034
0071580006950Q CH LF YGT PLAIN             GROZ    0016000001000010000000034
0071580006960Q CH LF FRT YGT CH            GROZ    0016000001000010000000034
0071580006970Q CH LF FRT YGT ST            GROZ    0016000001000010000000034
0072420010500NW CNTY FRT YGT ST            GROZ    0006000001000010000000036
0072420010510NW CNTY FRT YGT BBY SUP       GROZ    0006000001000010000000036
0072420010530NW CNTY FRT YGT RBY SUP       GROZ    0006000001000010000000036
0072420010600NW CNTY FRT YGT MX BY         GROZ    0006000001000010000000036
0072420060510SWT'N LW NF FRT YGT ST        GROZ    0008000001000010000000037
0072420060520SWT'N LW NF FRT YGT BBY       GROZ    0008000001000010000000037
0072420060540SWT'N LW NF FRT YGT RBY       GROZ    0008000001000010000000037
0072420060550SWT'N LW NF FRT YGT PCH       GROZ    0008000001000010000000037
0072420060560SWT'N LW NF FRT YGT CH        GROZ    0008000001000010000000037
0072420060570SWT'N LW NF FRT YGT BYSBY     GROZ    0008000001000010000000037
0072420060580SWT'N LW NF FRT YGT ST&BN     GROZ    0008000001000010000000037
0072420060590SWT'N LW NF FRT YGT DCH APL   GROZ    0008000001000010000000037
0072420060710SWT'N LW NF FRT YGT ST        GROZ    0006000001000010000000037
0072420060720SWT'N LW NF FRT YGT BBY       GROZ    0006000001000010000000037
0072420060740SWT'N LW NF FRT YGT RBY       GROZ    0006000001000010000000037
0072420060750SWT'N LW NF FRT YGT PCH       GROZ    0006000001000010000000037
0072420060760SWT'N LW NF FRT YGT CH        GROZ    0006000001000010000000037
0072420060780SWT'N LW NF FRT YGT ST&BN     GROZ    0006000001000010000000037
0070640008200W-B-B LF N FRT YGT BK CH      GROZ    0008000001000010000000039
0070640008210W-B-B LF N FRT YGT BBY        GROZ    0008000001000010000000039
0070640008220W-B-B LF N FRT YGT PCH        GROZ    0008000001000010000000039
0070640008230W-B-B LF N FRT YGT DCH APL    GROZ    0008000001000010000000039
0070640008240W-B-B LF N FRT YGT LMN        GROZ    0008000001000010000000039
0070640008250W-B-B LF N FRT YGT CH&VAN     GROZ    0008000001000010000000039
0070640008260W-B-B LF N FRT YGT PNAPL      GROZ    0008000001000010000000039
0070640008270W-B-B LF N FRT YGT ORG        GROZ    0008000001000010000000039
0070640008280W-B-B LF N FRT YGT BY         GROZ    0008000001000010000000039
0070640008290W-B-B LF N FRT YGT PN-CLD     GROZ    0008000001000010000000039
0070640008300W-B-B LF N FRT YGT ST         GROZ    0008000001000010000000039
0070640008310W-B-B LF N FRT YGT RBY        GROZ    0008000001000010000000039
0070640008320W-B-B LF N FRT YGT ST&BN      GROZ    0008000001000010000000039
0070640008330W-B-B LF N YGT PLAIN          GROZ    0008000001000010000000039
0070640008340W-B-B LF N YGT VAN            GROZ    0008000001000010000000039
0070470009030YPLT Y-C DST YGT AMRT ALM     GROZ    0005000001000010000000041
0070470009040YPLT Y-C DST YGT CHOC BVRN    GROZ    0005000001000010000000041
0070470083000YPLT ORIG FRT YGT ST          GROZ    0018000001000010000000041
0070470083010YPLT ORIG FRT YGT RBY         GROZ    0018000001000010000000041
0070470083020YPLT ORIG FRT YGT BBY         GROZ    0018000001000010000000041
0070470083110YPLT ORIG YGT PLAIN           GROZ    0018000001000010000000041
0070470006000YPLT 150 NF FOB YGT ST        GROZ    0006000001000010000000042
0070470006010YPLT 150 NF FOB YGT RBY       GROZ    0006000001000010000000042
0070470006020YPLT 150 NF FOB YGT BBY       GROZ    0006000001000010000000042
0070470006030YPLT 150 NF FOB YGT CH        GROZ    0006000001000010000000042
0070470006070YPLT 150 NF FOB YGT PCH       GROZ    0006000001000010000000042
0070470006130YPLT 150 NF FOB YGT ST&BN     GROZ    0006000001000010000000042
0011110459000CTL BR LF FRT YGT ST&BN       GROZ    0008000001000010000000044
0011110459200CTL BR LF CUSTARD FRT YGT ST  GROZ    0006000001000010000000044
0011110459220CTL BR LF CUSTARD FRT YGT BBY GROZ    0006000001000010000000044
0011110459240CTL BR LF CUSTARD FRT YGT RBY GROZ    0006000001000010000000044
0011110459260CTL BR LF CUSTARD FRT YGT BN  GROZ    0006000001000010000000044
0011110459280CTL BR LF CUSTARD YGT VAN     GROZ    0006000001000010000000044
0011110459580CTL BR LF N FRT YGT ST&BN     GROZ    0006000001000010000000044
0011110459600CTL BR FRT YGT ST             GROZ    0006000001000010000000044
0011110459620CTL BR FRT YGT BBY            GROZ    0006000001000010000000044
0011110459640CTL BR FRT YGT RBY            GROZ    0006000001000010000000044
0011110459660CTL BR FRT YGT CH             GROZ    0006000001000010000000044
0011110459680CTL BR N FRT YGT PCH          GROZ    0006000001000010000000044
0011110459700CTL BR FRT YGT WILD BY        GROZ    0006000001000010000000044
0011110459720CTL BR BKFST FRT YGT APL&CINN GROZ    0006000001000010000000044
0011110459740CTL BR BKFST FRT YGT MX BY    GROZ    0006000001000010000000044
0011110480000CTL BR YGT PLAIN              GROZ    0008000001000010000000044
0011110480100CTL BR FRT YGT RD RBY         GROZ    0008000001000010000000044
0011110480200CTL BR FRT YGT BBY            GROZ    0008000001000010000000044
0011110480300CTL BR FRT YGT ST             GROZ    0008000001000010000000044
0011110480400CTL BR FRT YGT ORG            GROZ    0008000001000010000000044
0011110480500CTL BR FRT YGT PNAPL          GROZ    0008000001000010000000044
0011110480600CTL BR FRT YGT ST&VAN         GROZ    0008000001000010000000044
0011110480720CTL BR FRT YGT CH&VAN         GROZ    0008000001000010000000044
0011110480800CTL BR FRT YGT PCH            GROZ    0008000001000010000000044
0011110481500CTL BR FRT YGT BK CH          GROZ    0008000001000010000000044
0011110482050CTL BR BKFST FRT YGT APL&CINN GROZ    0006000001000010000000044
0011110482060CTL BR BKFST FRT YGT MX BY    GROZ    0006000001000010000000044
0011110485330CTL BR FRT YGT ST             GROZ    0006000001000010000000044
0011110485360CTL BR FRT YGT BBY            GROZ    0006000001000010000000044
0011110485390CTL BR FRT YGT RBY            GROZ    0006000001000010000000044
0011110485420CTL BR FRT YGT CH             GROZ    0006000001000010000000044
0011110485450CTL BR YGT VAN                GROZ    0006000001000010000000044
0011110485510CTL BR FRT YGT PCH            GROZ    0006000001000010000000044
0011110485530CTL BR FRT YGT WILD BY        GROZ    0006000001000010000000044
0011161462500CTL BR LF YGT PLAIN           GROZ    0008000001000010000000044
0011161462510CTL BR LF FRT YGT ST          GROZ    0008000001000010000000044
0011161462520CTL BR LF FRT YGT CH          GROZ    0008000001000010000000044
0011161462530CTL BR LF FRT YGT BBY         GROZ    0008000001000010000000044
0011161462540CTL BR LF FRT YGT RBY         GROZ    0008000001000010000000044
0011161462550CTL BR LF FRT YGT PNAPL       GROZ    0008000001000010000000044
0011161462560CTL BR FRT YGT ORG            GROZ    0008000001000010000000044
0011161462570CTL BR LF FRT YGT PCH         GROZ    0008000001000010000000044
0011161462600CTL BR LF FRT YGT LMN         GROZ    0008000001000010000000044
0022222030870CTL BR FR FRT YGT ST          GROZ    0006000001000010000000044
0022222030880CTL BR FR FRT YGT RBY         GROZ    0006000001000010000000044
0022222030890CTL BR FR FRT YGT CH          GROZ    0006000001000010000000044
0022222030900CTL BR FR FRT YGT BBY         GROZ    0006000001000010000000044
0022222030910CTL BR FR FRT YGT MX BY       GROZ    0006000001000010000000044
0022222030920CTL BR LF N FR FOB YGT ST     GROZ    0008000001000010000000044
0022222030940CTL BR LF N FR FOB YGT BBY    GROZ    0008000001000010000000044
0022222030950CTL BR LF N FR FOB YGT BK CH  GROZ    0008000001000010000000044
0022222030960CTL BR LF N FR FOB YGT PCH    GROZ    0008000001000010000000044
0022222037060CTL BR N SW FRT YGT ST        GROZ    0006000001000010000000044
0022222037070CTL BR N SW FRT YGT RBY       GROZ    0006000001000010000000044
0022222037080CTL BR N SW FRT YGT BK CH     GROZ    0006000001000010000000044
0022222037090CTL BR LF FRT YGT BBY         GROZ    0006000001000010000000044
0022222037100CTL BR N SW FRT YGT PCH       GROZ    0006000001000010000000044
0036800127500CTL BR FRT YGT RD CH          GROZ    0008000001000010000000044
0036800127600CTL BR FRT YGT BBY            GROZ    0008000001000010000000044
0036800127700CTL BR FRT YGT RBY            GROZ    0008000001000010000000044
0036800127800CTL BR FRT YGT ST             GROZ    0008000001000010000000044
0036800250120CTL BR YGT PLAIN              GROZ    0008000001000010000000044
0036800262120CTL BR LF SW FRT YGT ST       GROZ    0008000001000010000000044
0036800263120CTL BR LF SW FRT YGT ST&BN    GROZ    0008000001000010000000044
0036800268120CTL BR LF SW FRT YGT RBY      GROZ    0008000001000010000000044
0036800270120CTL BR LF SW FRT YGT BBY      GROZ    0008000001000010000000044
0036800271120CTL BR LF SW FRT YGT MAND     GROZ    0008000001000010000000044
0036800272120CTL BR LF SW FRT YGT PNAPL    GROZ    0008000001000010000000044
0036800274120CTL BR LF SW FRT YGT PCH      GROZ    0008000001000010000000044
0036800275120CTL BR LF SW FRT YGT BK CH    GROZ    0008000001000010000000044
0036800278130CTL BR LF FRT YGT CH&VAN      GROZ    0008000001000010000000044
0041163690050CTL BR LF FOB YGT BBY         GROZ    0008000001000010000000044
0041163690060CTL BR LF FOB YGT BYSBY       GROZ    0008000001000010000000044
0041163690070CTL BR LF FOB YGT CH          GROZ    0008000001000010000000044
0041163690090CTL BR LF FOB YGT PNAPL       GROZ    0008000001000010000000044
0041163690100CTL BR LF FOB YGT RD RBY      GROZ    0008000001000010000000044
0041163690110CTL BR LF FOB YGT ST          GROZ    0008000001000010000000044
0041163690120CTL BR LF FOB YGT MAND ORG    GROZ    0008000001000010000000044
0041163690130CTL BR LF FOB YGT LMN         GROZ    0008000001000010000000044
0041163690140CTL BR LF FOB YGT PCH         GROZ    0008000001000010000000044
0041163690510CTL BR LF YGT PLAIN           GROZ    0032000001000010000000044
0041163690520CTL BR LF YGT PLAIN           GROZ    0008000001000010000000044
0041260897410CTL BR LF YGT PCH             GROZ    0008000001000010000000044
0041260897420CTL BR LF YGT PLAIN           GROZ    0008000001000010000000044
0041260897430CTL BR LF YGT ORG             GROZ    0008000001000010000000044
0041260897440CTL BR LF YGT BBY             GROZ    0008000001000010000000044
0041260897450CTL BR LF YGT RBY             GROZ    0008000001000010000000044
0041260897460CTL BR LF YGT BK CH           GROZ    0008000001000010000000044
0041260897470CTL BR LF YGT ST              GROZ    0008000001000010000000044
0070036365610CTL BR FRT YGT ASST           GROZ    0008000001000010000000044
0070038365560CTL BR LF FRT YGT ST          GROZ    0008000001000010000000044
0070038365570CTL BR LF FRT YGT CH          GROZ    0008000001000010000000044
0070038365580CTL BR LF FRT YGT PCH         GROZ    0008000001000010000000044
0070038365590CTL BR LF FRT YGT RBY         GROZ    0008000001000010000000044
0070038365600CTL BR LF FRT YGT BBY         GROZ    0008000001000010000000044
0070038365610CTL BR LF YGT PLAIN           GROZ    0008000001000010000000044
0075090854510CTL BR EURO FRT YGT BYSBY     GROZ    0006000001000010000000044
0075450097190CTL BR FRT YGT CH&VAN         GROZ    0008000001000010000000044
0075450097200CTL BR YGT PLAIN              GROZ    0008000001000010000000044
0075450097210CTL BR FRT YGT BBY            GROZ    0008000001000010000000044
0075450097220CTL BR FRT YGT PCH            GROZ    0008000001000010000000044
0075450097230CTL BR LF FRT YGT RBY         GROZ    0008000001000010000000044
0075450097240CTL BR FRT YGT BK CH          GROZ    0008000001000010000000044
0075450097250CTL BR FRT YGT ST             GROZ    0008000001000010000000044
0075450097260CTL BR LF YGT LMN             GROZ    0008000001000010000000044
0075450097270CTL BR FRT YGT MX BY          GROZ    0008000001000010000000044
0075450097280CTL BR FRT YGT SPCD APL&GRNL  GROZ    0008000001000010000000044
0075450097290CTL BR YGT PLAIN              GROZ    0016000001000010000000044
0075976005030CTL BR YGT MPL&VAN            GROZ    0008000001000010000000044
