0030400000480ANGEL SOFT WHT 2P 330S TT     CTCT    0004000001000010000000001
0030400012400ANGEL SOFT SD/C 2P 330S TT    CTCT    0004000001000010000000002
0030400013890ANGEL SOFT PRT 2P 330S TT     CTCT    0004000001000010000000003
0037000671110BANNER WHT 1P 400S TT         CTCT    0004000001000010000000005
0037000671120BANNER WHT 1P 400S TT -.15    CTCT    0004000001000010000000006
0037000671160BANNER WHT 1P 400S TT -.20    CTCT    0004000001000010000000007
0037000671180BANNER WHT 1P 400S TT PP      CTCT    0004000001000010000000008
0037000671210BANNER SD/C 1P 400S TT        CTCT    0004000001000010000000009
0037000671220BANNER SD/C 1P 400S TT -.15   CTCT    0004000001000010000000010
0037000671280BANNER ASST 1P 400S TT PP     CTCT    0004000001000010000000011
0037000671410BANNER SD/C 1P 380S TT        CTCT    0004000001000010000000012
0037000671420BANNER YLW 1P 350S TT         CTCT    0004000001000010000000013
0037000671510BANNER ASST 1P 380S TT        CTCT    0004000001000010000000014
0037000671520BANNER BLU 1P 350S TT         CTCT    0004000001000010000000015
0037000671610BANNER WHT 1P 380S TT         CTCT    0004000001000010000000016
0037000671620BANNER WHT 1P 350S TT         CTCT    0004000001000010000000017
0037000673120BANNER WHT 1P 400S TT         CTCT    0009000001000010000000018
0037000673140BANNER WHT 1P 350S TT         CTCT    0009000001000010000000019
0037000673180BANNER WHT 1P 350S TT PP      CTCT    0009000001000010000000020
0037000673190BANNER WHT 1P 350S TT PP      CTCT    0009000001000010000000021
0037000681110CERTAIN WHT 1P 200S PMST TT   CTCT    0004000001000010000000023
0037000681140CERTAIN WHT 1P 200S PMST TT PPCTCT    0004000001000010000000024
0037000681610CERTAIN SD/C 1P 400S PMST TT  CTCT    0004000001000010000000025
0037000601110CHRMN WHT 1P 400S TT          CTCT    0004000001000010000000027
0037000601210CHRMN PNK 1P 400S TT          CTCT    0004000001000010000000028
0037000601310CHRMN GRN 1P 400S TT          CTCT    0004000001000010000000029
0037000601410CHRMN SD/C 1P 400S TT         CTCT    0004000001000010000000030
0037000601510CHRMN BLU 1P 400S TT          CTCT    0004000001000010000000031
0037000602110CHRMN WHT 1P 400S TT          CTCT    0006000001000010000000032
0037000602410CHRMN SD/C 1P 400S TT         CTCT    0006000001000010000000033
0037000602510CHRMN SD/C 1P 400S TT         CTCT    0006000001000010000000034
0037000604110CHRMN WHT 1P 400S TT UNS      CTCT    0006000001000010000000035
0037000604120CHRMN WHT 1P 350S TT UNS      CTCT    0006000001000010000000036
0037000604230CHRMN SD/C 1P 350S TT UNS     CTCT    0006000001000010000000037
0037000604410CHRMN SD/C 1P 400S TT UNS     CTCT    0006000001000010000000038
0037000604420CHRMN ASST 1P 350S TT UNS     CTCT    0006000001000010000000039
0037000604460CHRMN SD/C 1P 400S TT UNS -.20CTCT    0006000001000010000000040
0037000605110CHRMN FREE WHT 1P 350S TT UNS CTCT    0004000001000010000000041
0037000605120CHRMN WHT 1P 380S TT          CTCT    0004000001000010000000042
0037000605210CHRMN PNK 1P 350S TT          CTCT    0004000001000010000000043
0037000605220CHRMN PNK 1P 380S TT          CTCT    0004000001000010000000044
0037000605310CHRMN GRN 1P 350S TT          CTCT    0004000001000010000000045
0037000605320CHRMN GRN 1P 380S TT          CTCT    0004000001000010000000046
0037000605410CHRMN YLW 1P 350S TT          CTCT    0004000001000010000000047
0037000605420CHRMN SD/C 1P 380S TT         CTCT    0004000001000010000000048
0037000605510CHRMN BLU 1P 350S TT          CTCT    0004000001000010000000049
0037000605520CHRMN BLU 1P 380S TT          CTCT    0004000001000010000000050
0037000605610CHRMN SD/C 1P 350S TT         CTCT    0004000001000010000000051
0037000605710CHRMN SD/C 1P 350S TT         CTCT    0004000001000010000000052
0037000606110CHRMN WHT 1P 350S TT          CTCT    0006000001000010000000053
0037000606120CHRMN WHT 1P 380S TT          CTCT    0006000001000010000000054
0037000606410CHRMN YLW 1P 350S TT          CTCT    0006000001000010000000055
0037000606420CHRMN YLW 1P 380S TT          CTCT    0006000001000010000000056
0072740261970COLORTEX ASST 1P 400S TT UNS  CTCT    0004000001000010000000058
0030400011650CORONET PRT 2P 300S TT        CTCT    0008000001000010000000060
0030400011680CORONET PRT 2P 300S TT        CTCT    0008000001000010000000061
0030400011880CORONET PRT 2P 330S TT        CTCT    0008000001000010000000062
0030400199990CORONET PRT 2P 400S TT PP     CTCT    0004000001000010000000063
0054000494000CTNL WHT 1P 350S TT           CTCT    0004000001000010000000065
0054000494100CTNL PRT 2P 350S TT           CTCT    0004000001000010000000066
0054000494200CTNL SD/C 1P 350S TT          CTCT    0004000001000010000000067
0054000496000CTNL WHT 1P 380S TT           CTCT    0006000001000010000000068
0036000488100DELSEY WHT 2P 330S TT         CTCT    0004000001000010000000070
0036000488110DELSEY WHT 2P 330S TT PP      CTCT    0004000001000010000000071
0036000488120DELSEY WHT 2P 375S TT PP      CTCT    0004000001000010000000072
0036000488150DELSEY WHT 2P 330S TT PP      CTCT    0004000001000010000000073
0030400000010DELTA SD/C 1P 400S TT PP      CTCT    0004000001000010000000075
0030400081400DELTA WHT 1P 400S TT          CTCT    0004000001000010000000076
0030400081450DELTA SD/C 1P 400S TT         CTCT    0004000001000010000000077
0054000216660FAM SCOTT ASST 1P 400S TT -.15CTCT    0006000001000010000000079
0054000217700FAM SCOTT SD/C 1P 400S TT UNS CTCT    0004000001000010000000080
0054000277700FAM SCOTT SD/C 1P 500S TT     CTCT    0004000001000010000000081
0054000283800FAM SCOTT PRT 1P 500S TT      CTCT    0004000001000010000000082
0070524021000GENTLE TOUCH ASST 2P 330S TT  CTCT    0008000001000010000000084
0036000485600HI-DRI WHT 1P 400S TT         CTCT    0004000001000010000000086
0071623900170JNMR CRTN CHRISTMAS 2P 375S TTCTCT    0001000001000010000000088
0036000498910KLNX BOTQ PRT 2P 330S TT PP   CTCT    0004000001000010000000090
0032300752460MARINA SD/C 2P 375S TT        CTCT    0004000001000010000000092
0032300752470MARINA WHT 2P 350S TT         CTCT    0004000001000010000000093
0038300152460MARINA SD/C 2P 350S TT        CTCT    0004000001000010000000094
0036500000140MR BIG PRT 2P 360S TT         CTCT    0006000001000010000000096
0036500040380MR BIG ASST 2P 550S TT        CTCT    0006000001000010000000097
0072740161210MR JUMBO WHT 1P 300S TT       CTCT    0012000001000010000000099
0032300754510NCEN SF SD/C 1P 400S TT       CTCT    0004000001000010000000101
0032300754530NCEN SF AC/C 1P 400S TT       CTCT    0004000001000010000000102
0032300754550NCEN SF SD/C 1P 400S TT       CTCT    0006000001000010000000103
0042000100000NRTHRN WHT 2P 350S TT         CTCT    0001000001000010000000105
0042000101000NRTHRN SD/C 2P 400S TT        CTCT    0001000001000010000000106
0042000130000NRTHRN SD/C 2P 400S TT        CTCT    0004000001000010000000107
0042000131000NRTHRN WHT 2P 380S TT         CTCT    0004000001000010000000108
0042000133000NRTHRN SD/C 2P 350S TT        CTCT    0004000001000010000000109
0042000135000NRTHRN SD/C 2P 330S TT        CTCT    0004000001000010000000110
0042000136000NRTHRN SD/C 2P 330S TT        CTCT    0004000001000010000000111
0042000137000NRTHRN PRT 2P 380S TT         CTCT    0004000001000010000000112
0042000142000NRTHRN SD/C 2P 400S TT        CTCT    0004000001000010000000113
0042000143000NRTHRN SD/C 2P 380S TT        CTCT    0004000001000010000000114
0042000144000NRTHRN SD/C 2P 350S TT        CTCT    0004000001000010000000115
0042000146000NRTHRN SD/C 2P 350S TT        CTCT    0004000001000010000000116
0042000147000NRTHRN SD/C 2P 350S TT        CTCT    0004000001000010000000117
0042000148000NRTHRN SD/C 2P 350S TT        CTCT    0006000001000010000000118
0073310105000PAGE WHT 1P 400S TT           CTCT    0004000001000010000000120
0070524014170PERT WHT 1P 400S TT           CTCT    0004000001000010000000122
0070524014500POPE & TALBOT WHT 1P 400S TT  CTCT    0024000001000010000000124
0070253431700RITZ ASST 2P 300S TT          CTCT    0008000001000010000000126
0054000415000SCOTT WHT 1P 1000S TT         CTCT    0001000001000010000000128
0054000415800SCOTT SD/C 1P 1000S TT        CTCT    0001000001000010000000129
0054000447000SCOTT WHT 1P 1000S TT         CTCT    0004000001000010000000130
0054000447080SCOTT WHT 1P 1000S TT -.20    CTCT    0004000001000010000000131
0054000447800SCOTT SD/C 1P 1000S TT        CTCT    0004000001000010000000132
0054000447880SCOTT SD/C 1P 1000S TT -.20   CTCT    0004000001000010000000133
0073310109170SF GTL WHT 2P 300S TT UNS     CTCT    0006000001000010000000135
0073310135330SF GTL WHT 2P 300S TT UNS PP  CTCT    0004000001000010000000136
0073310135340SF GTL SD/C 2P 300S TT UNS PP CTCT    0004000001000010000000137
0073310135360SF GTL WHT 2P 300S TT UNS     CTCT    0004000001000010000000138
0073310135370SF GTL SD/C 2P 300S TT UNS PP CTCT    0004000001000010000000139
0073310136170SF GTL WHT 2P 300S TT UNS     CTCT    0004000001000010000000140
0073310136180SF GTL SD/C 2P 300S TT UNS    CTCT    0004000001000010000000141
0054000385000SF 'N' PR SD/C 2P 400S TT     CTCT    0004000001000010000000143
0054000386000SF 'N' PR WHT 2P 400S TT      CTCT    0004000001000010000000144
0054000390000SF 'N' PR PRT 2P 400S TT      CTCT    0004000001000010000000145
0054000390600SF 'N' PR ASST 2P 350S TT     CTCT    0006000001000010000000146
0013100770580SPA WHT 1P 200S TT            CTCT    0004000001000010000000148
0013100440040VELURE WHT 1P 300S TT         CTCT    0004000001000010000000150
0072740960210VELVET WHT 2P 200S TT         CTCT    0012000001000010000000151
0072740960770VELVET WHT 2P 200S TT         CTCT    0004000001000010000000153
0054000238000WALDORF WHT 1P 400S TT        CTCT    0004000001000010000000155
0054000238900WALDORF SD/C 1P 400S TT       CTCT    0004000001000010000000156
0054000245800WALDORF PRT 1P 400S TT        CTCT    0004000001000010000000157
0037000612110WHT CLOUD SD/C 2P 300S TT     CTCT    0006000001000010000000159
0037000612160WHT CLOUD SD/C 2P 300S TT     CTCT    0006000001000010000000160
0037000612170WHT CLOUD WHT 2P 300S TT PP   CTCT    0006000001000010000000161
0037000612220WHT CLOUD WHT 2P 280S TT      CTCT    0006000001000010000000162
0037000612240WHT CLOUD SD/C 2P 280S TT -.20CTCT    0006000001000010000000163
0037000612620WHT CLOUD BG 2P 280S TT       CTCT    0006000001000010000000164
0037000616120WHT CLOUD WHT 2P 280S TT      CTCT    0004000001000010000000165
0037000616140WHT CLOUD WHT 2P 280S TT -.12 CTCT    0004000001000010000000166
0037000616220WHT CLOUD ASST 2P 280S TT     CTCT    0004000001000010000000167
0037000616240WHT CLOUD SD/C 2P 280S TT -.12CTCT    0004000001000010000000168
0037000616320WHT CLOUD GRN 2P 280S TT      CTCT    0004000001000010000000169
0037000616340WHT CLOUD SD/C 2P 280S TT -.12CTCT    0004000001000010000000170
0037000616420WHT CLOUD YLW 2P 280S TT      CTCT    0004000001000010000000171
0037000616520WHT CLOUD BLU 2P 280S TT      CTCT    0004000001000010000000172
0037000617100WHT CLOUD WHT 2P 400S TT -.20 CTCT    0004000001000010000000173
0037000617110WHT CLOUD WHT 2P 300S TT      CTCT    0004000001000010000000174
0037000617130WHT CLOUD WHT 2P 300S TT -.15 CTCT    0004000001000010000000175
0037000617140WHT CLOUD WHT 2P 300S TT PP   CTCT    0004000001000010000000176
0037000617150WHT CLOUD WHT 2P 300S TT PP   CTCT    0004000001000010000000177
0037000617600WHT CLOUD ASST 2P 300S TT -.20CTCT    0004000001000010000000178
0037000617610WHT CLOUD SD/C 2P 300S TT     CTCT    0004000001000010000000179
0037000617630WHT CLOUD SD/C 2P 300S TT -.15CTCT    0004000001000010000000180
0037000617650WHT CLOUD SD/C 2P 300S TT PP  CTCT    0004000001000010000000181
0037000617900WHT CLOUD ASST 2P 400S TT -.20CTCT    0004000001000010000000182
0037000617910WHT CLOUD SD/C 2P 300S TT     CTCT    0004000001000010000000183
0037000617930WHT CLOUD SD/C 2P 300S TT -.15CTCT    0004000001000010000000184
0037000617940WHT CLOUD SD/C 2P 300S TT PP  CTCT    0004000001000010000000185
0037000617950WHT CLOUD SD/C 2P 300S TT PP  CTCT    0004000001000010000000186
0037000617990WHT CLOUD SD/C 2P 300S TT -.12CTCT    0004000001000010000000187
0011144090670CTL BR SD/C 2P 300S TT        CTCT    0004000001000010000000189
0011161378400CTL BR SD/C 1P 400S TT        CTCT    0004000001000010000000190
0011170030030CTL BR BG 1P 400S TT          CTCT    0006000001000010000000191
0013100310010CTL BR WHT 1P 300S TT         CTCT    0004000001000010000000192
0022222027560CTL BR WHT 1P 400S TT UNS     CTCT    0004000001000010000000193
0022222030160CTL BR WHT 2P 350S TT         CTCT    0004000001000010000000194
0022222036550CTL BR WHT 2P 330S TT PP      CTCT    0004000001000010000000195
0036800411600CTL BR SD/C 1P 400S TT        CTCT    0006000001000010000000196
0036800500360CTL BR WHT 2P 375S TT         CTCT    0004000001000010000000197
0036800500400CTL BR WHT 2P 300S TT         CTCT    0004000001000010000000198
0036800502860CTL BR WHT 1P 400S TT UNS     CTCT    0004000001000010000000199
0036800502900CTL BR WHT 1P 400S TT         CTCT    0006000001000010000000200
0036800514730CTL BR WHT 1P 400S TT         CTCT    0004000001000010000000201
0036800515630CTL BR WHT 1P 400S TT         CTCT    0004000001000010000000202
0036800515730CTL BR ASST 1P 400S TT        CTCT    0004000001000010000000203
0036800515830CTL BR ASST 1P 400S TT        CTCT    0006000001000010000000204
0041130018940CTL BR ASST 2P 330S TT        CTCT    0004000001000010000000205
0041130019000CTL BR WHT 2P 300S TT         CTCT    0008000001000010000000206
0041130117320CTL BR WHT 1P 400S TT         CTCT    0004000001000010000000207
0041163220170CTL BR SD/C 1P 400S TT        CTCT    0004000001000010000000208
0041163220180CTL BR WHT 1P 400S TT         CTCT    0004000001000010000000209
0041163220220CTL BR BLU 1P 400S TT         CTCT    0004000001000010000000210
0041163220260CTL BR WHT 2P 400S TT         CTCT    0004000001000010000000211
0041163220280CTL BR SD/C 2P 400S TT        CTCT    0004000001000010000000212
0041163220290CTL BR SD/C 2P 400S TT        CTCT    0004000001000010000000213
0041163220350CTL BR WHT 1P 400S TT         CTCT    0006000001000010000000214
0041163228020CTL BR ALMOND 2P 350S TT      CTCT    0004000001000010000000215
0041270042220CTL BR SD/C 1P 400S TT        CTCT    0004000001000010000000216
0041380339460CTL BR ASST 2P 250S TT        CTCT    0004000001000010000000217
0070038327680CTL BR ASST 2P 300S TT        CTCT    0004000001000010000000218
0070038327780CTL BR TT                    >CTCT    0006000001000010000000219
0070038327790CTL BR ASST 2P 300S TT        CTCT    0008000001000010000000220
0070038327800CTL BR WHT 1P 400S TT         CTCT    0004000001000010000000221
0070253431260CTL BR WHT 1P 400S TT         CTCT    0004000001000010000000222
0070253432400CTL BR SD/C 2P 330S TT        CTCT    0008000001000010000000223
0070524014030CTL BR SD/C 1P 400S TT        CTCT    0004000001000010000000224
0072740962310CTL BR SD/C 2P 330S TT        CTCT    0008000001000010000000225
0073310149010CTL BR WHT 2P 330S TT         CTCT    0008000001000010000000226
0011161578400GENERIC WHT 1P 400S TT        CTCT    0004000001000010000000228
0013100611720GENERIC WHT 1P 400S TT        CTCT    0008000001000010000000229
0041130009190GENERIC WHT 1P 400S TT        CTCT    0006000001000010000000230
0041130009800GENERIC WHT 1P 400S TT        CTCT    0004000001000010000000231
0041163226050GENERIC WHT 1P 400S TT        CTCT    0004000001000010000000232
0041380997480GENERIC YLW 1P 350S TT        CTCT    0004000001000010000000233
0070524014100GENERIC WHT 1P 400S TT        CTCT    0004000001000010000000234
0070524017000GENERIC WHT 1P 400S TT        CTCT    0006000001000010000000235
0072740416070GENERIC WHT 2P 400S TT        CTCT    0004000001000010000000236
0072740416230GENERIC WHT 1P 400S TT        CTCT    0008000001000010000000237
0073310108520GENERIC WHT 1P 400S TT        CTCT    0006000001000010000000238
0073310152000GENERIC WHT 1P 400S TT        CTCT    0004000001000010000000239
0074688422540GENERIC WHT 1P 400S TT UNS    CTCT    0004000001000010000000240
0074688427120GENERIC WHT 1P 400S TT UNS    CTCT    0012000001000010000000241
0074688452540GENERIC WHT 1P 400S TT        CTCT    0004000001000010000000242
0078740416010GENERIC WHT 2P 400S TT        CTCT    0004000001000010000000243
