0023000950550BROOKS CATSUP TANGY           GROZ    0032000001000010000000001
0023000955250BROOKS CATSUP TANGY PLS       GROZ    0028000001000010000000002
0023000956050BROOKS CATSUP                 GROZ    0032000001000010000000003
0024000002640DEL MONTE CATSUP NO SALT      GROZ    0032000001000010000000004
0024000004070DEL MONTE CATSUP              GROZ    0014000001000010000000005
0024000004100DEL MONTE CATSUP              GROZ    0032000001000010000000006
0024000006020DEL MONTE CATSUP              GROZ    0024000001000010000000007
0024000007130DEL MONTE CATSUP              GROZ    0044000001000010000000008
0024000007220DEL MONTE CATSUP PLS          GROZ    0028000001000010000000009
0070106801130DIA-MEL CATSUP DIET           GROZ    0013000001000010000000010
0041679016030FEATHERWEIGHT CATSUP LO-CAL   GROZ    0011000001000010000000011
0023254337510HAIN CATSUP NATURAL IMITATION GROZ    0014000001000010000000012
0023254343110HAIN CATSUP NO SALT IMITATION GROZ    0014000001000010000000013
0035742248020HEALTH VALLEY CATSUP NO SALT  GROZ    0014000001000010000000014
0013000001040HEINZ KETCHUP LITE            GROZ    0013250001000010000000015
0013000001070HEINZ KETCHUP                 GROZ    0044000001000010000000016
0013000001090HEINZ KETCHUP PLS             GROZ    0040000001000010000000017
0013000001210HEINZ KETCHUP PLS             GROZ    0064000001000010000000018
0013000001240HEINZ KETCHUP                 GROZ    0014000001000010000000019
0013000001250HEINZ KETCHUP                 GROZ    0032000001000010000000020
0013000001280HEINZ KETCHUP PLS             GROZ    0028000001000010000000021
0013000001290HEINZ KETCHUP ONION PLS       GROZ    0028000001000010000000022
0013000001380HEINZ KETCHUP                 GROZ    0024000001000010000000023
0013000001650HEINZ KETCHUP HOT             GROZ    0014000001000010000000024
0027000382070HUNT'S KETCHUP NO SALT        GROZ    0014000001000010000000025
0027000382340HUNT'S KETCHUP                GROZ    0014000001000010000000026
0027000382440HUNT'S KETCHUP PLS&GLS        GROZ    0044000001000010000000027
0027000382490HUNT'S KETCHUP                GROZ    0024000001000010000000028
0027000382510HUNT'S KETCHUP CAN            GROZ    0114000001000010000000029
0027000382580HUNT'S KETCHUP PLS&GLS        GROZ    0032000001000010000000030
0021000835530KRAFT CATSUP CAN              GROZ    0115000001000010000000031
0071245473760NAAS CATSUP CAN               GROZ    0115000001000010000000032
0072940115990RED GOLD CATSUP               GROZ    0115000001000010000000033
0052000030510STOKELY CATSUP                GROZ    0032000001000010000000034
0013000002130WEIGHT WATCHERS KETCHUP DIET  GROZ    0013250001000010000000035
0011161126210CTL BR CATSUP                 GROZ    0014000001000010000000036
0011161126240CTL BR CATSUP                 GROZ    0024000001000010000000037
0011161126260CTL BR CATSUP                 GROZ    0032000001000010000000038
0011161326260CTL BR CATSUP                 GROZ    0032000001000010000000039
0022222002790CTL BR CATSUP                 GROZ    0032000001000010000000040
0022222002800CTL BR CATSUP                 GROZ    0014000001000010000000041
0022222023370CTL BR CATSUP                 GROZ    0044000001000010000000042
0022222027260CTL BR CATSUP                 GROZ    0032000001000010000000043
0022222030860CTL BR CATSUP                 GROZ    0032000001000010000000044
0022222031490CTL BR CATSUP PLS             GROZ    0028000001000010000000045
0036800701050CTL BR CATSUP                 GROZ    0024000001000010000000046
0036800701500CTL BR CATSUP                 GROZ    0014000001000010000000047
0036800702160CTL BR CATSUP PLS             GROZ    0028000001000010000000048
0036800703200CTL BR CATSUP                 GROZ    0014000001000010000000049
0036800704200CTL BR CATSUP                 GROZ    0032000001000010000000050
0036800704500CTL BR CATSUP                 GROZ    0032000001000010000000051
0036800709150CTL BR CATSUP                 GROZ    0032000001000010000000052
0036800709350CTL BR CATSUP                 GROZ    0044000001000010000000053
0041130033350CTL BR CATSUP PLS             GROZ    0028000001000010000000054
0041130110640CTL BR CATSUP                 GROZ    0014000001000010000000055
0041130110720CTL BR CATSUP                 GROZ    0032000001000010000000056
0041130131690CTL BR CATSUP                 GROZ    0032000001000010000000057
0041130142500CTL BR CATSUP FANCY           GROZ    0114000001000010000000058
0041163120030CTL BR CATSUP                 GROZ    0032000001000010000000059
0041163120050CTL BR CATSUP                 GROZ    0014000001000010000000060
0041163120100CTL BR CATSUP PLS             GROZ    0028000001000010000000061
0041270022950CTL BR CATSUP FANCY           GROZ    0032000001000010000000062
0070038307050CTL BR CATSUP X FANCY         GROZ    0032000001000010000000063
0070038307060CTL BR CATSUP CAN             GROZ    0115000001000010000000064
0070038307070CTL BR CATSUP FANCY           GROZ    0032000001000010000000065
0070038307080CTL BR CATSUP                 GROZ    0014000001000010000000066
0070038307090CTL BR CATSUP FANCY PLS       GROZ    0028000001000010000000067
0070253286120CTL BR CATSUP                 GROZ    0032000001000010000000068
0075450035890CTL BR CATSUP                 GROZ    0014000001000010000000069
0075450035950CTL BR CATSUP                 GROZ    0032000001000010000000070
0075450035970CTL BR CATSUP                 GROZ    0024000001000010000000071
0075450035990CTL BR CATSUP PLS             GROZ    0028000001000010000000072
0011161526260GENERIC CATSUP                GROZ    0032000001000010000000073
0032600016130GENERIC CATSUP                GROZ    0032000001000010000000074
0041130003870GENERIC CATSUP                GROZ    0032000001000010000000075
0041163126010GENERIC CATSUP                GROZ    0032000001000010000000076
0041223003000GENERIC CATSUP                GROZ    0032000001000010000000077
0050700985510GENERIC CATSUP                GROZ    0032000001000010000000078
0070253286280GENERIC CATSUP                GROZ    0032000001000010000000079
0071245473870GENERIC CATSUP                GROZ    0032000001000010000000080
0072940133320GENERIC CATSUP                GROZ    0032000001000010000000081
0074317000870GENERIC CATSUP                GROZ    0032000001000010000000082
0075657100320GENERIC CATSUP                GROZ    0032000001000010000000083
