0046800074740CHIFFON V-O SFT 2TB           GRPOUND 0001000001000010000000001
0046800074780CHIFFON V-O US SFT 2TB        GRPOUND 0001000001000010000000002
0046800096520CHIFFON V-O WHP SFT TB        GRPOUND 0001000001000010000000003
0046800096540CHIFFON V-O SFT TB            GRPOUND 0001000001000010000000004
0046800097060CHIFFON V-O SFT 4ST           GRPOUND 0001000001000010000000005
0046800034960GLDN MIST C-O 4ST             GRPOUND 0001000001000010000000006
0046800073200MEADOWLAKE V-O SFT TB         GRPOUND 0001000001000010000000007
0046800014000MRS TUCKERS V-O SFT SPR TB    GRPOUND 0003000001000010000000008
0046800023060MRS TUCKERS V-O SFT SPR TB    GRPOUND 0001000001000010000000009
0046800066400VELVET SPR V-O SFT SPR TB     GRPOUND 0002000001000010000000010
0046800071480VELVET SPR V-O SPR 4ST        GRPOUND 0001000001000010000000011
0015700233890GLDN FM BL C-O/BTR 4ST        GRPOUND 0001000001000010000000012
0027400100300BL SEAL V-O 4ST               GRPOUND 0001000001000010000000013
0027400100600S BTRMCH V-O/BTR 4ST          GRPOUND 0001000001000010000000014
0027400100990S V-O SFT TB                  GRPOUND 0001000001000010000000015
0027400103070S-S C-C V-O SFT SPR TB        GRPOUND 0001000001000010000000016
0027400103080S-S C-C V-O SFT SPR TB        GRPOUND 0001500001000010000000017
0027400103100S-S C-C V-O SFT SPR TB        GRPOUND 0003000001000010000000018
0027400103120S-S C-C V-O SFT SPR TB        GRPOUND 0005000001000010000000019
0027400103140S-S C-C C-O SFT SPR TB        GRPOUND 0001500001000010000000020
0027400103200S-S C-C C-Q V-O SPR 4ST       GRPOUND 0001000001000010000000021
0027400103220S-S C-C V-O SFT SPR 2TB       GRPOUND 0001000001000010000000022
0027400103250S-S C-C C-Q V-O SPR 12ST      GRPOUND 0003000001000010000000023
0027400103260S-S C-C C-Q V-O SPR 12ST      GRPOUND 0004000001000010000000024
0027400103350S-S C-C C-O SPR 4ST           GRPOUND 0001000001000010000000025
0027400103400S-S C-C C-O SFT SPR 2TB       GRPOUND 0001000001000010000000026
0027400104940S V-O SFT SPR TB              GRPOUND 0002000001000010000000027
0027400104950S V-O SPR 4ST                 GRPOUND 0001000001000010000000028
0027400105070S C-O SFT SPR TB              GRPOUND 0002000001000010000000029
0027400105150S GLD'N KRN C-O 4ST           GRPOUND 0001000001000010000000030
0027400105300S V-O WHP SPR TMBLR           GRPOUND 0000500001000010000000031
0027400104100SURE GOOD SY-O SFT SPR TB     GRPOUND 0001000001000010000000032
0027400102830TASTEE ANIMAL FAT LT SPR 4ST  GRPOUND 0001000001000010000000033
0027400110100TASTEE V-O WHP SFT SPR TB     GRPOUND 0002000001000010000000034
0027400110150TASTEE V-O WHP SFT SPR TB     GRPOUND 0003000001000010000000035
0027400110160TASTEE V-O SFT SPR TB         GRPOUND 0003000001000010000000036
0048001218100MAZOLA C-O DT SFT 2TB         GRPOUND 0001000001000010000000037
0048001220100MAZOLA C-O 4ST                GRPOUND 0001000001000010000000038
0048001264300MAZOLA C-O US 4ST             GRPOUND 0001000001000010000000039
0075925210000CRST FRM V-O/BTR SLD          GRPOUND 0001000001000010000000040
0075925210010CRST FRM V-O 4ST              GRPOUND 0001000001000010000000041
0075925210030CRST FRM V-O SFT SPR TB       GRPOUND 0001000001000010000000042
0075925210040CRST FRM V-O/BTR 4ST          GRPOUND 0001000001000010000000043
0075925210060CRST FRM V-O DT WHP SPR TB    GRPOUND 0002000001000010000000044
0075925210070CRST FRM V-O DT SPR TB        GRPOUND 0003000001000010000000045
0037600075410HORMEL ANIMAL FAT 4ST         GRPOUND 0001000001000010000000046
0033100001010GLD-N-SFT V-O SFT TB          GRPOUND 0001000001000010000000047
0041429416080HOLSUM V-O 4ST                GRPOUND 0001000001000010000000048
0021000650550KR SPR TOB V-O SPR 4ST        GRPOUND 0001000001000010000000049
0021000650570KR SPR TOB V-O SFT SPR TB     GRPOUND 0001000001000010000000050
0021000650580KR SPR TOB V-O SFT SPR TB     GRPOUND 0002000001000010000000051
0021000650650KR SPR TOB V-O SFT SPR TB     GRPOUND 0003000001000010000000052
0021000651060MIRACLE C-O WHP 6ST           GRPOUND 0001000001000010000000053
0021000651100MIRACLE V-O WHP 6ST           GRPOUND 0001000001000010000000054
0021000651320MIRACLE V-O WHP SFT TB        GRPOUND 0001000001000010000000055
0021000650150PKY V-O LT SFT SPR TB         GRPOUND 0002000001000010000000056
0021000650180PKY C-O LT SFT SPR TB         GRPOUND 0002000001000010000000057
0021000650190PKY V-O LT SFT SPR TB         GRPOUND 0003000001000010000000058
0021000650200PKY V-O 4ST                   GRPOUND 0001000001000010000000059
0021000650470PKY C SY-O LIQ SQZ BTL B      GRPOUND 0001000001000010000000060
0021000650480PKY C SY-O LIQ SQZ BTL B-G    GRPOUND 0001000001000010000000061
0021000650490PKY C SY-O LIQ SQZ BTL B-L    GRPOUND 0001000001000010000000062
0021000650940PKY V-O LT 4ST                GRPOUND 0001000001000010000000063
0021000650990PKY V-O LT SPR TB             GRPOUND 0001000001000010000000064
0021000651110PKY V-O WHP 6ST               GRPOUND 0001000001000010000000065
0021000651280PKY V-O SFT TB                GRPOUND 0001000001000010000000066
0021000651330PKY V-O SFT 2TB               GRPOUND 0001000001000010000000067
0021000651340PKY C-O SFT 2TB               GRPOUND 0001000001000010000000068
0021000651440PKY V-O WHP SFT 2TB           GRPOUND 0001000001000010000000069
0021000651500PKY V-O LIQ SQZ BTL           GRPOUND 0001000001000010000000070
0021000651560PKY V-O DT SFT TB             GRPOUND 0001000001000010000000071
0021000651570PKY V-O DT SFT 2TB            GRPOUND 0001000001000010000000072
0034500140000LOL V-O 4ST                   GRPOUND 0001000001000010000000073
0034500140100LOL V-O SFT 2TB               GRPOUND 0001000001000010000000074
0034500140150LOL SY-O SFT TB               GRPOUND 0001000001000010000000075
0034500144100LOL SY-O/SWT CM WHP SPR 2TB   GRPOUND 0001000001000010000000076
0034500144150LOL V-O/SWT CM SFT SPR TB     GRPOUND 0001000001000010000000077
0034500144200LOL LT SPR US 4ST         >   GRPOUND 0001000001000010000000078
0034500144250LOL V-O/SWT CM SFT SPR 4ST    GRPOUND 0001000001000010000000079
0034500151100LOL C M B C-O/BTR SFT 2TB     GRPOUND 0001000002000010000000080
0034500151150LOL C M B C-O/BTR SFT TB      GRPOUND 0001000001000010000000081
0034500151200LOL C M B C-O/BTR US SFT 2TB  GRPOUND 0001000001000010000000082
0034500151300LOL C M B C-O/BTR 4ST         GRPOUND 0001000001000010000000083
0034500151400LOL C M B C-O/BTR US 4ST      GRPOUND 0001000001000010000000084
0011115700180BALANCE BLEND V-O 4ST         GRPOUND 0001000001000010000000085
0011115710180BALANCE BLEND V-O US 4ST      GRPOUND 0001000001000010000000086
0011115181250IMPRL V-O SFT TB              GRPOUND 0001000001000010000000087
0011115593260IMPRL V-O DT SFT 2TB          GRPOUND 0001000001000010000000088
0011115640210IMPRL V-O SFT SPR 2TB         GRPOUND 0001000001000010000000089
0011115650120IMPRL V-O LT SFT SPR TB       GRPOUND 0002000001000010000000090
0011115660060IMPRL V-O LT SFT SPR TB       GRPOUND 0003000001000010000000091
0011115763180IMPRL V-O WHP SFT TB          GRPOUND 0001000001000010000000092
0011115850300IMPRL V-O LT 4ST              GRPOUND 0001000001000010000000093
0011115871320IMPRL V-O 4ST                 GRPOUND 0001000001000010000000094
0011115872200IMPRL V-O 4ST                 GRPOUND 0001000001000010000000095
0011115620340PRMSE SN-O SFT 2TB 1/1=       GRPOUND 0001000001000010000000096
0011115621690PRMSE SN-O SFT 2TB            GRPOUND 0001000001000010000000097
0011115831340PRMSE SN-O 4ST                GRPOUND 0001000001000010000000098
0028668034980REAL VALUE V-O SFT SPR TB     GRPOUND 0003000001000010000000099
0010100076330ROYAL SCOT ANIMAL FAT 4ST     GRPOUND 0001000001000010000000100
0029000007900B-B BTR BL SY-O 4ST           GRPOUND 0001000001000010000000101
0029000007910B-B BTR BL SY-O US 4ST        GRPOUND 0001000001000010000000102
0029000007920B-B BTR BL SY-O SFT TB        GRPOUND 0001000001000010000000103
0029000007930B-B BTR BL SY-O SFT TB T      GRPOUND 0000500001000010000000104
0029000008100B-B V-O DT SFT 2TB            GRPOUND 0001000001000010000000105
0029000008110B-B V-O SFT 2TB               GRPOUND 0001000001000010000000106
0029000008150B-B V-O WHP 6ST               GRPOUND 0001000001000010000000107
0029000008160B-B V-O WHP SFT TB            GRPOUND 0001000001000010000000108
0029000008170B-B V-O WHP SFT 2TB           GRPOUND 0001000001000010000000109
0029000008180B-B V-O SFT TB                GRPOUND 0001000001000010000000110
0029000008200B-B BKRS BL SY-O SLD          GRPOUND 0000500001000010000000111
0029000008220B-B V-O 4ST                   GRPOUND 0001000001000010000000112
0029000008250B-B V-O SPR 8ST               GRPOUND 0002000001000010000000113
0029000008290B-B LTS V-O LT SFT SPR TB     GRPOUND 0002000001000010000000114
0029000008300B-B LTS V-O LT SFT SPR TB     GRPOUND 0001000001000010000000115
0029000008330B-B LTS V-O LT SFT SPR TB     GRPOUND 0003000001000010000000116
0029000008350B-B LTS V-O LT SFT SPR TB     GRPOUND 0002000001000010000000117
0029000008310FLSMN C-O 4ST                 GRPOUND 0001000001000010000000118
0029000008370FLSMN C-O US 4ST              GRPOUND 0001000001000010000000119
0029000008400FLSMN C-O US SFT 2TB          GRPOUND 0001000001000010000000120
0029000008440FLSMN C-O SFT 2TB             GRPOUND 0001000001000010000000121
0029000008460FLSMN C-O DT SFT 2TB          GRPOUND 0001000001000010000000122
0029000008480FLSMN C-O SFT TB              GRPOUND 0001000001000010000000123
0029000008780FLSMN C-O LIQ SQZ BTL         GRPOUND 0000750001000010000000124
0029000087600FLSMN C-O LIQ SQZ BTL         GRPOUND 0001000001000010000000125
0029000008390FLSMN LT C-O LT SFT SPR TB    GRPOUND 0002000001000010000000126
0029000008700FLSMN LT C-O LT SPR 4ST       GRPOUND 0001000001000010000000127
0029000008720FLSMN LT C-O LT SFT SPR 2TB   GRPOUND 0001000001000010000000128
0029000008750FLSMN LT C-O LT SFT SPR TB    GRPOUND 0001000001000010000000129
0075165301000WT WATCH V-O DT SFT 2TB       GRPOUND 0001000001000010000000130
0075165301100WT WATCH V-O DT US SFT 2TB    GRPOUND 0001000001000010000000131
0075165301200WT WATCH SY-O DT 4ST          GRPOUND 0001000001000010000000132
0011500723850COUNTRY PAT V-O SLD           GRPOUND 0000500001000010000000133
0011161390020CTL BR MRG ANIMAL FAT SLD     GRPOUND 0001000001000010000000134
0011161470010CTL BR MRG V-O 4ST            GRPOUND 0001000001000010000000135
0011161470020CTL BR MRG V-O SLD            GRPOUND 0001000001000010000000136
0011161470030CTL BR MRG C-O 4ST            GRPOUND 0001000001000010000000137
0011161470040CTL BR MRG V-O SFT 2TB        GRPOUND 0001000001000010000000138
0011161470060CTL BR MRG V-O SFT TB         GRPOUND 0001000001000010000000139
0011197071900CTL BR MRG SFT SPR TB        >GRPOUND 0003000001000010000000140
0022222003870CTL BR MRG V-O 4ST            GRPOUND 0001000001000010000000141
0022222003970CTL BR MRG V-O SFT TB         GRPOUND 0001000001000010000000142
0022222004020CTL BR MRG C-O 4ST            GRPOUND 0001000001000010000000143
0022222015650CTL BR MRG V-O SFT SPR TB     GRPOUND 0002000001000010000000144
0022222023900CTL BR MRG V-O SPR 4ST        GRPOUND 0001000001000010000000145
0022222034390CTL BR MRG V-O SFT SPR TB     GRPOUND 0001000001000010000000146
0022222034400CTL BR MRG V-O SFT SPR TB     GRPOUND 0002000001000010000000147
0027400102960CTL BR MRG V-O 4ST            GRPOUND 0001000001000010000000148
0036800523470CTL BR MRG V-O 4ST            GRPOUND 0001000001000010000000149
0036800532170CTL BR MRG V-O WHP SFT TB     GRPOUND 0001000001000010000000150
0036800533140CTL BR MRG V-O SFT 2TB        GRPOUND 0001000001000010000000151
0036800544670CTL BR MRG V-O 4ST            GRPOUND 0001000001000010000000152
0036800544680CTL BR MRG V-O 4ST            GRPOUND 0001000001000010000000153
0036800633880CTL BR MRG ANIMAL FAT 4ST     GRPOUND 0001000001000010000000154
0036800733170CTL BR MRG C-O 4ST            GRPOUND 0001000001000010000000155
0036800800150CTL BR MRG V-O SFT SPR TB     GRPOUND 0003000001000010000000156
0036800800200CTL BR MRG V-O SFT SPR TB     GRPOUND 0002000001000010000000157
0036800800250CTL BR MRG C-O SFT SPR TB     GRPOUND 0002000001000010000000158
0036800800320CTL BR MRG V-O SLD            GRPOUND 0001000001000010000000159
0036800801320CTL BR MRG V-O SPR 4ST        GRPOUND 0001000001000010000000160
0036800802420CTL BR MRG V-O SFT SPR TB     GRPOUND 0001000001000010000000161
0036800804420CTL BR MRG C-O SPR 4ST        GRPOUND 0001000001000010000000162
0041130004300CTL BR MRG V-O WHP SPR TB     GRPOUND 0002000001000010000000163
0041130649200CTL BR MRG C-O 4ST            GRPOUND 0001000001000010000000164
0041130659040CTL BR MRG V-O SFT TB         GRPOUND 0001000001000010000000165
0041130659080CTL BR MRG V-O 4ST            GRPOUND 0001000001000010000000166
0041163670020CTL BR MRG C-O 4ST            GRPOUND 0001000001000010000000167
0041163670040CTL BR MRG V-O SFT TB         GRPOUND 0001000001000010000000168
0041163670050CTL BR MRG V-O 4ST            GRPOUND 0001000001000010000000169
0041163671010CTL BR MRG V-O SFT SPR TB     GRPOUND 0002000001000010000000170
0041240114740CTL BR MRG C-O 4ST            GRPOUND 0001000001000010000000171
0041282831990CTL BR MRG C-O 4ST            GRPOUND 0001000001000010000000172
0070038002900CTL BR MRG V-O SFT TB         GRPOUND 0001000001000010000000173
0070038362260CTL BR MRG ANIMAL FAT 4ST     GRPOUND 0001000001000010000000174
0070038362280CTL BR MRG V-O 4ST            GRPOUND 0001000001000010000000175
0070038362400CTL BR MRG SY-O SLD           GRPOUND 0001000001000010000000176
0070038362450CTL BR MRG V-O SFT TB         GRPOUND 0001000001000010000000177
0070038362550CTL BR MRG V-O SPR 4ST        GRPOUND 0001000001000010000000178
0070038362570CTL BR MRG C-O 4ST            GRPOUND 0001000001000010000000179
0070038362700CTL BR MRG V-O LT SFT SPR TB  GRPOUND 0002000001000010000000180
0070038362710CTL BR MRG V-O LT SFT SPR TB  GRPOUND 0003000001000010000000181
0075450084860CTL BR MRG V-O LT SFT SPR TB  GRPOUND 0003000001000010000000182
0075450084880CTL BR MRG V-O LT SFT SPR TB  GRPOUND 0002000001000010000000183
0075450084940CTL BR MRG C-O 4ST            GRPOUND 0001000001000010000000184
0075450084960CTL BR MRG V-O 4ST            GRPOUND 0001000001000010000000185
0075450084990CTL BR MRG SY-O SFT 2TB       GRPOUND 0001000001000010000000186
0075450085000CTL BR MRG SY-O SFT TB        GRPOUND 0001000001000010000000187
0011161570070GENERIC MRG V-O SFT SPR TB    GRPOUND 0002000001000010000000188
0011161570110GENERIC MRG V-O SPR 4ST       GRPOUND 0001000001000010000000189
0027400102810GENERIC MRG V-O SPR 4ST       GRPOUND 0001000001000010000000190
0041163676050GENERIC MRG V-O SFT SPR TB    GRPOUND 0001000001000010000000191
0041429416750GENERIC MRG V-O SPR 4ST       GRPOUND 0001000001000010000000192
