0070090674060AMRN CRYST LT BRN SGR P BG    GROZ    0032000001000010000000001
0070090674180AMRN CRYST DRK BRN SGR CRTN   GROZ    0016000001000010000000002
0070090674190AMRN CRYST LT BRN SGR CRTN    GROZ    0016000001000010000000003
0070090674200AMRN CRYST DRK BRN SGR P BG   GROZ    0032000001000010000000004
0070090674210AMERICAN CRYSTAL SGR CUBE CRTNGROZ    0017600001000010000000005
0070090674010AMERICAN CRYST FN BT SGR BG   GRPOUND 0010000001000010000000006
0070090674020AMERICAN CRYST FN BT SGR BG   GRPOUND 0005000001000010000000007
0070090674030AMERICAN CRYST FN BT SGR CRTN GRPOUND 0002000001000010000000008
0070090674150AMERICAN CRYST EX FN SGR BG   GRPOUND 0001000001000010000000009
0070090674160AMERICAN CRYST SGR BG         GRPOUND 0001000001000010000000010
0070090674050A-C PW SGR P BG               GROZ    0032000001000010000000011
0070090674170A-C PW SGR CRTN               GROZ    0016000001000010000000012
0070038344220BEST CHOICE PW SGR CRTN       GROZ    0016000001000010000000013
0015800062110C AND H GLDN CN BRN SGR CRTN  GROZ    0016000001000010000000014
0015800062320C AND H GLDN CN BRN SGR P BG  GROZ    0032000001000010000000015
0015800064110C AND H DRK CN BRN SGR CRTN   GROZ    0016000001000010000000016
0015800064320C AND H DRK CN BRN SGR P BG   GROZ    0032000001000010000000017
0015800050110C AND H SGR CUBELETS CRTN     GROZ    0016000001000010000000018
0015800050120C AND H SGR CUBELETS CRTN     GROZ    0032000001000010000000019
0015800052110C AND H COCKTAIL SGR CUBE CRTNGROZ    0016000001000010000000020
0015800030110C AND H CN SGR CRTN           GRPOUND 0001000001000010000000021
0015800030210C AND H CN SGR BG             GRPOUND 0025000001000010000000022
0015800030430C AND H CN SGR CRTN           GRPOUND 0002000001000010000000023
0015800030480C AND H CN SGR CRTN           GRPOUND 0002000001000010000000024
0015800030610C AND H CN SGR BG             GRPOUND 0010000001000010000000025
0015800030630C AND H CN SGR BG             GRPOUND 0005000001000010000000026
0015800035110C AND H SUPER FN CN SGR CRTN  GRPOUND 0001000001000010000000027
0015800130610C AND H CN SGR BG             GRPOUND 0010000001000010000000028
0015800130630C AND H CN SGR BG -.10        GRPOUND 0005000001000010000000029
0015800070110C AND H CF PW SGR CRTN        GROZ    0016000001000010000000030
0015800070320C AND H CF PW SGR P BG        GROZ    0032000001000010000000031
0049200056600DOMINO LIQ BRN SGR BTL        GROZ    0016000001000010000000032
0049200058680DOMINO BRNLTD BRN SGR CRTN    GROZ    0014000001000010000000033
0049200040150DOMINO HST SGR CSL TABLET CRTNGROZ    0016000001000010000000034
0049200040860DOMINO INST DISLV SGR PKT CRTNGROZ    0006500001000010000000035
0049200061560DOMINO CINN SGR GRN BTL       GROZ    0003000001000010000000036
0049200048410DOMINO SUPER FN CN SGR CRTN   GRPOUND 0001000001000010000000037
0047600022470DURKEE CINN SGR GRN JR        GROZ    0003000001000010000000038
0047600022480DURKEE CINN SGR GRN JR        GROZ    0002750001000010000000039
0300258109310EQUAL SGR SUB GR PK B         CTCT    0100000001000010000000040
0300258109350EQUAL SGR SUB GR PK B         CTCT    0200000001000010000000041
0300258109480EQUAL SGR SUB GR PK B PP      CTCT    0010000001000010000000042
0300258109500EQUAL SGR SUB GR PK B         CTCT    0050000001000010000000043
0300258201310EQUAL SGR SUB TB BTL          CTCT    0100000001000010000000044
0041147000780ESTEE FRUCT GR B              GROZ    0012000001000010000000045
0041147000790ESTEE FRUCT GR PK B           CTCT    0050000001000010000000046
0041147000100ESTEE HERMESETAS SACC TB TIN  CTCT    1200000001000010000000047
0028180000010FASWEET SWTNR LIQ BTL         MLOZ    0006000001000010000000048
0028180000020FASWEET SWTNR LIQ BTL         MLOZ    0012000001000010000000049
0028180000030FASWEET SGR SUB GR PK B       CTCT    0050000001000010000000050
0028180000150FASWEET SGR SUB GR PK B       CTCT    0100000001000010000000051
0041679018000FTHRWGHT C = SWTNR LIQ BTL    MLOZ    0008000001000010000000052
0041679018010FTHRWGHT C = SWTNR LIQ BTL    MLOZ    0004000001000010000000053
0041679018150FTHRWGHT SACC 1/4 GR TB BTL   CTCT    1000000001000010000000054
0041679018160FTHRWGHT SACC 1/2 GR TB BTL   CTCT    0500000001000010000000055
0041500043550FRENCH'S CINN SGR GRN JR      GROZ    0003000001000010000000056
0037842067000FRIEDA RAW SGR CN BG          GROZ    0004000001000010000000057
0023200000300GW LT BRN SGR P BG            GROZ    0032000001000010000000058
0023200000340GW PARTY SGR CUBE CRTN        GROZ    0016000001000010000000059
0023200000250GW EX FN SGR BG               GRPOUND 0010000001000010000000060
0023200000280GW EX FN SGR BG               GRPOUND 0005000001000010000000061
0023200000290GW CF PW SGR P BG             GROZ    0032000001000010000000062
0023254665010HN NTRLS RAW TRBNDO SGR P BG  GRPOUND 0001500001000010000000063
0032900000650HOLLY BEET BRN SGR P BG       GROZ    0032000001000010000000064
0032900000240HOLLY SGR BG                  GRPOUND 0010000001000010000000065
0032900000260HOLLY SGR BG                  GRPOUND 0005000001000010000000066
0032900000660HOLLY PW SGR P BG             GROZ    0032000001000010000000067
0072100023000IMPERIAL SGR BG               GRPOUND 0025000001000010000000068
0072100027000IMPERIAL SGR CRTN             GRPOUND 0001000001000010000000069
0072100027050IMPERIAL EX FN SGR CRTN       GRPOUND 0001000001000010000000070
0074441000310KITCHEN KLATTER SWTNR LIQ BTL MLOZ    0006000001000010000000071
0074441000320KITCHEN KLATTER SWTNR LIQ BTL MLOZ    0016000001000010000000072
0026248001250LTL BRN BG CN SGR IND PKT     GROZ    0002450001000010000000073
0026248001300LTL BRWN BG SGR SUB GR PK B   CTCT    0020000001000010000000074
0052100003820MCCORMICK GRM CINN SGR GRN JR GROZ    0003000001000010000000075
0052100004440MCCORMICK CINN SGR GRN JR     GROZ    0003620001000010000000076
0052100061800MCCORMICK CINN SGR GRN JR     GROZ    0003000001000010000000077
0301490171050NECTA SWEET SACC 1/4 GR TB JR CTCT    0500000001000010000000078
0301490172050NECTA SWEET SACC 1/2 GR TB JR CTCT    0500000001000010000000079
0301490173050NECTA SWEET SACC 1 GR TB JR   CTCT    0500000001000010000000080
0301490173100NECTA SWEET SACC 1 GR TB JR   CTCT    1000000001000010000000081
0374684171050NECTA SWEET SACC 1/4 GR TB JR CTCT    0500000001000010000000082
0374684172050NECTA SWEET SACC 1/2 GR TB JR CTCT    0500000001000010000000083
0374684173050NECTA SWEET SACC 1 GR TB JR   CTCT    0500000001000010000000084
0011194664150NUTRADIET L C SWTNR LIQ BTL   MLOZ    0008000001000010000000085
0070670000050REESE SACC 1/4 GR TB JR       CTCT    1000000001000010000000086
0052100037000SCHILLING CINN SGR GRN JR     GROZ    0003000001000010000000087
0018000821900SPRINKLE SWT SGR RPLMT GR B   GROZ    0004500001000010000000088
0300744004010SCRL L C SWTNR LIQ BTL        MLOZ    0006000001000010000000089
0300744004030SCRL L C SWTNR LIQ BTL        MLOZ    0012000001000010000000090
0300744006120SCRL L C SWTNR TB JR          CTCT    1000000001000010000000091
0041679018050SUG' LK L C SWTNR LIQ BTL     MLOZ    0008000001000010000000092
0041679018200SUG' LK FRUCT LIQ BTL         MLOZ    0011750001000010000000093
0044800001420SGR IN RAW TRBNDO SGR CRTN    GRPOUND 0002000001000010000000094
0044800001450SGR IN RAW TRBNDO CN SGR BG   GRPOUND 0001500001000010000000095
0022400000110S T L C BR SGR RPLMT GR B     GROZ    0001700001000010000000096
0022400000310S T L C SGR RPLMT GR B        GROZ    0002850001000010000000097
0022400000710S T L C SGR RPLMT GR B        GROZ    0007130001000010000000098
0022400000810S T L C SGR RPLMT GR PK B     CTCT    0050000001000010000000099
0022400000910S T L C SGR RPLMT GR PK B     CTCT    0100000001000010000000100
0022400500810S T L C SGR RPLMT GR PK B     CTCT    0050000001000010000000101
0041309000050SUPEROSE SWTNR LIQ BTL        MLOZ    0008000001000010000000102
0041309000110SUPEROSE SWTNR LIQ BTL        MLOZ    0011000001000010000000103
0308695057100SWAN SACC 1/4 GR TB JR        CTCT    1000000001000010000000104
0308695107100SWAN SACC 1/2 GR TB JR        CTCT    1000000001000010000000105
0044800001010SWT LW SGR SUB GR PK B        CTCT    0050000001000010000000106
0044800001020SWT LW SGR SUB LS GR PK B     CTCT    0100000001000010000000107
0044800001030SWT LW SGR SUB LS GR B        GROZ    0008000001000010000000108
0044800001070SWT LW SGR SUB LS GR PK B     CTCT    0250000001000010000000109
0044800001080SWT LW SGR SUB GR B           GROZ    0003200001000010000000110
0044800001090SWT LW SGR SUB 1/4 GR TB JR   CTCT    0500000001000010000000111
0044800001820SWT LW SGR SUB LIQ BTL        MLOZ    0008000001000010000000112
0044800003020SWT LW BR SGR SUB GR B        GROZ    0003200001000010000000113
0072802002010SWEET LITE FRUCT GR PK B      CTCT    0050000001000010000000114
0072802002300SWEET LITE FRUCT LIQ BTL      MLOZ    0023000001000010000000115
0072802002310SWEET LITE FRUCT LIQ BTL      MLOZ    0012000001000010000000116
0018000009300SWEET 10 SGR SUB LIQ BTL      MLOZ    0006000001000010000000117
0018000009310SWEET 10 SGR SUB LIQ BTL      MLOZ    0012000001000010000000118
0300030806180SWEETA NO C SWTNR LIQ BTL     MLOZ    0000800001000010000000119
0300030806200SWEETA NO C SWTNR LIQ BTL     MLOZ    0002000001000010000000120
0300030806300SWEETA NO C SWTNR LIQ BTL     MLOZ    0004000001000010000000121
0302281953960SWEETASTE SGR SUB 1/4 GR TB JRCTCT    1000000001000010000000122
0302281955960SWEETASTE SGR SUB 1/2 GR TB JRCTCT    1000000001000010000000123
0041500038210TRADEWINDS CINN SGR GRN JR    GROZ    0003000001000010000000124
0050646002510VRMNT CNTRY MAPLE SGR GRN BTL GROZ    0002500001000010000000125
0013000005840WGHT WTCHRS SGR SUB GR JR     GROZ    0005000001000010000000126
0013000005890WGHT WTCHRS SGR SUB GR JR     GROZ    0005000001000010000000127
0013000005900WGHT WTCHRS SGR SUB GR JR     GROZ    0005000001000010000000128
0013000503100WGHT WTCHRS SGR SUB GR PK B   CTCT    0050000001000010000000129
0013000504200WGHT WTCHRS SGR SUB GR PK B   CTCT    0100000001000010000000130
0025800000620WGHT WTCHRS SGR SUB GR JR     GROZ    0005000001000010000000131
0071456000600WHITE SATIN SGR BG            GRPOUND 0005000001000010000000132
0071456001600WHITE SATIN SGR BG            GRPOUND 0005000001000010000000133
0011161152260CTL BR LT CN BRN SGR CRTN     GROZ    0016000001000010000000134
0011161152300CTL BR CN BRN SGR P BG        GROZ    0032000001000010000000135
0022222027440CTL BR BRN SGR P BG           GROZ    0032000001000010000000136
0036800507150CTL BR LT CN BRN SGR CRTN     GROZ    0016000001000010000000137
0036800508140CTL BR DRK CN BRN SGR CRTN    GROZ    0016000001000010000000138
0036800509140CTL BR LT CN BRN SGR P BG     GROZ    0032000001000010000000139
0041130018960CTL BR DRK BRN SGR CRTN       GROZ    0016000001000010000000140
0041130018970CTL BR LT BRN SGR CRTN        GROZ    0016000001000010000000141
0041130023850CTL BR BRN SGR P BG           GROZ    0016000001000010000000142
0041130030810CTL BR DRK BRN SGR P BG       GROZ    0032000001000010000000143
0041130161640CTL BR BRN SGR P BG           GROZ    0032000001000010000000144
0041130161690CTL BR BRN SGR P BG           GROZ    0064000001000010000000145
0041163542260CTL BR BRN SGR P BG           GROZ    0032000001000010000000146
0070038344230CTL BR LT BRN SGR CRTN        GROZ    0016000001000010000000147
0070038344320CTL BR BRN SGR P BG           GROZ    0032000001000010000000148
0070253297920CTL BR LT BRN SGR P BG        GROZ    0032000001000010000000149
0075450055170CTL BR LT CN BRN SGR P BG     GROZ    0032000001000010000000150
0036800085020CTL BR NO C SWTNR LIQ BTL     MLOZ    0008000001000010000000151
0070038344150CTL BR SGR SUB GR PK B        CTCT    0100000001000010000000152
0011161152190CTL BR CN SGR BG              GRPOUND 0002000001000010000000153
0011161152200CTL BR CN SGR BG              GRPOUND 0005000001000010000000154
0011161152210CTL BR CN SGR BG              GRPOUND 0010000001000010000000155
0011161652210CTL BR SGR BG                 GRPOUND 0010000001000010000000156
0015800030650CTL BR CN SGR BG              GRPOUND 0005000001000010000000157
0022222016680CTL BR SGR BG                 GRPOUND 0005000001000010000000158
0022222016690CTL BR FN SGR BG              GRPOUND 0010000001000010000000159
0036800501130CTL BR SGR BG                 GRPOUND 0002000001000010000000160
0036800503130CTL BR CN SGR BG              GRPOUND 0005000001000010000000161
0036800505110CTL BR SGR BG                 GRPOUND 0010000001000010000000162
0041130147520CTL BR FN SGR BG              GRPOUND 0005000001000010000000163
0041130147540CTL BR BT SGR BG              GRPOUND 0010000001000010000000164
0041163540010CTL BR SGR BG                 GRPOUND 0005000001000010000000165
0041163540020CTL BR SGR BG                 GRPOUND 0010000001000010000000166
0041163540060CTL BR SGR BG                 GRPOUND 0025000001000010000000167
0041163542010CTL BR SGR CRTN               GRPOUND 0002000001000010000000168
0047730141540CTL BR SGR BG                 GRPOUND 0010000001000010000000169
0070038344200CTL BR SGR BG                 GRPOUND 0005000001000010000000170
0070038344260CTL BR SGR BG                 GRPOUND 0005000001000010000000171
0070038344360CTL BR SGR BG                 GRPOUND 0010000001000010000000172
0070253297950CTL BR SGR BG                 GRPOUND 0005000001000010000000173
0075450055110CTL BR CN SGR BG              GRPOUND 0005000001000010000000174
0075450055130CTL BR CN SGR BG              GRPOUND 0010000001000010000000175
0087740220460CTL BR CN SGR BG              GRPOUND 0002000001000010000000176
0011161152240CTL BR 10X CF PW SGR CRTN     GROZ    0016000001000010000000177
0011161152280CTL BR 10X CF PW SGR P BG     GROZ    0032000001000010000000178
0022222027450CTL BR PW SGR P BG            GROZ    0032000001000010000000179
0036800506150CTL BR 10X CF PW SGR CRTN     GROZ    0016000001000010000000180
0036800509240CTL BR 10X CF PW SGR P BG     GROZ    0032000001000010000000181
0041130018950CTL BR PW SGR CRTN            GROZ    0016000001000010000000182
0041130023860CTL BR PW SGR P BG            GROZ    0016000001000010000000183
0041130161670CTL BR PW SGR P BG            GROZ    0032000001000010000000184
0041163542250CTL BR CF PW SGR P BG         GROZ    0032000001000010000000185
0070038344290CTL BR PW SGR P BG            GROZ    0032000001000010000000186
0070253297900CTL BR CF PW SGR P BG         GROZ    0032000001000010000000187
0075450055150CTL BR PW SGR P BG            GROZ    0032000001000010000000188
0032900001650GENERIC BRN SGR P BG          GROZ    0032000001000010000000189
0010500000880GENERIC SGR BG                GRPOUND 0005000001000010000000190
0010500000890GENERIC SGR BG                GRPOUND 0010000001000010000000191
0010500650130GENERIC SGR BG                GRPOUND 0005000001000010000000192
0015800030660GENERIC SGR BG                GRPOUND 0010000001000010000000193
0015800030670GENERIC SGR BG                GRPOUND 0005000001000010000000194
0023200000810GENERIC FN SGR BG             GRPOUND 0005000001000010000000195
0023200000820GENERIC SGR BG                GRPOUND 0010000001000010000000196
0023200000880GENERIC SGR BG                GRPOUND 0005000001000010000000197
0032900001240GENERIC SGR BG                GRPOUND 0010000001000010000000198
0032900001260GENERIC SGR BG                GRPOUND 0005000001000010000000199
0070090674110GENERIC FN SGR BG             GRPOUND 0005000001000010000000200
0070090674120GENERIC FN SGR BG             GRPOUND 0010000001000010000000201
0072100025560GENERIC SGR BG                GRPOUND 0005000001000010000000202
0032900001660GENERIC CF PW SGR P BG        GROZ    0032000001000010000000203
0074317001660GENERIC PW SGR P BG           GROZ    0032000001000010000000204
