0033200080300ARM&HMR H-D LIQ               MLOZ    0032000001000010000000001
0033200080350ARM&HMR H-D LIQ -.25          MLOZ    0032000001000010000000001
0033200080380ARM&HMR H-D LIQ PP            MLOZ    0032000001000010000000001
0033200080390ARM&HMR H-D LIQ PP            MLOZ    0032000001000010000000001
0033200080500ARM&HMR H-D LIQ               MLOZ    0064000001000010000000001
0033200080550ARM&HMR H-D LIQ -.35          MLOZ    0064000001000010000000001
0033200080580ARM&HMR H-D LIQ PP            MLOZ    0064000001000010000000001
0033200080590ARM&HMR H-D LIQ PP            MLOZ    0064000001000010000000001
0033200080700ARM&HMR H-D LIQ               MLOZ    0128000001000010000000001
0033200080750ARM&HMR H-D LIQ -.50          MLOZ    0128000001000010000000001
0033200080760ARM&HMR H-D LIQ -.60          MLOZ    0128000001000010000000001
0033200080780ARM&HMR H-D LIQ PP            MLOZ    0128000001000010000000001
0033200080790ARM&HMR H-D LIQ PP            MLOZ    0128000001000010000000001
0035000497000AJAX H-D LIQ NP               MLOZ    0032000001000010000000003
0035000497290AJAX H-D LIQ NP               MLOZ    0032000001000010000000003
0035000498000AJAX H-D LIQ NP               MLOZ    0064000001000010000000003
0035000498490AJAX H-D LIQ NP PP            MLOZ    0064000001000010000000003
0035000499000AJAX H-D LIQ NP               MLOZ    0128000001000010000000003
0035000499890AJAX H-D LIQ NP PP            MLOZ    0128000001000010000000003
0035000066390DYNAMO ACT PLUS H-D LIQ TR PP MLOZ    0008000001000010000000004
0035000404000DYNAMO ACT PLUS H-D LIQ       MLOZ    0032000001000010000000004
0035000404200DYNAMO ACT PLUS H-D LIQ -.20  MLOZ    0032000001000010000000004
0035000404250DYNAMO ACT PLUS H-D LIQ -.25  MLOZ    0032000001000010000000004
0035000404300DYNAMO ACT PLUS H-D LIQ -.30  MLOZ    0032000001000010000000004
0035000404400DYNAMO ACT PLUS H-D LIQ -.40  MLOZ    0032000001000010000000004
0035000404500DYNAMO ACT PLUS H-D LIQ -.50  MLOZ    0032000001000010000000004
0035000404590DYNAMO ACT PLUS H-D LIQ PP    MLOZ    0032000001000010000000004
0035000405010DYNAMO ACT PLUS H-D LIQ -1.00 MLOZ    0064000001000010000000004
0035000405250DYNAMO ACT PLUS H-D LIQ -1.25 MLOZ    0064000001000010000000004
0035000405490DYNAMO ACT PLUS H-D LIQ PP    MLOZ    0064000001000010000000004
0035000405750DYNAMO ACT PLUS H-D LIQ -.75  MLOZ    0064000001000010000000004
0035000406000DYNAMO ACT PLUS H-D LIQ       MLOZ    0128000001000010000000004
0035000406010DYNAMO ACT PLUS H-D LIQ -1.00 MLOZ    0128000001000010000000004
0035000406020DYNAMO ACT PLUS H-D LIQ -2.00 MLOZ    0128000001000010000000004
0035000406030DYNAMO ACT PLUS H-D LIQ -3.00 MLOZ    0128000001000010000000004
0035000407000DYNAMO ACT PLUS H-D LIQ       MLOZ    0096000001000010000000004
0035000407990DYNAMO ACT PLUS H-D LIQ PP    MLOZ    0096000001000010000000004
0035000066490DYNAMO II H-D LIQ TR          MLOZ    0008000001000010000000005
0035000404690DYNAMO II H-D LIQ PP          MLOZ    0032000001000010000000005
0035000405000DYNAMO II H-D LIQ             MLOZ    0064000001000010000000005
0035000406590DYNAMO II H-D LIQ PP          MLOZ    0128000001000010000000005
0035000406900DYNAMO II H-D LIQ             MLOZ    0128000001000010000000005
0035000406940DYNAMO II H-D LIQ PP          MLOZ    0128000001000010000000005
0035000407050DYNAMO II H-D LIQ -1.50       MLOZ    0096000001000010000000005
0035000481490DYNAMO II H-D LIQ PP          MLOZ    0064000001000010000000005
0035000055160FAB H-D LIQ/F-S TR PP         MLOZ    0008000001000010000000006
0035000420000FAB H-D LIQ/F-S               MLOZ    0032000001000010000000006
0035000420400FAB H-D LIQ/F-S -.40          MLOZ    0032000001000010000000006
0035000420500FAB H-D LIQ/F-S -.50          MLOZ    0032000001000010000000006
0035000420790FAB H-D LIQ/F-S PP            MLOZ    0032000001000010000000006
0035000421000FAB H-D LIQ/F-S               MLOZ    0064000001000010000000006
0035000421010FAB H-D LIQ/F-S -1.00         MLOZ    0064000001000010000000006
0035000421990FAB H-D LIQ/F-S PP            MLOZ    0064000001000010000000006
0035000422000FAB H-D LIQ/F-S               MLOZ    0128000001000010000000006
0035000422020FAB H-D LIQ/F-S -2.00         MLOZ    0128000001000010000000006
0035000422500FAB H-D LIQ/F-S -1.50         MLOZ    0128000001000010000000006
0035000422990FAB H-D LIQ/F-S PP            MLOZ    0128000001000010000000006
0035000423000FAB H-D LIQ/F-S               MLOZ    0096000001000010000000006
0035000423050FAB H-D LIQ/F-S -1.50         MLOZ    0096000001000010000000006
0035000423990FAB H-D LIQ/F-S PP            MLOZ    0096000001000010000000006
0024200024010DUTCH H-D LIQ                 MLOZ    0032000001000010000000008
0024200024020DUTCH H-D LIQ                 MLOZ    0064000001000010000000008
0024200047000DUTCH H-D LIQ                 MLOZ    0032000001000010000000008
0024200047010DUTCH H-D LIQ                 MLOZ    0032000001000010000000008
0024200047020DUTCH H-D LIQ                 MLOZ    0064000001000010000000008
0024200047030DUTCH H-D LIQ PP              MLOZ    0064000001000010000000008
0024200048170PUREX H-D LIQ/F-S             MLOZ    0080000001000010000000009
0024200048180PUREX H-D LIQ/F-S             MLOZ    0040000001000010000000009
0024200048200PUREX H-D LIQ/F-S -.75        MLOZ    0080000001000010000000009
0024200048210PUREX H-D LIQ/F-S -1.00       MLOZ    0080000001000010000000009
0024200048300PUREX H-D LIQ/F-S             MLOZ    0032000001000010000000009
0024200048450PUREX H-D LIQ                 MLOZ    0032000001000010000000009
0024200048470PUREX H-D LIQ/F-S UNS PP      MLOZ    0032000001000010000000009
0024200048600PUREX H-D LIQ/F-S             MLOZ    0064000001000010000000009
0024200048610PUREX H-D LIQ/F-S -1.00       MLOZ    0064000001000010000000009
0024200048620PUREX H-D LIQ/F-S PP          MLOZ    0064000001000010000000009
0024200048750PUREX H-D LIQ NP              MLOZ    0064000001000010000000009
0024200048760PUREX H-D LIQ -1.00           MLOZ    0064000001000010000000009
0024200048770PUREX H-D LIQ/F-S UNS PP      MLOZ    0064000001000010000000009
0024200048950PUREX H-D LIQ UNS             MLOZ    0128000001000010000000009
0024200048960PUREX H-D LIQ NP UNS -2.00    MLOZ    0128000001000010000000009
0024200048970PUREX H-D LIQ UNS PP          MLOZ    0128000001000010000000009
0075275634470JLP H-D LIQ                   MLOZ    0064000001000010000000011
0075298261000BREAK-THRU H-D LIQ            MLOZ    0128000001000010000000013
0075298261010BREAK-THRU H-D LIQ            MLOZ    0128000001000010000000013
0075298261050BREAK-THRU H-D LIQ NP         MLOZ    0126000001000010000000013
0011111892060ALL H-D LIQ NP                MLOZ    0064000001000010000000015
0011111892360ALL H-D LIQ PP                MLOZ    0032000001000010000000015
0011111892530ALL H-D LIQ PP                MLOZ    0096000001000010000000015
0011111892950ALL H-D LIQ PP                MLOZ    0064000001000010000000015
0011111893280ALL H-D LIQ PP                MLOZ    0064000001000010000000015
0011111893310ALL H-D LIQ PP                MLOZ    0032000001000010000000015
0011111893660ALL H-D LIQ PP                MLOZ    0096000001000010000000015
0011111894320ALL H-D LIQ PP                MLOZ    0128000001000010000000015
0011111894810ALL H-D LIQ NP PP             MLOZ    0064000001000010000000015
0011111480030SURF H-D LIQ                  MLOZ    0128000001000010000000016
0011111480040SURF H-D LIQ                  MLOZ    0096000001000010000000016
0011111480090SURF H-D LIQ                  MLOZ    0064000001000010000000016
0011111480160SURF H-D LIQ                  MLOZ    0032000001000010000000016
0011111480960SURF H-D LIQ PP               MLOZ    0064000001000010000000016
0011111481550SURF H-D LIQ NP -1.00         MLOZ    0064000001000010000000016
0011111481890SURF H-D LIQ PP               MLOZ    0032000001000010000000016
0011111482310SURF H-D LIQ PP               MLOZ    0064000001000010000000016
0011111482520SURF H-D LIQ PP               MLOZ    0128000001000010000000016
0011111482630SURF H-D LIQ -1.50            MLOZ    0096000001000010000000016
0011111482910SURF H-D LIQ -.40             MLOZ    0032000001000010000000016
0011111484270SURF H-D LIQ -.50             MLOZ    0032000001000010000000016
0011111484850SURF H-D LIQ -2.00            MLOZ    0128000001000010000000016
0011111484990SURF H-D LIQ PP               MLOZ    0096000001000010000000016
0011111870260WISK H-D LIQ -2.00            MLOZ    0128000001000010000000017
0011111870290WISK H-D LIQ -.30             MLOZ    0032000001000010000000017
0011111870450WISK H-D LIQ PP               MLOZ    0032000001000010000000017
0011111870900WISK H-D LIQ NP UNS -2.00     MLOZ    0128000001000010000000017
0011111871920WISK H-D LIQ PP               MLOZ    0128000001000010000000017
0011111872360WISK H-D LIQ NP -.25          MLOZ    0032000001000010000000017
0011111872380WISK H-D LIQ PP               MLOZ    0064000001000010000000017
0011111872650WISK H-D LIQ PP               MLOZ    0032000001000010000000017
0011111872700WISK H-D LIQ NP UNS -1.00     MLOZ    0064000001000010000000017
0011111872810WISK H-D LIQ NP -.75          MLOZ    0064000001000010000000017
0011111872890WISK H-D LIQ -.50             MLOZ    0032000001000010000000017
0011111873280WISK H-D LIQ -.40             MLOZ    0032000001000010000000017
0011111873700WISK H-D LIQ PP               MLOZ    0128000001000010000000017
0011111873830WISK H-D LIQ -1.00            MLOZ    0064000001000010000000017
0011111874040WISK H-D LIQ NP               MLOZ    0128000001000010000000017
0011111874060WISK H-D LIQ NP               MLOZ    0064000001000010000000017
0011111874120WISK H-D LIQ NP               MLOZ    0032000001000010000000017
0011111874590WISK H-D LIQ NP -.50          MLOZ    0064000001000010000000017
0011111874630WISK H-D LIQ -1.50            MLOZ    0128000001000010000000017
0011111874860WISK H-D LIQ PP               MLOZ    0064000001000010000000017
0011111874970WISK H-D LIQ 32OZ=            MLOZ    0096000001000010000000017
0011111878640WISK H-D LIQ NP -1.00         MLOZ    0128000001000010000000017
0022200000140BABY MAGIC H-D LIQ            MLOZ    0064000001000010000000019
0022200005090BABY MAGIC H-D LIQ NP         MLOZ    0032000001000010000000019
0037000008090B-3 H-D LIQ                   MLOZ    0032000001000010000000021
0037000008100B-3 H-D LIQ                   MLOZ    0064000001000010000000021
0037000008130B-3 H-D LIQ                   MLOZ    0096000001000010000000021
0037000008140B-3 H-D LIQ                   MLOZ    0128000001000010000000021
0037000008150B-3 H-D LIQ TR PP             MLOZ    0012000000000010000000021
0037000008160B-3 H-D LIQ -.50              MLOZ    0064000001000010000000021
0037000008360B-3 H-D LIQ -.75              MLOZ    0064000001000010000000021
0037000008370B-3 H-D LIQ -1.00             MLOZ    0128000001000010000000021
0037000009200B-3 H-D LIQ PP                MLOZ    0032000001000010000000021
0037000009270B-3 H-D LIQ -1.50             MLOZ    0128000001000010000000021
0037000971050B-3 H-D LIQ -.40              MLOZ    0032000001000010000000021
0037000971070B-3 H-D LIQ PP                MLOZ    0128000001000010000000021
0037000971150B-3 H-D LIQ -1.00             MLOZ    0096000001000010000000021
0037000971170B-3 H-D LIQ -1.50             MLOZ    0096000001000010000000021
0037000971190B-3 H-D LIQ PP                MLOZ    0096000001000010000000021
0037000971200B-3 H-D LIQ -1.00             MLOZ    0064000001000010000000021
0037000971210B-3 H-D LIQ PP                MLOZ    0064000001000010000000021
0037000971230B-3 H-D LIQ PP                MLOZ    0064000001000010000000021
0037000009320CH H-D LIQ -1.00              MLOZ    0064000001000010000000022
0037000009330CH H-D LIQ -.75               MLOZ    0064000001000010000000022
0037000009410CH H-D LIQ                    MLOZ    0032000001000010000000022
0037000009420CH H-D LIQ                    MLOZ    0064000001000010000000022
0037000009430CH H-D LIQ                    MLOZ    0128000001000010000000022
0037000009440CH H-D LIQ                    MLOZ    0096000001000010000000022
0037000009450CH H-D LIQ -1.50              MLOZ    0128000001000010000000022
0037000009500CH H-D LIQ PP                 MLOZ    0064000001000010000000022
0037000009970CH H-D LIQ -1.00              MLOZ    0096000001000010000000022
0037000970700CH H-D LIQ -1.50              MLOZ    0096000001000010000000022
0037000970710CH H-D LIQ -2.00              MLOZ    0128000001000010000000022
0037000973000DASH H-D LIQ LM               MLOZ    0128000001000010000000023
0037000973020DASH H-D LIQ LM -1.50         MLOZ    0128000001000010000000023
0037000973200DASH H-D LIQ LM               MLOZ    0096000001000010000000023
0037000973210DASH H-D LIQ LM PP            MLOZ    0096000001000010000000023
0037000973220DASH H-D LIQ LM -1.00         MLOZ    0096000001000010000000023
0037000973300DASH H-D LIQ LM               MLOZ    0064000001000010000000023
0037000973310DASH H-D LIQ LM PP            MLOZ    0064000001000010000000023
0037000973320DASH H-D LIQ LM -.75          MLOZ    0064000001000010000000023
0037000008400ERA PLUS H-D LIQ TR PP        MLOZ    0008000001000010000000024
0037000008410ERA PLUS H-D LIQ              MLOZ    0016000001000010000000024
0037000008420ERA PLUS H-D LIQ              MLOZ    0032000001000010000000024
0037000008430ERA PLUS H-D LIQ              MLOZ    0064000001000010000000024
0037000008440ERA PLUS H-D LIQ              MLOZ    0128000001000010000000024
0037000008470ERA PLUS H-D LIQ/=DOWNY       MLOZ    0064000001000010000000024
0037000008500ERA PLUS H-D LIQ -.30         MLOZ    0032000001000010000000024
0037000008530ERA PLUS H-D LIQ/PRE-TREATER  MLOZ    0008000001000010000000024
0037000008550ERA PLUS H-D LIQ -.75         MLOZ    0064000001000010000000024
0037000008560ERA PLUS H-D LIQ PP           MLOZ    0032000001000010000000024
0037000008590ERA PLUS H-D LIQ PP           MLOZ    0032000001000010000000024
0037000009090ERA PLUS H-D LIQ -1.00        MLOZ    0128000001000010000000024
0037000009740ERA PLUS H-D LIQ              MLOZ    0096000001000010000000024
0037000009750ERA PLUS H-D LIQ -.50         MLOZ    0064000001000010000000024
0037000914170ERA PLUS H-D LIQ -1.50        MLOZ    0128000001000010000000024
0037000914230ERS PLUS H-D LIQ PP           MLOZ    0064000001000010000000024
0037000914320ERA PLUS H-D LIQ PP           MLOZ    0064000001000010000000024
0037000914370ERA PLUS H-D LIQ -.75         MLOZ    0064000001000010000000024
0037000914470ERA PLUS H-D LIQ -2.00        MLOZ    0128000001000010000000024
0037000914500ERA PLUS H-D LIQ              MLOZ    0096000001000010000000024
0037000914530ERA PLUS H-D LIQ -1.00        MLOZ    0096000001000010000000024
0037000914550ERA PLUS H-D LIQ -1.50        MLOZ    0096000001000010000000024
0037000914560ERA PLUS H-D LIQ PP           MLOZ    0096000001000010000000024
0037000009060JOY L-D LIQ LM PP             MLOZ    0022000001000010000000025
0037000009760CASCADE AD LM PP              GROZ    0065000001000010000000026
0037000008390SOLO H-D LIQ/F-S PP           MLOZ    0064000001000010000000027
0037000008600SOLO H-D LIQ/F-S PP           MLOZ    0032000001000010000000027
0037000009510SOLO H-D LIQ/F-S              MLOZ    0016000001000010000000027
0037000009520SOLO H-D LIQ/F-S              MLOZ    0032000001000010000000027
0037000009530SOLO H-D LIQ/F-S              MLOZ    0064000001000010000000027
0037000009540SOLO H-D LIQ/F-S              MLOZ    0128000001000010000000027
0037000009550SOLO H-D LIQ/F-S              MLOZ    0096000001000010000000027
0037000009570SOLO H-D LIQ/F-S PP           MLOZ    0064000001000010000000027
0037000009590SOLO H-D LIQ/F-S -1.00        MLOZ    0064000001000010000000027
0037000009600SOLO H-D LIQ/F-S -.75         MLOZ    0064000001000010000000027
0037000009610SOLO H-D LIQ/F-S -1.50        MLOZ    0128000001000010000000027
0037000009630SOLO H-D LIQ/F-S PP           MLOZ    0128000001000010000000027
0037000009640SOLO H-D LIQ/F-S PP           MLOZ    0128000001000010000000027
0037000009650SOLO H-D LIQ/F-S -.50         MLOZ    0064000001000010000000027
0037000009680SOLO H-D LIQ/F-S -2.00        MLOZ    0128000001000010000000027
0037000009690SOLO H-D LIQ/F-S -1.00        MLOZ    0128000001000010000000027
0037000913950SOLO H-D LIQ/F-S/=COAST       MLOZ    0064000001000010000000027
0037000960060SOLO H-D LIQ/F-S -1.00        MLOZ    0096000001000010000000027
0037000960080SOLO H-D LIQ/F-S -1.50        MLOZ    0096000001000010000000027
0037000960280SOLO H-D LIQ/F-S PP           MLOZ    0128000001000010000000027
0037000008350TD H-D LIQ -.30               MLOZ    0032000001000010000000028
0037000008970TD H-D LIQ TR                 MLOZ    0004000001000010000000028
0037000009220TD H-D LIQ -1.00              MLOZ    0064000001000010000000028
0037000009460TD H-D LIQ                    MLOZ    0128000001000010000000028
0037000009470TD H-D LIQ -1.00              MLOZ    0128000001000010000000028
0037000009480TD H-D LIQ                    MLOZ    0096000001000010000000028
0037000009490TD H-D LIQ -.75               MLOZ    0096000001000010000000028
0037000009710TD H-D LIQ -.50               MLOZ    0064000001000010000000028
0037000009890TD H-D LIQ                    MLOZ    0032000001000010000000028
0037000009910TD H-D LIQ                    MLOZ    0064000001000010000000028
0037000009930TD H-D LIQ -.75               MLOZ    0064000001000010000000028
0037000922030TD H-D LIQ -1.00              MLOZ    0064000001000010000000028
0037000922150TD H-D LIQ -1.00              MLOZ    0096000001000010000000028
0037000922200TD H-D LIQ UNS                MLOZ    0096000001000010000000028
0037000922210TD H-D LIQ UNS -1.00          MLOZ    0096000001000010000000028
0037000922250TD H-D LIQ -.40               MLOZ    0032000001000010000000028
0037000922300TD H-D LIQ UNS                MLOZ    0064000001000010000000028
0037000922350TD H-D LIQ UNS -.75           MLOZ    0064000001000010000000028
0037000922400TD H-D LIQ -1.50              MLOZ    0128000001000010000000028
0037000922430TD H-D LIQ -2.00              MLOZ    0128000001000010000000028
0037000922450TD H-D LIQ UNS                MLOZ    0128000001000010000000028
0037000922460TD H-D LIQ UNS -1.50          MLOZ    0128000001000010000000028
0037000922470TD H-D LIQ UNS -2.00          MLOZ    0128000001000010000000028
0054600001620YES H-D LIQ/F-S -.30          MLOZ    0032000001000010000000030
0054600001630YES H-D LIQ/F-S -.25          MLOZ    0032000001000010000000030
0054600001640YES H-D LIQ/F-S -.60          MLOZ    0032000001000010000000030
0054600001650YES H-D LIQ/F-S -.75          MLOZ    0032000001000010000000030
0054600001670YES H-D LIQ/F-S 25%=          MLOZ    0080000001000010000000030
0054600001700YES H-D LIQ/F-S -2.00         MLOZ    0096000001000010000000030
0054600001730YES H-D LIQ/F-S PP            MLOZ    0128000001000010000000030
0054600001740YES H-D LIQ/F-S PP            MLOZ    0128000001000010000000030
0054600001750YES H-D LIQ/F-S -2.00         MLOZ    0128000001000010000000030
0054600001760YES H-D LIQ/F-S -1.00         MLOZ    0128000001000010000000030
0054600001790YES H-D LIQ/F-S PP            MLOZ    0032000001000010000000030
0054600001800YES H-D LIQ/F-S -.50          MLOZ    0032000001000010000000030
0054600001810YES H-D LIQ/F-S               MLOZ    0032000001000010000000030
0054600001820YES H-D LIQ/F-S               MLOZ    0064000001000010000000030
0054600001830YES H-D LIQ/F-S               MLOZ    0128000001000010000000030
0054600001850YES H-D LIQ/F-S -.50          MLOZ    0064000001000010000000030
0054600001860YES H-D LIQ/F-S PP            MLOZ    0064000001000010000000030
0054600001870YES H-D LIQ/F-S -1.00         MLOZ    0064000001000010000000030
0054600001900YES H-D LIQ/F-S -.75          MLOZ    0064000001000010000000030
0054600001910YES H-D LIQ/F-S PP            MLOZ    0064000001000010000000030
0054600001930YES H-D LIQ/F-S 32OZ=         MLOZ    0064000001000010000000030
0054600001940YES H-D LIQ/F-S 1/1=          MLOZ    0064000002000010000000030
0022222024800CTL BR H-D LIQ                MLOZ    0128000001000010000000032
0022222029320CTL BR H-D LIQ                MLOZ    0064000001000010000000032
0022222036970CTL BR H-D LIQ                MLOZ    0064000001000010000000032
0022222036980CTL BR H-D LIQ                MLOZ    0064000001000010000000032
0024900855500GENERIC H-D LIQ               MLOZ    0064000001000010000000032
0036800180800CTL BR H-D LIQ                MLOZ    0064000001000010000000032
0036800180900CTL BR H-D LIQ                MLOZ    0032000001000010000000032
0036800357220CTL BR H-D LIQ                MLOZ    0064000001000010000000032
0036800357320CTL BR H-D LIQ                MLOZ    0032000001000010000000032
0036800357420CTL BR H-D LIQ                MLOZ    0128000001000010000000032
0036800357520CTL BR H-D LIQ                MLOZ    0128000001000010000000032
0036800357540CTL BR H-D LIQ/F-S            MLOZ    0064000001000010000000032
0036800359000CTL BR H-D LIQ                MLOZ    0064000001000010000000032
0041130023590CTL BR H-D LIQ NP/F-S         MLOZ    0064000001000010000000032
0041130031690CTL BR H-D LIQ NP             MLOZ    0128000001000010000000032
0041130034540CTL BR H-D LIQ NP             MLOZ    0128000001000010000000032
0041130125250CTL BR H-D LIQ                MLOZ    0064000001000010000000032
0041163300190CTL BR H-D LIQ                MLOZ    0032000001000010000000032
0041163300200CTL BR H-D LIQ                MLOZ    0064000001000010000000032
0041163306200GENERIC H-D LIQ               MLOZ    0064000001000010000000032
0041280182020GENERIC H-D LIQ               MLOZ    0064000001000010000000032
0041348008190GENERIC H-D LIQ               MLOZ    0064000001000010000000032
0041428200030GENERIC H-D LIQ               MLOZ    0064000001000010000000032
0041428200090GENERIC H-D LIQ               MLOZ    0128000001000010000000032
0042187400210CTL BR H-D LIQ                MLOZ    0064000001000010000000032
0070038323790CTL BR H-D LIQ                MLOZ    0128000001000010000000032
0070038340210CTL BR H-D LIQ                MLOZ    0064000001000010000000032
0070038340230CTL BR H-D LIQ                MLOZ    0064000001000010000000032
0074317001870GENERIC H-D LIQ               MLOZ    0064000001000010000000032
0074317001890GENERIC H-D LIQ               MLOZ    0128000001000010000000032
0074317008930CTL BR H-D LIQ                MLOZ    0064000001000010000000032
0074317008940GENERIC H-D LIQ               MLOZ    0128000001000010000000032
0074530486300GENERIC H-D LIQ               MLOZ    0064000001000010000000032
0075298000190GENERIC H-D LIQ/F-S           MLOZ    0064000001000010000000032
0075298412380GENERIC H-D LIQ               MLOZ    0064000001000010000000032
0033200072200ARM&HMR NP HOME PCK           GROZ    0227000001000010000000035
0033200072230ARM&HMR HOME PCK -.50         GROZ    0227000001000010000000035
0033200072240ARM&HMR HOME PCK -.60         GROZ    0227000001000010000000035
0033200072290ARM&HMR HOME PCK PP           GROZ    0227000001000010000000035
0033200072600ARM&HMR NP GT PCK             GROZ    0065000001000010000000035
0033200072610ARM&HMR GT PCK                GROZ    0064000001000010000000035
0033200072640ARM&HMR GT PCK -.20           GROZ    0065000001000010000000035
0033200072650ARM&HMR GT PCK -.25           GROZ    0065000001000010000000035
0033200072680ARM&HMR GT PCK PP             GROZ    0064000001000010000000035
0033200072690ARM&HMR GT PCK PP             GROZ    0065000001000010000000035
0033200072700ARM&HMR HOME PCK              GROZ    0400000001000010000000035
0033200072720ARM&HMR NP HOME PCK PP9.49    GROZ    0400000001000010000000035
0033200072770ARM&HMR HOME PCK -1.00        GROZ    0400000001000010000000035
0033200072790ARM&HMR HOME PCK PP           GROZ    0400000001000010000000035
0033200072900ARM&HMR KG PCK                GROZ    0111000001000010000000035
0033200072950ARM&HMR KG PCK -.30           GROZ    0111000001000010000000035
0033200072960ARM&HMR KG PCK -.35           GROZ    0111000001000010000000035
0033200072970ARM&HMR KG PCK PP             GROZ    0111000001000010000000035
0033200072990ARM&HMR KG PCK PP             GROZ    0111000001000010000000035
0035000052810AJAX LIGHT DENSTIY NP GT PCK  GROZ    0036000001000010000000037
0035000052820AJAX LIGHT DENSTIY NP KG PCK  GROZ    0061000001000010000000037
0035000052860AJAX LIGHT DENSITY NP FM PCK  GROZ    0125000001000010000000037
0035000301800AJAX LIGHT DENSITY GT PCK     GROZ    0036000001000010000000037
0035000302800AJAX LIGHT DENSITY KG PCK     GROZ    0061000001000010000000037
0035000306800AJAX LIGHT DENSITY FM PCK     GROZ    0125000001000010000000037
0035000321000COLD POWER GT PCK             GROZ    0049000001000010000000038
0035000321200COLD POWER GT PCK -.20        GROZ    0049000001000010000000038
0035000051100FAB/F-S NP RG PCK             GROZ    0017000001000010000000039
0035000051110FAB/F-S NP GT PCK             GROZ    0042000001000010000000039
0035000051120FAB/F-S NP KG PCK             GROZ    0072000001000010000000039
0035000051130FAB/F-S NP FM PCK             GROZ    0171000001000010000000039
0035000051170FAB/F-S NP FM PCK -1.00       GROZ    0171000001000010000000039
0035000051200FAB/F-S RG PCK -.05           GROZ    0020000001000010000000039
0035000051220FAB/F-S NP GT PCK -.30        GROZ    0049000001000010000000039
0035000051230FAB/F-S KG PCK -.50           GROZ    0084000001000010000000039
0035000064030FAB/F-S RG PCK -.20           GROZ    0020000001000010000000039
0035000064040FAB/F-S NP GT PCK             GROZ    0042000001000010000000039
0035000064050FAB/F-S NP GT PCK -.30        GROZ    0042000001000010000000039
0035000064060FAB/F-S NP KG PCK             GROZ    0072000001000010000000039
0035000064070FAB/F-S NP KG PCK -.50        GROZ    0072000001000010000000039
0035000064080FAB/F-S NP FM PCK             GROZ    0147000001000010000000039
0035000064090FAB/F-S NP FM PCK -1.00       GROZ    0147000001000010000000039
0035000064340FAB/F-S NP GT PCK -.50        GROZ    0042000001000010000000039
0035000064350FAB/F-S NP FM PCK -1.50       GROZ    0147000001000010000000039
0035000064360FAB/F-S NP GT PCK -.40        GROZ    0042000001000010000000039
0035000064420FAB/F-S NP KG PCK -1.00       GROZ    0072000001000010000000039
0035000064430FAB/F-S FM PCK -2.50          GROZ    0147000001000010000000039
0035000064450FAB/F-S NP GT PCK PP          GROZ    0042000001000010000000039
0035000064830FAB/F-S NP KG PCK -.75        GROZ    0072000001000010000000039
0035000310900FAB/F-S RG PCK                GROZ    0017000001000010000000039
0035000310910FAB/F-S RG PCK -.05           GROZ    0017000001000010000000039
0035000311900FAB/F-S GT PCK                GROZ    0042000001000010000000039
0035000311940FAB/F-S GT PCK -.30           GROZ    0049000001000010000000039
0035000312900FAB/F-S NP KG PCK             GROZ    0084000001000010000000039
0035000312920FAB/F-S KG PCK -.50           GROZ    0084000001000010000000039
0035000316900FAB/F-S FM PCK                GROZ    0147000001000010000000039
0035000371000FAB/F-S RG PCK                GROZ    0017000001000010000000039
0035000371050FAB/F-S RG PCK -.05           GROZ    0017000001000010000000039
0035000372000FAB/F-S LM GT PCK             GROZ    0042000001000010000000039
0035000372300FAB/F-S GT PCK -.30           GROZ    0042000001000010000000039
0035000372890FAB/F-S GT PCK PP             GROZ    0049000001000010000000039
0035000373000FAB/F-S KG PCK                GROZ    0072000001000010000000039
0035000373500FAB/F-S KG PCK -.50           GROZ    0072000001000010000000039
0035000374000FAB/F-S FM PCK                GROZ    0147000001000010000000039
0035000374010FAB/F-S LM FM PCK -1.00       GROZ    0147000001000010000000039
0035000377400FAB/F-S GT PCK -.40           GROZ    0042000001000010000000039
0035000377500FAB/F-S GT PCK -.50           GROZ    0042000001000010000000039
0035000377690FAB/F-S GT PCK PP             GROZ    0042000001000010000000039
0035000377990FAB/F-S GT PCK PP             GROZ    0042000001000010000000039
0035000378010FAB/F-S KG PCK -1.00          GROZ    0072000001000010000000039
0035000378750FAB/F-S KG PCK -.75           GROZ    0072000001000010000000039
0035000379050FAB/F-S FM PCK -2.50          GROZ    0147000001000010000000039
0035000379500FAB/F-S FM PCK -1.50          GROZ    0147000001000010000000039
0035000379990FAB/F-S FM PCK PP             GROZ    0147000001000010000000039
0035000312000FAB/BORAX NP KG PCK           GROZ    0084000001000010000000040
0035000050000F1S/F-S CN PT NP GT PCK       CTCT    0010000001000010000000041
0035000050020F1S/F-S CN PT NP GT PCK PP1.49CTCT    0010000001000010000000041
0035000050030F1S/F-S CN PT NP RG PCK -.40  CTCT    0010000001000010000000041
0035000050100F1S/F-S CN PT NP KG PCK       CTCT    0016000001000010000000041
0035000050110F1S/F-S CN PT NP KG PCK -.75  CTCT    0016000001000010000000041
0035000050200F1S/F-S CN PT NP FM PCK       CTCT    0032000001000010000000041
0035000050210F1S/F-S CN PT NP FM PCK -1.50 CTCT    0032000001000010000000041
0035000050240F1S/F-S CN PT NP FM PCK PP    CTCT    0032000001000010000000041
0035000351000F1S/F-S CN PT GT PCK          CTCT    0010000001000010000000041
0035000351400F1S/F-S CN PT GT PCK -.40     CTCT    0010000001000010000000041
0035000351490F1S/F-S CN PT GT PCK PP       CTCT    0010000001000010000000041
0035000352000F1S/F-S CN PT KG PCK          CTCT    0016000001000010000000041
0035000352750F1S/F-S CN PT KG PCK -.75     CTCT    0016000001000010000000041
0035000353000F1S/F-S CN PT FM PCK          CTCT    0032000001000010000000041
0035000353050F1S/F-S CN PT FM PCK -1.50    CTCT    0032000001000010000000041
0035000353990F1S/F-S CN PT FM PCK PP       CTCT    0032000001000010000000041
0035000051570FRSH STRT CN NP KG PCK -.75   GROZ    0034500001000010000000042
0035000051620FRSH STRT CN NP FM PCK -1.00  GROZ    0070000001000010000000042
0035000051630FRSH STRT CN NP KG PCK -.50   GROZ    0034500001000010000000042
0035000051720FRSH STRT CN NP GT PCK -.50   GROZ    0020000001000010000000042
0035000051730FRSH STRT CN NP GT PCK -.30   GROZ    0020000001000010000000042
0035000051740FRSH STRT CN NP GT PCK -.30   GROZ    0020000001000010000000042
0035000052510FRSH STRT CN NP TR PCK PP     GROZ    0008000001000010000000042
0035000053090FRSH STRT CN NP GT PCK PP     GROZ    0020000001000010000000042
0035000053130FRSH STRT CN NP GT PCK -.40   GROZ    0019000001000010000000042
0035000053150FRSH STRT CN NP FM PCK -1.50  GROZ    0067000001000010000000042
0035000053170FRSH STRT CN FM PCK -2.50     GROZ    0067000001000010000000042
0035000053180FRSH STRT CN KG PCK PP        GROZ    0033000001000010000000042
0035000053400FRSH STRT CN NP GT PCK        GROZ    0019000001000010000000042
0035000053410FRSH STRT CN NP KG PCK        GROZ    0034500001000010000000042
0035000053420FRSH STRT CN NP FM PCK        GROZ    0070000001000010000000042
0035000336400FRSH STRT CN RG PCK -.40      GROZ    0019000001000010000000042
0035000336990FRSH STRT CN NP GT PCK PP     GROZ    0019000001000010000000042
0035000337990FRSH STRT CN KG PCK PP        GROZ    0033000001000010000000042
0035000338250FRSH STRT CN FM PCK -2.50     GROZ    0067000001000010000000042
0035000340000FRSH STRT CN GT PCK           GROZ    0019000001000010000000042
0035000340030FRSH STRT CN GT PCK -.30      GROZ    0020000001000010000000042
0035000340200FRSH STRT CN GT PCK -.20      GROZ    0020000001000010000000042
0035000340300FRSH STRT CN GT PCK -.30      GROZ    0020000001000010000000042
0035000340500FRSH STRT CN GT PCK -.50      GROZ    0020000001000010000000042
0035000340890FRSH STRT CN GT PCK PP        GROZ    0020000001000010000000042
0035000341000FRSH STRT CN KG PCK           GROZ    0033000001000010000000042
0035000341350FRSH STRT CN KG PCK -.35      GROZ    0034500001000010000000042
0035000341500FRSH STRT CN KG PCK -.50      GROZ    0034500001000010000000042
0035000341750FRSH STRT CN KG PCK -.75      GROZ    0034500001000010000000042
0035000342000FRSH STRT CN FM PCK           GROZ    0067000001000010000000042
0035000342010FRSH STRT CN FM PCK -1.00     GROZ    0070000001000010000000042
0035000342500FRSH STRT CN FM PCK -1.50     GROZ    0070000001000010000000042
0035000051910PUNCH NP GT PCK               GROZ    0036000001000010000000043
0035000051920PUNCH NP KG PCK               GROZ    0061000001000010000000043
0035000051930PUNCH NP FM PCK               GROZ    0147000001000010000000043
0035000381800PUNCH GT PCK                  GROZ    0036000001000010000000043
0035000382800PUNCH KG PCK                  GROZ    0061000001000010000000043
0035000333000SPR SD GT PCK                 GROZ    0040000001000010000000044
0035000347000SPR SD GT PCK                 GROZ    0036000001000010000000044
0024200079000DUTCH KG PCK                  GROZ    0065000001000010000000046
0024200079010DUTCH KG PCK                  GROZ    0111000001000010000000046
0024200079020DUTCH FM PCK                  GROZ    0205000001000010000000046
0024200089420DUTCH CN UNS GT PCK           GROZ    0042000001000010000000046
0024200089430DUTCH KG PCK                  GROZ    0072000001000010000000046
0024200089440DUTCH NP FM PCK               GROZ    0147000001000010000000046
0024200042050INSTANT FELS NP GT PCK        GROZ    0036000001000010000000047
0024200015000PUREX NP GT PCK               GROZ    0042000001000010000000048
0024200015010PUREX KG PCK                  GROZ    0072000001000010000000048
0024200015020PUREX RG PCK                  GROZ    0017000001000010000000048
0024200015040PUREX FM PCK                  GROZ    0147000001000010000000048
0024200015280PUREX GT PCK -.25             GROZ    0042000001000010000000048
0024200015290PUREX KG PCK -.35             GROZ    0072000001000010000000048
0024200015300PUREX FM PCK -.60             GROZ    0147000001000010000000048
0024200015320PUREX FM PCK -.75             GROZ    0147000001000010000000048
0024200015330PUREX GT PCK -.35             GROZ    0042000001000010000000048
0024200015340PUREX FM PCK -1.00            GROZ    0147000001000010000000048
0024200015350PUREX FM PCK -1.25            GROZ    0147000001000010000000048
0024200015440PUREX GT PCK -.40             GROZ    0042000001000010000000048
0024200015450PUREX GT PCK PP               GROZ    0042000001000010000000048
0024200015460PUREX KG PCK -.50             GROZ    0072000001000010000000048
0024200015470PUREX FM PCK PP               GROZ    0147000001000010000000048
0024200015560PUREX FM PCK PP               GROZ    0147000001000010000000048
0024200016070TREND H-D NP GT PCK           GROZ    0036000001000010000000049
0024200016140TREND NP FM PCK               GROZ    0125000001000010000000049
0024200016280TREND NP FM PCK -.50          GROZ    0125000001000010000000049
0024200016290TREND H-D NP GT PCK -.20      GROZ    0036000001000010000000049
0024200016320TREND H-D FM PCK -.65         GROZ    0125000001000010000000049
0036000540300COMMAND CN SHT RG PCK         CTCT    0008000001000010000000051
0011111350420ALL CN NP GT PCK -.25         GROZ    0049000001000010000000053
0011111350560ALL CN NP JUMBO PCK -1.00     GROZ    0157000001000010000000053
0011111350920ALL CN NP JUMBO PCK PP        GROZ    0157000001000010000000053
0011111351790ALL CN JUMBO PCK PP           GROZ    0157000001000010000000053
0011111352290ALL CN NP HOME PCK -2.00      GROZ    0320000001000010000000053
0011111352650ALL CN JUMBO PCK -1.50        GROZ    0157000001000010000000053
0011111352890ALL CN NP KG PCK -.50         GROZ    0084000001000010000000053
0011111353290ALL CN NP GT PCK -.40         GROZ    0049000001000010000000053
0011111353400ALL CN HOME PCK -2.50         GROZ    0320000001000010000000053
0011111353540ALL CN NP GT PCK PP           GROZ    0049000001000010000000053
0011111353570ALL CN JUMBO PCK -.75         GROZ    0157000001000010000000053
0011111354030ALL CN NP HOME PCK            GROZ    0320000001000010000000053
0011111354050ALL CN NP JUMBO PCK           GROZ    0157000001000010000000053
0011111354070ALL CN NP KG PCK              GROZ    0084000001000010000000053
0011111354130ALL CN GT PCK                 GROZ    0049000001000010000000053
0011111354570ALL CN NP KG PCK -.75         GROZ    0084000001000010000000053
0011111354700ALL CN HOME PCK -1.50         GROZ    0320000001000010000000053
0011111803850BREEZE NP GT PCK -.15         GROZ    0038000001000010000000054
0011111200040RINSO FM PCK                  GROZ    0147000001000010000000055
0011111200070RINSO NP KG PCK               GROZ    0076000001000010000000055
0011111200080RINSO NP GT PCK               GROZ    0072000001000010000000055
0011111200110RINSO NP GT PCK               GROZ    0044000001000010000000055
0011111200140RINSO CN NP GT PCK            GROZ    0038000001000010000000055
0011111200910RINSO CN GT PCK PP            GROZ    0038000001000010000000055
0011111202040RINSO NP FM PCK               GROZ    0132000001000010000000055
0011111202080RINSO CN KG PCK               GROZ    0065000001000010000000055
0011111202140RINSO GT PCK                  GROZ    0038000001000010000000055
0011111203040RINSO FM PCK                  GROZ    0147000001000010000000055
0011111203070RINSO NP GT PCK               GROZ    0072000001000010000000055
0011111203110RINSO NP GT PCK               GROZ    0042000001000010000000055
0011111204970RINSO NP GT PCK PP            GROZ    0072000001000010000000055
0011111420050SURF NP FM PCK                GROZ    0147000001000010000000056
0011111420090SURF NP KG PCK                GROZ    0072000001000010000000056
0011111420150SURF NP GT PCK                GROZ    0042000001000010000000056
0011111420250SURF NP RG PCK                GROZ    0017000001000010000000056
0011111420300SURF RG PCK -.05              GROZ    0017000001000010000000056
0011111420860SURF NP KG PCK -.75           GROZ    0072000001000010000000056
0011111421270SURF NP GT PCK -.40           GROZ    0042000001000010000000056
0011111421570SURF HIGH SD HOME PCK -2.00   GROZ    0240000001000010000000056
0011111422040SURF FM PCK                   GROZ    0171000001000010000000056
0011111422140SURF GT PCK                   GROZ    0049000001000010000000056
0011111422440SURF NP FM PCK -1.50          GROZ    0147000001000010000000056
0011111422450SURF NP GT PCK PP             GROZ    0042000001000010000000056
0011111422550SURF GT PCK -.40              GROZ    0042000001000010000000056
0011111422820SURF NP GT PCK PP             GROZ    0042000001000010000000056
0011111423010SURF HOME PCK                 GROZ    0400000001000010000000056
0011111423040SURF NP FM PCK                GROZ    0147000001000010000000056
0011111423080SURF KG PCK                   GROZ    0072000001000010000000056
0011111423140SURF RG PCK                   GROZ    0042000001000010000000056
0011111423240SURF RG PCK                   GROZ    0017000001000010000000056
0011111423250SURF KG PCK -.75              GROZ    0072000001000010000000056
0011111423470SURF FM PCK -2.50             GROZ    0147000001000010000000056
0011111423640SURF FM PCK -1.50             GROZ    0147000001000010000000056
0011111423800SURF FM PCK PP                GROZ    0147000001000010000000056
0011111423820SURF GT PCK PP                GROZ    0042000001000010000000056
0011111423990SURF GT PCK PP                GROZ    0042000001000010000000056
0011111424660SURF FM PCK PP                GROZ    0147000001000010000000056
0011111424680SURF HIGH SD RG PCK PP        GROZ    0017000001000010000000056
0037000009920B-3/F-S TR PCK PP             GROZ    0007000001000010000000058
0037000009940B-3/F-S TR PCK PP             GROZ    0007000001000010000000058
0037000900500B-3/F-S NP RG PCK             GROZ    0017000001000010000000058
0037000900600B-3/F-S GT PCK                GROZ    0042000001000010000000058
0037000900700B-3/F-S NP KG PCK             GROZ    0072000001000010000000058
0037000900720B-3/F-S KG PCK -.35           GROZ    0084000000000010000000058
0037000900750B-3/F-S KG PCK -.75           GROZ    0072000001000010000000058
0037000900770B-3/F-S NP KG PCK -1.00       GROZ    0072000001000010000000058
0037000900800B-3/F-S FM PCK                GROZ    0147000001000010000000058
0037000900860B-3/F-S FM PCK -1.50          GROZ    0147000001000010000000058
0037000900870B-3/F-S FM PCK -2.50          GROZ    0147000001000010000000058
0037000900900B-3/F-S NP GT PCK             GROZ    0042000001000010000000058
0037000900910B-3/F-S GT PCK -.25           GROZ    0042000001000010000000058
0037000900920B-3/F-S NP GT PCK PP          GROZ    0042000001000010000000058
0037000900940B-3/F-S NP GT PCK -.40        GROZ    0042000001000010000000058
0037000930600B-3/F-S NP GT PCK             GROZ    0042000001000010000000058
0037000930700B-3/F-S NP KG PCK             GROZ    0072000001000010000000058
0037000930750B-3/F-S NP KG PCK -.75        GROZ    0084000001000010000000058
0037000930770B-3/F-S NP KG PCK -1.00       GROZ    0072000001000010000000058
0037000930800B-3/F-S NP FM PCK             GROZ    0147000001000010000000058
0037000930860B-3/F-S NP FM PCK -1.50       GROZ    0147000001000010000000058
0037000930870B-3/F-S NP FM PCK -2.50       GROZ    0147000001000010000000058
0037000930900B-3/F-S NP GT PCK             GROZ    0042000001000010000000058
0037000930920B-3/F-S NP GT PCK -.40        GROZ    0042000001000010000000058
0037000902150CH FM PCK -2.00               GROZ    0147000001000010000000059
0037000902200CH GT PCK                     GROZ    0042000001000010000000059
0037000902300CH NP KG PCK                  GROZ    0072000001000010000000059
0037000902370CH KG PCK -.50                GROZ    0072000001000010000000059
0037000902380CH KG PCK -.75                GROZ    0072000001000010000000059
0037000902400CH NP FM PCK                  GROZ    0147000001000010000000059
0037000902460CH FM PCK -1.00               GROZ    0147000001000010000000059
0037000902470CH FM PCK -1.50               GROZ    0147000001000010000000059
0037000902480CH FM PCK PP                  GROZ    0147000001000010000000059
0037000902490CH FM PCK -2.50               GROZ    0147000001000010000000059
0037000902520CH KG PCK PP                  GROZ    0072000001000010000000059
0037000902900CH NP GT PCK                  GROZ    0042000001000010000000059
0037000902920CH GT PCK -.25                GROZ    0042000001000010000000059
0037000902930CH GT PCK -.50                GROZ    0042000001000010000000059
0037000902940CH GT PCK -.40                GROZ    0042000001000010000000059
0037000902960CH GT PCK PP                  GROZ    0042000001000010000000059
0037000932100CH NP RG PCK                  GROZ    0017000001000010000000059
0037000932300CH NP KG PCK                  GROZ    0072000001000010000000059
0037000932370CH NP KG PCK -.50             GROZ    0072000001000010000000059
0037000932390CH NP KG PCK -.75             GROZ    0072000001000010000000059
0037000932400CH NP FM PCK                  GROZ    0147000001000010000000059
0037000932470CH NP FM PCK -1.50            GROZ    0147000001000010000000059
0037000932900CH NP GT PCK                  GROZ    0042000001000010000000059
0037000932910CH NP GT PCK -.50             GROZ    0042000001000010000000059
0037000932940CH NP GT PCK -.40             GROZ    0042000001000010000000059
0037000903000DASH FM PCK                   GROZ    0211000001000010000000060
0037000903030DASH FM PCK -.70              GROZ    0211000001000010000000060
0037000903200DASH NP GT PCK                GROZ    0049000001000010000000060
0037000903300DASH FM PCK                   GROZ    0133000001000010000000060
0037000903400DASH KG PCK                   GROZ    0080000001000010000000060
0037000903550DASH NP LM GT PCK             GROZ    0042000001000010000000060
0037000903570DASH LM GT PCK -.40           GROZ    0042000001000010000000060
0037000903590DASH NP LM GT PCK PP          GROZ    0042000001000010000000060
0037000903600DASH NP LM FM PCK             GROZ    0147000001000010000000060
0037000903620DASH NP LM FM PCK -1.50       GROZ    0147000001000010000000060
0037000903640DASH NP LM FM PCK PP          GROZ    0147000001000010000000060
0037000903650DASH NP LM KG PCK             GROZ    0072000001000010000000060
0037000903660DASH NP LM KG PCK PP          GROZ    0072000001000010000000060
0037000903670DASH LM KG PCK -.75           GROZ    0072000001000010000000060
0037000903900DASH NP KG PCK                GROZ    0100000001000010000000060
0037000933300DASH NP FM PCK                GROZ    0133000001000010000000060
0037000933400DASH NP KG PCK                GROZ    0080000001000010000000060
0037000904200DREFT/BORAX GT PCK            GROZ    0044000001000010000000061
0037000904300DREFT/BORAX NP GT PCK         GROZ    0044000001000010000000061
0037000934220DREFT/BORAX NP GT PCK         GROZ    0049000001000010000000061
0037000934300DREFT/BORAX NP GT PCK         GROZ    0049000001000010000000061
0037000907200GAIN NP GT PCK                GROZ    0049000001000010000000062
0037000907300GAIN NP KG PCK                GROZ    0072000001000010000000062
0037000907350GAIN KG PCK -.75              GROZ    0072000001000010000000062
0037000907510GAIN GT PCK                   GROZ    0042000001000010000000062
0037000907530GAIN NP GT PCK -.75           GROZ    0042000001000010000000062
0037000907540GAIN GT PCK -.50              GROZ    0042000001000010000000062
0037000907550GAIN GT PCK -.40              GROZ    0042000001000010000000062
0037000937300GAIN NP KG PCK                GROZ    0072000001000010000000062
0037000937350GAIN NP KG PCK -.75           GROZ    0072000001000010000000062
0037000937500GAIN NP GT PCK                GROZ    0042000001000010000000062
0037000901900OXYDOL GT PCK                 GROZ    0042000001000010000000063
0037000910100OXYDOL RG PCK                 GROZ    0017000001000010000000063
0037000910200OXYDOL NP GT PCK              GROZ    0049000001000010000000063
0037000910300OXYDOL KG PCK                 GROZ    0072000001000010000000063
0037000910370OXYDOL KG PCK -.50            GROZ    0072000001000010000000063
0037000910380OXYDOL KG PCK -.75            GROZ    0072000001000010000000063
0037000910400OXYDOL FM PCK                 GROZ    0147000001000010000000063
0037000910480OXYDOL FM PCK -1.50           GROZ    0147000001000010000000063
0037000910490OXYDOL FM PCK -2.50           GROZ    0147000001000010000000063
0037000910540OXYDOL KG PCK PP              GROZ    0072000001000010000000063
0037000910900OXYDOL NP GT PCK              GROZ    0042000001000010000000063
0037000910910OXYDOL GT PCK -.25            GROZ    0042000001000010000000063
0037000910920OXYDOL GT PCK -.50            GROZ    0042000001000010000000063
0037000910930OXYDOL NP GT PCK -.40         GROZ    0042000001000010000000063
0037000910950OXYDOL GT PCK PP              GROZ    0042000001000010000000063
0037000935150OXYDOL NP RG PCK              GROZ    0017000001000010000000063
0037000935300OXYDOL NP KG PCK              GROZ    0072000001000010000000063
0037000935370OXYDOL NP KG PCK -.50         GROZ    0072000001000010000000063
0037000935380OXYDOL NP KG PCK -.75         GROZ    0072000001000010000000063
0037000935400OXYDOL NP FM PCK              GROZ    0147000001000010000000063
0037000935440OXYDOL NP FM PCK -1.00        GROZ    0147000001000010000000063
0037000935480OXYDOL NP FM PCK -1.50        GROZ    0147000001000010000000063
0037000935900OXYDOL NP GT PCK              GROZ    0042000001000010000000063
0037000935910OXYDOL NP GT PCK -.25         GROZ    0042000001000010000000063
0037000935920OXYDOL NP GT PCK -.50         GROZ    0042000001000010000000063
0037000935930OXYDOL NP GT PCK -.40         GROZ    0042000001000010000000063
0037000912050TD HOME PCK -5.00             GROZ    0400000001000010000000064
0037000912100TD NP RG PCK                  GROZ    0017000001000010000000064
0037000912170TD HOME PCK                   GROZ    0400000001000010000000064
0037000912200TD NP UNS GT PCK              GROZ    0042000001000010000000064
0037000912260TD GT PCK -.15                GROZ    0049000001000010000000064
0037000912270TD GT PCK -.25                GROZ    0049000001000010000000064
0037000912300TD NP KG PCK                  GROZ    0072000001000010000000064
0037000912320TD KG PCK -1.00               GROZ    0072000001000010000000064
0037000912360TD KG PCK -.50                GROZ    0072000001000010000000064
0037000912370TD KG PCK -.75                GROZ    0072000001000010000000064
0037000912400TD NP FM PCK                  GROZ    0147000001000010000000064
0037000912430TD NP FM PCK -.70             GROZ    0171000000000010000000064
0037000912450TD FM PCK -1.00               GROZ    0147000001000010000000064
0037000912460TD FM PCK -1.50               GROZ    0147000001000010000000064
0037000912500TD HOME PCK                   GROZ    0400000001000010000000064
0037000912680TD FM PCK -2.50               GROZ    0147000001000010000000064
0037000912790TD HOME PCK -5.00             GROZ    0400000001000010000000064
0037000912900TD NP GT PCK                  GROZ    0042000001000010000000064
0037000912950TD GT PCK -.40                GROZ    0042000001000010000000064
0037000912970TD GT PCK -.25                GROZ    0042000001000010000000064
0037000917000TD NP UNS GT PCK              GROZ    0042000001000010000000064
0037000917010TD UNS GT PCK -.25            GROZ    0042000001000010000000064
0037000917030TD NP UNS GT PCK -.40         GROZ    0042000001000010000000064
0037000917100TD UNS RG PCK                 GROZ    0017000001000010000000064
0037000917110TD UNS RG PCK PP              GROZ    0020000001000010000000064
0037000917300TD UNS KG PCK                 GROZ    0072000001000010000000064
0037000917360TD UNS KG PCK -.50            GROZ    0072000001000010000000064
0037000917390TD UNS KG PCK -1.00           GROZ    0072000001000010000000064
0037000917400TD UNS FM PCK                 GROZ    0147000001000010000000064
0037000917450TD UNS FM PCK -1.00           GROZ    0147000001000010000000064
0037000917500TD NP UNS RG PCK              GROZ    0017000001000010000000064
0037000917510TD UNS RG PCK/=BOUNCE PP      GROZ    0020000001000010000000064
0037000917520TD UNS FM PCK -2.50           GROZ    0147000001000010000000064
0037000917530TD UNS FM PCK -1.50           GROZ    0147000001000010000000064
0037000917540TD UNS KG PCK -.75            GROZ    0072000001000010000000064
0037000917700TD NP UNS KG PCK              GROZ    0072000001000010000000064
0037000917760TD UNS KG PCK -.50            GROZ    0072000001000010000000064
0037000917790TD NP UNS KG PCK -.75         GROZ    0072000001000010000000064
0037000917800TD NP UNS FM PCK              GROZ    0147000001000010000000064
0037000917850TD NP UNS FM PCK -1.00        GROZ    0147000001000010000000064
0037000917860TD NP UNS FM PCK -1.50        GROZ    0147000001000010000000064
0037000917900TD NP UNS GT PCK              GROZ    0042000001000010000000064
0037000917910TD NP UNS GT PCK -.25         GROZ    0042000001000010000000064
0037000917920TD NP UNS GT PCK -.40         GROZ    0042000001000010000000064
0037000936050TD NP HOME PCK -4.00          GROZ    0400000001000010000000064
0037000936100TD NP RG PCK                  GROZ    0017000001000010000000064
0037000936200TD NP GT PCK                  GROZ    0049000001000010000000064
0037000936250TD NP GT PCK -.40             GROZ    0042000001000010000000064
0037000936300TD NP KG PCK                  GROZ    0072000001000010000000064
0037000936320TD NP KG PCK -.75             GROZ    0072000001000010000000064
0037000936360TD NP KG PCK -.50             GROZ    0072000001000010000000064
0037000936400TD NP FM PCK                  GROZ    0147000001000010000000064
0037000936450TD NP FM PCK -1.00            GROZ    0147000001000010000000064
0037000936500TD NP HOME PCK                GROZ    0400000001000010000000064
0037000936860TD NP FM PCK -1.50            GROZ    0147000001000010000000064
0037000936900TD NP GT PCK                  GROZ    0042000001000010000000064
0037000936910TD NP GT PCK -.25             GROZ    0042000001000010000000064
0074441000490KTCN KLATTER LW SD GT PCK     GROZ    0051000001000010000000066
0037800111300SUN GT PCK                    GROZ    0042000001000010000000068
0037800111070WHITE KING D GT PCK           GROZ    0042000001000010000000069
0011161174090CTL BR GT PCK                 GROZ    0049000001000010000000071
0022222029310CTL BR FM PCK                 GROZ    0160000001000010000000071
0022388500490GENERIC GT PCK                GROZ    0049000001000010000000071
0024900850000GENERIC GT PCK                GROZ    0049000001000010000000071
0024900853600GENERIC GT PCK                GROZ    0049000001000010000000071
0024900855150GENERIC FM PCK                GROZ    0160000001000010000000071
0024900855160GENERIC NP GT PCK             GROZ    0042000001000010000000071
0024900855190GENERIC FM PCK                GROZ    0147000001000010000000071
0036800170150CTL BR LWP GT PCK             GROZ    0049000001000010000000071
0036800170900CTL BR FM PCK                 GROZ    0160000001000010000000071
0036800171130CTL BR KG PCK                 GROZ    0084000001000010000000071
0036800171280CTL BR H-D NP KG PCK          GROZ    0065000001000010000000071
0036800171300CTL BR H-D NP FM PCK          GROZ    0132000001000010000000071
0036800171310CTL BR HIGH SD GT PCK         GROZ    0038000001000010000000071
0036800171650CTL BR NP GT PCK              GROZ    0036000001000010000000071
0036800171670CTL BR H-D NP FM PCK          GROZ    0125000001000010000000071
0036800173000CTL BR LWP FM PCK             GROZ    0171000001000010000000071
0036800173160CTL BR LWP KG PCK             GROZ    0084000001000010000000071
0036800181250CTL BR NP GT PCK              GROZ    0042000001000010000000071
0036800181280CTL BR CN NP GT PCK           GROZ    0042000001000010000000071
0036800191130CTL BR NP KG PCK              GROZ    0084000001000010000000071
0036800357620CTL BR CN GT PCK              GROZ    0034500001000010000000071
0036800357650CTL BR CN LWP GT PCK          GROZ    0034500001000010000000071
0041163300000CTL BR GT PCK                 GROZ    0042000001000010000000071
0041163300010CTL BR HIGH SD GT PCK         GROZ    0049000001000010000000071
0041163300020CTL BR HIGH SD KG PCK         GROZ    0084000001000010000000071
0041163300040CTL BR /F-S KG PCK            GROZ    0072000001000010000000071
0041163300060CTL BR /F-S FM PCK            GROZ    0147000001000010000000071
0041163306010GENERIC GT PCK                GROZ    0042000001000010000000071
0041163306020GENERIC KG PCK                GROZ    0072000001000010000000071
0041348008180GENERIC CN GT PCK             GROZ    0034500001000010000000071
0050700985010GENERIC GT PCK                GROZ    0042000001000010000000071
0070038323900CTL BR CN HOME PCK            GROZ    0480000001000010000000071
0070038340630CTL BR GT PCK                 GROZ    0042000001000010000000071
0070038340650CTL BR GT PCK                 GROZ    0042000001000010000000071
0070038340780CTL BR FM PCK                 GROZ    0147000001000010000000071
0070038340800CTL BR LW SD FM PCK           GROZ    0160000001000010000000071
0070038340940CTL BR FM PCK                 GROZ    0147000001000010000000071
0070253360240CTL BR FM PCK                 GROZ    0160000001000010000000071
0071777101600GENERIC FM PCK                GROZ    0160000001000010000000071
0072613015550GENERIC LW SD FM PCK          GROZ    0160000001000010000000071
0072613588870GENERIC CN LW SD FM PCK       GROZ    0160000001000010000000071
0075450037860CTL BR GT PCK                 GROZ    0049000001000010000000071
0075450037880CTL BR KG PCK                 GROZ    0084000001000010000000071
0076619441880GENERIC CN FM PCK             GROZ    0160000001000010000000071
0077487090990GENERIC LW SD NP FM PCK       GROZ    0160000001000010000000071
0077487098360GENERIC CN GT PCK             GROZ    0049000001000010000000071
0037000972300B-3/F-S KG PCK PP             GROZ    0072000001000010000000073
